{
  "_format": "hh-sol-artifact-1",
  "contractName": "TokenManagerERC20",
  "sourceName": "contracts/schain/TokenManagers/TokenManagerERC20.sol",
  "abi": [
    {
      "anonymous": false,
      "inputs": [
        {
          "indexed": false,
          "internalType": "address",
          "name": "oldValue",
          "type": "address"
        },
        {
          "indexed": false,
          "internalType": "address",
          "name": "newValue",
          "type": "address"
        }
      ],
      "name": "DepositBoxWasChanged",
      "type": "event"
    },
    {
      "anonymous": false,
      "inputs": [
        {
          "indexed": true,
          "internalType": "bytes32",
          "name": "chainHash",
          "type": "bytes32"
        },
        {
          "indexed": true,
          "internalType": "address",
          "name": "erc20OnMainChain",
          "type": "address"
        },
        {
          "indexed": true,
          "internalType": "address",
          "name": "erc20OnSchain",
          "type": "address"
        }
      ],
      "name": "ERC20TokenAdded",
      "type": "event"
    },
    {
      "anonymous": false,
      "inputs": [
        {
          "indexed": true,
          "internalType": "bytes32",
          "name": "chainHash",
          "type": "bytes32"
        },
        {
          "indexed": true,
          "internalType": "address",
          "name": "erc20OnMainChain",
          "type": "address"
        },
        {
          "indexed": true,
          "internalType": "address",
          "name": "erc20OnSchain",
          "type": "address"
        }
      ],
      "name": "ERC20TokenCreated",
      "type": "event"
    },
    {
      "anonymous": false,
      "inputs": [
        {
          "indexed": true,
          "internalType": "bytes32",
          "name": "chainHash",
          "type": "bytes32"
        },
        {
          "indexed": true,
          "internalType": "address",
          "name": "contractOnMainnet",
          "type": "address"
        },
        {
          "indexed": false,
          "internalType": "uint256",
          "name": "amount",
          "type": "uint256"
        }
      ],
      "name": "ERC20TokenReady",
      "type": "event"
    },
    {
      "anonymous": false,
      "inputs": [
        {
          "indexed": true,
          "internalType": "bytes32",
          "name": "chainHash",
          "type": "bytes32"
        },
        {
          "indexed": true,
          "internalType": "address",
          "name": "erc20OnMainChain",
          "type": "address"
        },
        {
          "indexed": true,
          "internalType": "address",
          "name": "erc20OnSchain",
          "type": "address"
        },
        {
          "indexed": false,
          "internalType": "uint256",
          "name": "amount",
          "type": "uint256"
        }
      ],
      "name": "ERC20TokenReceived",
      "type": "event"
    },
    {
      "anonymous": false,
      "inputs": [
        {
          "indexed": true,
          "internalType": "bytes32",
          "name": "role",
          "type": "bytes32"
        },
        {
          "indexed": true,
          "internalType": "bytes32",
          "name": "previousAdminRole",
          "type": "bytes32"
        },
        {
          "indexed": true,
          "internalType": "bytes32",
          "name": "newAdminRole",
          "type": "bytes32"
        }
      ],
      "name": "RoleAdminChanged",
      "type": "event"
    },
    {
      "anonymous": false,
      "inputs": [
        {
          "indexed": true,
          "internalType": "bytes32",
          "name": "role",
          "type": "bytes32"
        },
        {
          "indexed": true,
          "internalType": "address",
          "name": "account",
          "type": "address"
        },
        {
          "indexed": true,
          "internalType": "address",
          "name": "sender",
          "type": "address"
        }
      ],
      "name": "RoleGranted",
      "type": "event"
    },
    {
      "anonymous": false,
      "inputs": [
        {
          "indexed": true,
          "internalType": "bytes32",
          "name": "role",
          "type": "bytes32"
        },
        {
          "indexed": true,
          "internalType": "address",
          "name": "account",
          "type": "address"
        },
        {
          "indexed": true,
          "internalType": "address",
          "name": "sender",
          "type": "address"
        }
      ],
      "name": "RoleRevoked",
      "type": "event"
    },
    {
      "inputs": [],
      "name": "AUTOMATIC_DEPLOY_ROLE",
      "outputs": [
        {
          "internalType": "bytes32",
          "name": "",
          "type": "bytes32"
        }
      ],
      "stateMutability": "view",
      "type": "function"
    },
    {
      "inputs": [],
      "name": "DEFAULT_ADMIN_ROLE",
      "outputs": [
        {
          "internalType": "bytes32",
          "name": "",
          "type": "bytes32"
        }
      ],
      "stateMutability": "view",
      "type": "function"
    },
    {
      "inputs": [],
      "name": "MAINNET_HASH",
      "outputs": [
        {
          "internalType": "bytes32",
          "name": "",
          "type": "bytes32"
        }
      ],
      "stateMutability": "view",
      "type": "function"
    },
    {
      "inputs": [],
      "name": "MAINNET_NAME",
      "outputs": [
        {
          "internalType": "string",
          "name": "",
          "type": "string"
        }
      ],
      "stateMutability": "view",
      "type": "function"
    },
    {
      "inputs": [],
      "name": "TOKEN_REGISTRAR_ROLE",
      "outputs": [
        {
          "internalType": "bytes32",
          "name": "",
          "type": "bytes32"
        }
      ],
      "stateMutability": "view",
      "type": "function"
    },
    {
      "inputs": [
        {
          "internalType": "string",
          "name": "targetChainName",
          "type": "string"
        },
        {
          "internalType": "address",
          "name": "erc20OnMainChain",
          "type": "address"
        },
        {
          "internalType": "address",
          "name": "erc20OnSchain",
          "type": "address"
        }
      ],
      "name": "addERC20TokenByOwner",
      "outputs": [],
      "stateMutability": "nonpayable",
      "type": "function"
    },
    {
      "inputs": [
        {
          "internalType": "string",
          "name": "schainName",
          "type": "string"
        },
        {
          "internalType": "address",
          "name": "newTokenManager",
          "type": "address"
        }
      ],
      "name": "addTokenManager",
      "outputs": [],
      "stateMutability": "nonpayable",
      "type": "function"
    },
    {
      "inputs": [
        {
          "internalType": "contract ERC20OnChain",
          "name": "",
          "type": "address"
        }
      ],
      "name": "addedClones",
      "outputs": [
        {
          "internalType": "bool",
          "name": "",
          "type": "bool"
        }
      ],
      "stateMutability": "view",
      "type": "function"
    },
    {
      "inputs": [],
      "name": "automaticDeploy",
      "outputs": [
        {
          "internalType": "bool",
          "name": "",
          "type": "bool"
        }
      ],
      "stateMutability": "view",
      "type": "function"
    },
    {
      "inputs": [
        {
          "internalType": "address",
          "name": "newDepositBox",
          "type": "address"
        }
      ],
      "name": "changeDepositBoxAddress",
      "outputs": [],
      "stateMutability": "nonpayable",
      "type": "function"
    },
    {
      "inputs": [
        {
          "internalType": "bytes32",
          "name": "",
          "type": "bytes32"
        },
        {
          "internalType": "address",
          "name": "",
          "type": "address"
        }
      ],
      "name": "clonesErc20",
      "outputs": [
        {
          "internalType": "contract ERC20OnChain",
          "name": "",
          "type": "address"
        }
      ],
      "stateMutability": "view",
      "type": "function"
    },
    {
      "inputs": [],
      "name": "communityLocker",
      "outputs": [
        {
          "internalType": "contract ICommunityLocker",
          "name": "",
          "type": "address"
        }
      ],
      "stateMutability": "view",
      "type": "function"
    },
    {
      "inputs": [],
      "name": "depositBox",
      "outputs": [
        {
          "internalType": "address",
          "name": "",
          "type": "address"
        }
      ],
      "stateMutability": "view",
      "type": "function"
    },
    {
      "inputs": [
        {
          "internalType": "address",
          "name": "",
          "type": "address"
        }
      ],
      "name": "deprecatedClonesErc20",
      "outputs": [
        {
          "internalType": "contract ERC20OnChain",
          "name": "",
          "type": "address"
        }
      ],
      "stateMutability": "view",
      "type": "function"
    },
    {
      "inputs": [],
      "name": "disableAutomaticDeploy",
      "outputs": [],
      "stateMutability": "nonpayable",
      "type": "function"
    },
    {
      "inputs": [],
      "name": "enableAutomaticDeploy",
      "outputs": [],
      "stateMutability": "nonpayable",
      "type": "function"
    },
    {
      "inputs": [
        {
          "internalType": "address",
          "name": "contractOnMainnet",
          "type": "address"
        },
        {
          "internalType": "uint256",
          "name": "amount",
          "type": "uint256"
        }
      ],
      "name": "exitToMainERC20",
      "outputs": [],
      "stateMutability": "nonpayable",
      "type": "function"
    },
    {
      "inputs": [
        {
          "internalType": "bytes32",
          "name": "role",
          "type": "bytes32"
        }
      ],
      "name": "getRoleAdmin",
      "outputs": [
        {
          "internalType": "bytes32",
          "name": "",
          "type": "bytes32"
        }
      ],
      "stateMutability": "view",
      "type": "function"
    },
    {
      "inputs": [
        {
          "internalType": "bytes32",
          "name": "role",
          "type": "bytes32"
        },
        {
          "internalType": "uint256",
          "name": "index",
          "type": "uint256"
        }
      ],
      "name": "getRoleMember",
      "outputs": [
        {
          "internalType": "address",
          "name": "",
          "type": "address"
        }
      ],
      "stateMutability": "view",
      "type": "function"
    },
    {
      "inputs": [
        {
          "internalType": "bytes32",
          "name": "role",
          "type": "bytes32"
        }
      ],
      "name": "getRoleMemberCount",
      "outputs": [
        {
          "internalType": "uint256",
          "name": "",
          "type": "uint256"
        }
      ],
      "stateMutability": "view",
      "type": "function"
    },
    {
      "inputs": [
        {
          "internalType": "bytes32",
          "name": "role",
          "type": "bytes32"
        },
        {
          "internalType": "address",
          "name": "account",
          "type": "address"
        }
      ],
      "name": "grantRole",
      "outputs": [],
      "stateMutability": "nonpayable",
      "type": "function"
    },
    {
      "inputs": [
        {
          "internalType": "bytes32",
          "name": "role",
          "type": "bytes32"
        },
        {
          "internalType": "address",
          "name": "account",
          "type": "address"
        }
      ],
      "name": "hasRole",
      "outputs": [
        {
          "internalType": "bool",
          "name": "",
          "type": "bool"
        }
      ],
      "stateMutability": "view",
      "type": "function"
    },
    {
      "inputs": [
        {
          "internalType": "string",
          "name": "schainName",
          "type": "string"
        }
      ],
      "name": "hasTokenManager",
      "outputs": [
        {
          "internalType": "bool",
          "name": "",
          "type": "bool"
        }
      ],
      "stateMutability": "view",
      "type": "function"
    },
    {
      "inputs": [
        {
          "internalType": "string",
          "name": "newChainName",
          "type": "string"
        },
        {
          "internalType": "contract IMessageProxyForSchain",
          "name": "newMessageProxy",
          "type": "address"
        },
        {
          "internalType": "contract ITokenManagerLinker",
          "name": "newIMALinker",
          "type": "address"
        },
        {
          "internalType": "contract ICommunityLocker",
          "name": "newCommunityLocker",
          "type": "address"
        },
        {
          "internalType": "address",
          "name": "newDepositBox",
          "type": "address"
        }
      ],
      "name": "initialize",
      "outputs": [],
      "stateMutability": "nonpayable",
      "type": "function"
    },
    {
      "inputs": [
        {
          "internalType": "string",
          "name": "newSchainName",
          "type": "string"
        },
        {
          "internalType": "contract IMessageProxyForSchain",
          "name": "newMessageProxy",
          "type": "address"
        },
        {
          "internalType": "contract ITokenManagerLinker",
          "name": "newIMALinker",
          "type": "address"
        },
        {
          "internalType": "contract ICommunityLocker",
          "name": "newCommunityLocker",
          "type": "address"
        },
        {
          "internalType": "address",
          "name": "newDepositBox",
          "type": "address"
        }
      ],
      "name": "initializeTokenManager",
      "outputs": [],
      "stateMutability": "nonpayable",
      "type": "function"
    },
    {
      "inputs": [],
      "name": "messageProxy",
      "outputs": [
        {
          "internalType": "contract IMessageProxyForSchain",
          "name": "",
          "type": "address"
        }
      ],
      "stateMutability": "view",
      "type": "function"
    },
    {
      "inputs": [
        {
          "internalType": "bytes32",
          "name": "fromChainHash",
          "type": "bytes32"
        },
        {
          "internalType": "address",
          "name": "sender",
          "type": "address"
        },
        {
          "internalType": "bytes",
          "name": "data",
          "type": "bytes"
        }
      ],
      "name": "postMessage",
      "outputs": [
        {
          "internalType": "address",
          "name": "",
          "type": "address"
        }
      ],
      "stateMutability": "nonpayable",
      "type": "function"
    },
    {
      "inputs": [
        {
          "internalType": "string",
          "name": "schainName",
          "type": "string"
        }
      ],
      "name": "removeTokenManager",
      "outputs": [],
      "stateMutability": "nonpayable",
      "type": "function"
    },
    {
      "inputs": [
        {
          "internalType": "bytes32",
          "name": "role",
          "type": "bytes32"
        },
        {
          "internalType": "address",
          "name": "account",
          "type": "address"
        }
      ],
      "name": "renounceRole",
      "outputs": [],
      "stateMutability": "nonpayable",
      "type": "function"
    },
    {
      "inputs": [
        {
          "internalType": "bytes32",
          "name": "role",
          "type": "bytes32"
        },
        {
          "internalType": "address",
          "name": "account",
          "type": "address"
        }
      ],
      "name": "revokeRole",
      "outputs": [],
      "stateMutability": "nonpayable",
      "type": "function"
    },
    {
      "inputs": [],
      "name": "schainHash",
      "outputs": [
        {
          "internalType": "bytes32",
          "name": "",
          "type": "bytes32"
        }
      ],
      "stateMutability": "view",
      "type": "function"
    },
    {
      "inputs": [
        {
          "internalType": "bytes4",
          "name": "interfaceId",
          "type": "bytes4"
        }
      ],
      "name": "supportsInterface",
      "outputs": [
        {
          "internalType": "bool",
          "name": "",
          "type": "bool"
        }
      ],
      "stateMutability": "view",
      "type": "function"
    },
    {
      "inputs": [],
      "name": "tokenManagerLinker",
      "outputs": [
        {
          "internalType": "contract ITokenManagerLinker",
          "name": "",
          "type": "address"
        }
      ],
      "stateMutability": "view",
      "type": "function"
    },
    {
      "inputs": [
        {
          "internalType": "bytes32",
          "name": "",
          "type": "bytes32"
        }
      ],
      "name": "tokenManagers",
      "outputs": [
        {
          "internalType": "address",
          "name": "",
          "type": "address"
        }
      ],
      "stateMutability": "view",
      "type": "function"
    },
    {
      "inputs": [
        {
          "internalType": "contract IERC20Upgradeable",
          "name": "",
          "type": "address"
        }
      ],
      "name": "totalSupplyOnMainnet",
      "outputs": [
        {
          "internalType": "uint256",
          "name": "",
          "type": "uint256"
        }
      ],
      "stateMutability": "view",
      "type": "function"
    },
    {
      "inputs": [
        {
          "internalType": "string",
          "name": "targetSchainName",
          "type": "string"
        },
        {
          "internalType": "address",
          "name": "contractOnMainnet",
          "type": "address"
        },
        {
          "internalType": "uint256",
          "name": "amount",
          "type": "uint256"
        }
      ],
      "name": "transferToSchainERC20",
      "outputs": [],
      "stateMutability": "nonpayable",
      "type": "function"
    },
    {
      "inputs": [
        {
          "internalType": "bytes32",
          "name": "",
          "type": "bytes32"
        },
        {
          "internalType": "address",
          "name": "",
          "type": "address"
        }
      ],
      "name": "transferredAmount",
      "outputs": [
        {
          "internalType": "uint256",
          "name": "",
          "type": "uint256"
        }
      ],
      "stateMutability": "view",
      "type": "function"
    }
  ],
  "bytecode": "0x608060405234801561001057600080fd5b50616271806100206000396000f3fe60806040523480156200001157600080fd5b5060043610620002555760003560e01c80636d6112861162000149578063babc4a3311620000c7578063d547741f1162000086578063d547741f14620005da578063dec2deb614620005f1578063eafd15c81462000606578063edcc12b5146200061d578063f429e383146200063457600080fd5b8063babc4a33146200053f578063c0e312dc146200056d578063ca15c8731462000584578063cb703bff146200059b578063cc5b715b14620005b257600080fd5b80639010d07c11620001145780639010d07c14620004d857806391d1485414620004ef578063a217fddf1462000506578063aebaaca9146200050f578063b9581c50146200053557600080fd5b80636d61128614620004825780636d6c68e614620004965780638504950614620004aa578063884cee5a14620004c157600080fd5b806339927cf911620001d757806350f4428011620001a257806350f4428014620003d3578063510d8a5814620004095780635573b8b6146200044057806368eb202214620004545780636ce681d2146200046b57600080fd5b806339927cf9146200036f5780633b690b6b14620003865780633fa194ce1462000390578063467a5d8114620003a757600080fd5b8063248a9ca31162000224578063248a9ca314620002ee57806328c5e18214620003235780632dc151de146200032d5780632f2ff15d146200034157806336568abe146200035857600080fd5b806301ffc9a7146200025a578063029996b814620002865780630b885ac314620002925780630f1a8f7414620002a9575b600080fd5b620002716200026b36600462003612565b62000657565b60405190151581526020015b60405180910390f35b6200029062000685565b005b62000290620002a33660046200384d565b620006dd565b620002d5620002ba36600462003541565b60ce602052600090815260409020546001600160a01b031681565b6040516001600160a01b0390911681526020016200027d565b62000314620002ff36600462003541565b60009081526065602052604090206001015490565b6040519081526020016200027d565b62000314620006f3565b60ca54620002d5906001600160a01b031681565b62000290620003523660046200355b565b6200073e565b62000290620003693660046200355b565b62000769565b62000271620003803660046200365c565b6200078f565b6200031460cc5481565b620003146000805160206200621c83398151915281565b620002d5620003b8366004620034ce565b60cf602052600090815260409020546001600160a01b031681565b620003fa6040518060400160405280600781526020016613585a5b9b995d60ca1b81525081565b6040516200027d919062003c1f565b620002d56200041a3660046200355b565b60d26020908152600092835260408084209091529082529020546001600160a01b031681565b60c954620002d5906001600160a01b031681565b6200029062000465366004620034ee565b620007ec565b620002906200047c3660046200384d565b620008b2565b60cd54620002d5906001600160a01b031681565b60cb54620002d5906001600160a01b031681565b62000290620004bb3660046200376c565b62000a88565b620002d5620004d23660046200358e565b62000cb6565b620002d5620004e9366004620035ef565b62000e52565b62000271620005003660046200355b565b62000e73565b62000314600081565b6200027162000520366004620034ce565b60d16020526000908152604090205460ff1681565b6200029062000e9e565b62000314620005503660046200355b565b60d360209081526000928352604080842090915290825290205481565b620002906200057e3660046200365c565b62000ee7565b620003146200059536600462003541565b62001005565b62000290620005ac366004620036a1565b6200101e565b620003147ffda70c2cc66a36c14884ee85424961f51b1d92b4494751699b6d105b3bcbcba881565b62000290620005eb3660046200355b565b620011a5565b60cd546200027190600160a01b900460ff1681565b6200029062000617366004620036fd565b620011b1565b620002906200062e366004620034ce565b6200159e565b6200031462000645366004620034ce565b60d06020526000908152604090205481565b60006001600160e01b03198216635a05180f60e01b14806200067f57506200067f82620016ba565b92915050565b620006a06000805160206200621c8339815191523362000e73565b620006c85760405162461bcd60e51b8152600401620006bf9062003c5d565b60405180910390fd5b60cd805460ff60a01b1916600160a01b179055565b620006ec8585858585620008b2565b5050505050565b6040518060400160405280600781526020016613585a5b9b995d60ca1b81525060405160200162000725919062003b2d565b6040516020818303038152906040528051906020012081565b6200074a8282620016f1565b60008281526097602052604090206200076490826200171b565b505050565b62000775828262001732565b6000828152609760205260409020620007649082620017b0565b6000806001600160a01b031660ce60008585604051602001620007b492919062003b1d565b60408051808303601f19018152918152815160209283012083529082019290925201600020546001600160a01b031614159392505050565b60cb546040516311be333d60e11b81523360048201526001600160a01b039091169063237c667a90602401600060405180830381600087803b1580156200083257600080fd5b505af115801562000847573d6000803e3d6000fd5b50505050620008ae6040518060400160405280600781526020016613585a5b9b995d60ca1b81525060405160200162000881919062003b2d565b60408051601f19818403018152919052805160209091012060cd546001600160a01b0316843385620017c7565b5050565b600054610100900460ff1680620008cc575060005460ff16155b620008eb5760405162461bcd60e51b8152600401620006bf9062003c9e565b600054610100900460ff161580156200090e576000805461ffff19166101011790555b6001600160a01b038216620009665760405162461bcd60e51b815260206004820181905260248201527f4465706f736974426f7820616464726573732068617320746f206265207365746044820152606401620006bf565b6200097062001c55565b6200097d60003362001cef565b620009986000805160206200621c8339815191523362001cef565b620009c47ffda70c2cc66a36c14884ee85424961f51b1d92b4494751699b6d105b3bcbcba83362001cef565b85604051602001620009d7919062003b2d565b60408051601f19818403018152828252805160209182012060cc5560c980546001600160a01b038a81166001600160a01b03199283161790925560ca80548a841690831617905560cb805489841690831617905560cd8054928816929091168217905560008452908301527fc968af77923193016f61d74ba6827296db5e1f37ec4fab3ad1ef20e193395e59910160405180910390a1801562000a80576000805461ff00191690555b505050505050565b83838080601f016020809104026020016040519081016040528093929190818152602001838380828437600092018290525060405133945090925062000ad49150849060200162003b2d565b60408051601f1981840301815282825280516020918201208383018352600784526613585a5b9b995d60ca1b84830152915191935062000b1692910162003b2d565b6040516020818303038152906040528051906020012081141562000b965760405162461bcd60e51b815260206004820152603060248201527f546869732066756e6374696f6e206973206e6f7420666f72207472616e73666560448201526f1c9c9a5b99c81d1bc813585a5b9b995d60821b6064820152608401620006bf565b6001600160a01b03821662000bee5760405162461bcd60e51b815260206004820152601a60248201527f496e636f727265637420726563656976657220616464726573730000000000006044820152606401620006bf565b600081815260ce60205260409020546001600160a01b031662000c545760405162461bcd60e51b815260206004820152601f60248201527f496e636f727265637420546f6b656e204d616e616765722061646472657373006044820152606401620006bf565b6000878760405160200162000c6b92919062003b1d565b60408051601f198184030181529181528151602092830120600081815260ce90935291205490915062000cac9082906001600160a01b0316883389620017c7565b5050505050505050565b60c9546000906001600160a01b0316331462000d155760405162461bcd60e51b815260206004820152601c60248201527f53656e646572206973206e6f742061204d65737361676550726f7879000000006044820152606401620006bf565b848460cc54821415801562000d31575062000d31828262001cfb565b62000d7f5760405162461bcd60e51b815260206004820152601b60248201527f526563656976657220636861696e20697320696e636f727265637400000000006044820152606401620006bf565b600062000d8d868662001d86565b90506000600282600c81111562000da85762000da862003f53565b148062000dc95750600482600c81111562000dc75762000dc762003f53565b145b8062000de95750600382600c81111562000de75762000de762003f53565b145b1562000e045762000dfc89888862001dda565b905062000e46565b60405162461bcd60e51b815260206004820152601660248201527526b2b9b9b0b3b2aa3cb8329034b9903ab735b737bbb760511b6044820152606401620006bf565b98975050505050505050565b600082815260976020526040812062000e6c9083620023d7565b9392505050565b60009182526065602090815260408084206001600160a01b0393909316845291905290205460ff1690565b62000eb96000805160206200621c8339815191523362000e73565b62000ed85760405162461bcd60e51b8152600401620006bf9062003c5d565b60cd805460ff60a01b19169055565b60ca546001600160a01b031633148062000f09575062000f0960003362000e73565b62000f4f5760405162461bcd60e51b81526020600482015260156024820152742737ba1030baba3437b934bd32b21031b0b63632b960591b6044820152606401620006bf565b6000828260405160200162000f6692919062003b1d565b60408051601f198184030181529181528151602092830120600081815260ce9093529120549091506001600160a01b031662000fe55760405162461bcd60e51b815260206004820152601860248201527f546f6b656e204d616e61676572206973206e6f742073657400000000000000006044820152606401620006bf565b600090815260ce6020526040902080546001600160a01b03191690555050565b60008181526097602052604081206200067f90620023e5565b60ca546001600160a01b03163314806200104057506200104060003362000e73565b620010865760405162461bcd60e51b81526020600482015260156024820152742737ba1030baba3437b934bd32b21031b0b63632b960591b6044820152606401620006bf565b600083836040516020016200109d92919062003b1d565b60408051601f198184030181529181528151602092830120600081815260ce9093529120549091506001600160a01b0316156200111d5760405162461bcd60e51b815260206004820152601c60248201527f546f6b656e204d616e6167657220697320616c726561647920736574000000006044820152606401620006bf565b6001600160a01b038216620011755760405162461bcd60e51b815260206004820152601f60248201527f496e636f727265637420546f6b656e204d616e616765722061646472657373006044820152606401620006bf565b600090815260ce6020526040902080546001600160a01b0319166001600160a01b03929092169190911790555050565b620007758282620023f0565b620011dd7ffda70c2cc66a36c14884ee85424961f51b1d92b4494751699b6d105b3bcbcba83362000e73565b6200122b5760405162461bcd60e51b815260206004820181905260248201527f544f4b454e5f5245474953545241525f524f4c452069732072657175697265646044820152606401620006bf565b60c954604051634ccd5cd560e11b81526001600160a01b039091169063999ab9aa906200125f908790879060040162003bf0565b60206040518083038186803b1580156200127857600080fd5b505afa1580156200128d573d6000803e3d6000fd5b505050506040513d601f19601f82011682018060405250810190620012b391906200351d565b620012fa5760405162461bcd60e51b815260206004820152601660248201527510da185a5b881a5cc81b9bdd0818dbdb9b9958dd195960521b6044820152606401620006bf565b6001600160a01b0381163b620013535760405162461bcd60e51b815260206004820152601f60248201527f476976656e2061646472657373206973206e6f74206120636f6e7472616374006044820152606401620006bf565b806001600160a01b03166318160ddd6040518163ffffffff1660e01b815260040160206040518083038186803b1580156200138d57600080fd5b505afa158015620013a2573d6000803e3d6000fd5b505050506040513d601f19601f82011682018060405250810190620013c8919062003a61565b15620014175760405162461bcd60e51b815260206004820152601760248201527f546f74616c537570706c79206973206e6f74207a65726f0000000000000000006044820152606401620006bf565b600084846040516020016200142e92919062003b1d565b60408051601f198184030181529181528151602092830120600081815260d284528281206001600160a01b038881168352945291909120549092501615620014b25760405162461bcd60e51b8152602060048201526016602482015275436f756c64206e6f742072656c696e6b20636c6f6e6560501b6044820152606401620006bf565b6001600160a01b038216600090815260d1602052604090205460ff16156200151d5760405162461bcd60e51b815260206004820152601760248201527f436c6f6e652077617320616c72656164792061646465640000000000000000006044820152606401620006bf565b600081815260d2602090815260408083206001600160a01b0387811680865291845282852080546001600160a01b031916918816918217905580855260d1909352818420805460ff1916600117905590519192909184917f89b97f12155170c72b8eb3449d5f1ba0c6a29e5546051dc35694313b1b60741f91a45050505050565b620015ab60003362000e73565b620015f95760405162461bcd60e51b815260206004820152601e60248201527f44454641554c545f41444d494e5f524f4c4520697320726571756972656400006044820152606401620006bf565b6001600160a01b038116620016515760405162461bcd60e51b815260206004820181905260248201527f4465706f736974426f7820616464726573732068617320746f206265207365746044820152606401620006bf565b60cd54604080516001600160a01b03928316815291831660208301527fc968af77923193016f61d74ba6827296db5e1f37ec4fab3ad1ef20e193395e59910160405180910390a160cd80546001600160a01b0319166001600160a01b0392909216919091179055565b60006001600160e01b03198216637965db0b60e01b14806200067f57506301ffc9a760e01b6001600160e01b03198316146200067f565b6000828152606560205260409020600101546200170f81336200241a565b62000764838362002489565b600062000e6c836001600160a01b03841662002513565b6001600160a01b0381163314620017a45760405162461bcd60e51b815260206004820152602f60248201527f416363657373436f6e74726f6c3a2063616e206f6e6c792072656e6f756e636560448201526e103937b632b9903337b91039b2b63360891b6064820152608401620006bf565b620008ae828262002565565b600062000e6c836001600160a01b038416620025cf565b600085815260d2602090815260408083206001600160a01b03808816855292528220541680620017f8575060019050835b6001600160a01b0381163b620018515760405162461bcd60e51b815260206004820152601860248201527f4e6f20746f6b656e20636c6f6e65206f6e2073636861696e00000000000000006044820152606401620006bf565b6040516370a0823160e01b815233600482015283906001600160a01b038316906370a082319060240160206040518083038186803b1580156200189357600080fd5b505afa158015620018a8573d6000803e3d6000fd5b505050506040513d601f19601f82011682018060405250810190620018ce919062003a61565b1015620019135760405162461bcd60e51b8152602060048201526012602482015271496e73756666696369656e742066756e647360701b6044820152606401620006bf565b604051636eb1769f60e11b815233600482015230602482015283906001600160a01b0383169063dd62ed3e9060440160206040518083038186803b1580156200195b57600080fd5b505afa15801562001970573d6000803e3d6000fd5b505050506040513d601f19601f8201168201806040525081019062001996919062003a61565b1015620019f75760405162461bcd60e51b815260206004820152602860248201527f5472616e73666572206973206e6f7420617070726f76656420627920746f6b6560448201526737103437b63232b960c11b6064820152608401620006bf565b600062001a06868686620026d3565b9050821562001adb5762001a1d8883338762002734565b905062001a2c888386620028c0565b6040516323b872dd60e01b8152336004820152306024820152604481018590526001600160a01b038316906323b872dd90606401602060405180830381600087803b15801562001a7b57600080fd5b505af115801562001a90573d6000803e3d6000fd5b505050506040513d601f19601f8201168201806040525081019062001ab691906200351d565b62001ad55760405162461bcd60e51b8152600401620006bf9062003cec565b62001be1565b6040516323b872dd60e01b8152336004820152306024820152604481018590526001600160a01b038316906323b872dd90606401602060405180830381600087803b15801562001b2a57600080fd5b505af115801562001b3f573d6000803e3d6000fd5b505050506040513d601f19601f8201168201806040525081019062001b6591906200351d565b62001b845760405162461bcd60e51b8152600401620006bf9062003cec565b604051630852cd8d60e31b8152600481018590526001600160a01b038316906342966c6890602401600060405180830381600087803b15801562001bc757600080fd5b505af115801562001bdc573d6000803e3d6000fd5b505050505b60c954604051634a24490160e11b81526001600160a01b039091169063944892029062001c17908b908b90869060040162003bc4565b600060405180830381600087803b15801562001c3257600080fd5b505af115801562001c47573d6000803e3d6000fd5b505050505050505050505050565b600054610100900460ff168062001c6f575060005460ff16155b62001c8e5760405162461bcd60e51b8152600401620006bf9062003c9e565b600054610100900460ff1615801562001cb1576000805461ffff19166101011790555b62001cbb620028fe565b62001cc5620028fe565b62001ccf620028fe565b62001cd9620028fe565b801562001cec576000805461ff00191690555b50565b6200074a82826200296e565b60006040518060400160405280600781526020016613585a5b9b995d60ca1b81525060405160200162001d2f919062003b2d565b60405160208183030381529060405280519060200120831462001d6f57600083815260ce60205260409020546001600160a01b0383811691161462000e6c565b5060cd546001600160a01b03908116911614919050565b60008062001d978385018562003541565b905062001da660208262003f1a565b62001dcc5762001dc362001dbd8483818862003e4a565b62001d86565b9150506200067f565b62001dc3838501856200363e565b60008062001de9848462001d86565b9050600080600062001dfc87876200297a565b919450925090506000600285600c81111562001e1c5762001e1c62003f53565b146200218c576000600386600c81111562001e3b5762001e3b62003f53565b141562001e8557600062001e508a8a62002a3c565b60209081015160008d815260d2835260408082206001600160a01b03808b16845294529020549091169350915062001fef9050565b600062001e938a8a62002b17565b60208082015160008e815260d2835260408082206001600160a01b03808c16845294529020549091169450925090508262001fed5760cd54600160a01b900460ff1662001f235760405162461bcd60e51b815260206004820152601c60248201527f4175746f6d61746963206465706c6f792069732064697361626c6564000000006044820152606401620006bf565b80604001516000015181604001516040015160405162001f439062003348565b62001f5092919062003c34565b604051809103906000f08015801562001f6d573d6000803e3d6000fd5b5060008c815260d2602090815260408083206001600160a01b038a811680865291845282852080546001600160a01b031916918716918217905580855260d1909352818420805460ff191660011790559051939650909290918e917f817384d3c8c32b58342425cd864f5540355cc93dfbbfc2df8763793d2d3a5e129190a45b505b6001600160a01b038216600090815260d0602052604090205481146200202b576001600160a01b038216600090815260d0602052604090208190555b600080620020ae846001600160a01b03166318160ddd6040518163ffffffff1660e01b815260040160206040518083038186803b1580156200206c57600080fd5b505afa15801562002081573d6000803e3d6000fd5b505050506040513d601f19601f82011682018060405250810190620020a7919062003a61565b8662002c0e565b9092509050818015620020d957506001600160a01b038416600090815260d060205260409020548111155b6200211f5760405162461bcd60e51b8152602060048201526015602482015274151bdd185b081cdd5c1c1b1e48195e18d959591959605a1b6044820152606401620006bf565b6040516340c10f1960e01b81526001600160a01b038881166004830152602482018790528516906340c10f1990604401600060405180830381600087803b1580156200216a57600080fd5b505af11580156200217f573d6000803e3d6000fd5b505050505050506200237b565b6001600160a01b0383163b15158015620021bb5750600089815260d460205260409020620021bb908462002c39565b620022095760405162461bcd60e51b815260206004820152601a60248201527f496e636f7272656374206d61696e20636861696e20746f6b656e0000000000006044820152606401620006bf565b6040516370a0823160e01b815230600482015282906001600160a01b038516906370a082319060240160206040518083038186803b1580156200224b57600080fd5b505afa15801562002260573d6000803e3d6000fd5b505050506040513d601f19601f8201168201806040525081019062002286919062003a61565b1015620022c95760405162461bcd60e51b815260206004820152601060248201526f4e6f7420656e6f756768206d6f6e657960801b6044820152606401620006bf565b620022d689848462002c5c565b60405163a9059cbb60e01b81526001600160a01b0385811660048301526024820184905284169063a9059cbb90604401602060405180830381600087803b1580156200232157600080fd5b505af115801562002336573d6000803e3d6000fd5b505050506040513d601f19601f820116820180604052508101906200235c91906200351d565b6200237b5760405162461bcd60e51b8152600401620006bf9062003cec565b806001600160a01b0316836001600160a01b03168a7f131b32ac87206ff25b3250e2d194c4cc6d63e928ab212dbd294b03b49af27b4885604051620023c291815260200190565b60405180910390a45091979650505050505050565b600062000e6c838362002c90565b60006200067f825490565b6000828152606560205260409020600101546200240e81336200241a565b62000764838362002565565b62002426828262000e73565b620008ae5762002441816001600160a01b0316601462002cbd565b6200244e83602062002cbd565b6040516020016200246192919062003b4b565b60408051601f198184030181529082905262461bcd60e51b8252620006bf9160040162003c1f565b62002495828262000e73565b620008ae5760008281526065602090815260408083206001600160a01b03851684529091529020805460ff19166001179055620024cf3390565b6001600160a01b0316816001600160a01b0316837f2f8788117e7eff1d82e926ec794901d17c78024a50270940304540a733656f0d60405160405180910390a45050565b60008181526001830160205260408120546200255c575081546001818101845560008481526020808220909301849055845484825282860190935260409020919091556200067f565b5060006200067f565b62002571828262000e73565b15620008ae5760008281526065602090815260408083206001600160a01b0385168085529252808320805460ff1916905551339285917ff6391f5c32d9c69d2a47ea670b442974b53935d1edc7fd64eb21e047a839171b9190a45050565b60008181526001830160205260408120548015620026c8576000620025f660018362003eb3565b85549091506000906200260c9060019062003eb3565b90508181146200267857600086600001828154811062002630576200263062003f7f565b906000526020600020015490508087600001848154811062002656576200265662003f7f565b6000918252602080832090910192909255918252600188019052604090208390555b85548690806200268c576200268c62003f69565b6001900381819060005260206000200160009055905585600101600086815260200190815260200160002060009055600193505050506200067f565b60009150506200067f565b6040805160a08101825260026080820190815281526001600160a01b0380861660208084019190915290851682840152606080830185905292516200271b9183910162003db2565b6040516020818303038152906040529150509392505050565b606060008490506000816001600160a01b03166318160ddd6040518163ffffffff1660e01b815260040160206040518083038186803b1580156200277757600080fd5b505afa1580156200278c573d6000803e3d6000fd5b505050506040513d601f19601f82011682018060405250810190620027b2919062003a61565b905080841115620027fc5760405162461bcd60e51b8152602060048201526013602482015272105b5bdd5b9d081a5cc81a5b98dbdc9c9958dd606a1b6044820152606401620006bf565b600087815260d46020526040812062002816908862002c39565b90508062002855576200282a888862002e76565b6200284d8787876200283c8762002f8f565b620028478862003006565b620031a9565b935062002870565b6200286d878787620028678762002f8f565b62003221565b93505b866001600160a01b0316887f759c7e29aa34dec4bb9f3af86e647e11cffa0fee371049fd55e8779a2c24484e87604051620028ad91815260200190565b60405180910390a3505050949350505050565b600083815260d3602090815260408083206001600160a01b038616845290915281208054839290620028f490849062003e76565b9091555050505050565b600054610100900460ff168062002918575060005460ff16155b620029375760405162461bcd60e51b8152600401620006bf9062003c9e565b600054610100900460ff1615801562001cd9576000805461ffff1916610101179055801562001cec576000805461ff001916905550565b620008ae828262002489565b6000806000806200298c868662001d86565b9050600281600c811115620029a557620029a562003f53565b1415620029d9576000620029ba878762003294565b9050806040015181602001518260600151945094509450505062002a35565b600381600c811115620029f057620029f062003f53565b141562002a2757600062002a05878762002a3c565b5160408101516020820151606090920151909650909450925062002a35915050565b600062002a05878762002b17565b9250925092565b62002a7c6040805160e081018252600060c08201818152928201928352606082018190526080820181905260a08201529081908152602001600081525090565b600362002a8a848462001d86565b600c81111562002a9e5762002a9e62003f53565b1462002b095760405162461bcd60e51b815260206004820152603360248201527f4d6573736167652074797065206973206e6f74204552433230207472616e7366604482015272657220616e6420746f74616c20737570706c7960681b6064820152608401620006bf565b62000e6c82840184620039e7565b62002b746040805161010081018252600060e0820181815260608084019182526080840183905260a0840183905260c084018390529083526020808401839052845180830186528281529081019290925281840152909182015290565b600462002b82848462001d86565b600c81111562002b965762002b9662003f53565b1462002c005760405162461bcd60e51b815260206004820152603260248201527f4d6573736167652074797065206973206e6f74204552433230207472616e73666044820152716572207769746820746f6b656e20696e666f60701b6064820152608401620006bf565b62000e6c82840184620038e2565b6000808383018481101562002c2b57600080925092505062002c32565b6001925090505b9250929050565b6001600160a01b0381166000908152600183016020526040812054151562000e6c565b600083815260d3602090815260408083206001600160a01b038616845290915281208054839290620028f490849062003eb3565b600082600001828154811062002caa5762002caa62003f7f565b9060005260206000200154905092915050565b6060600062002cce83600262003e91565b62002cdb90600262003e76565b6001600160401b0381111562002cf55762002cf562003f95565b6040519080825280601f01601f19166020018201604052801562002d20576020820181803683370190505b509050600360fc1b8160008151811062002d3e5762002d3e62003f7f565b60200101906001600160f81b031916908160001a905350600f60fb1b8160018151811062002d705762002d7062003f7f565b60200101906001600160f81b031916908160001a905350600062002d9684600262003e91565b62002da390600162003e76565b90505b600181111562002e25576f181899199a1a9b1b9c1cb0b131b232b360811b85600f166010811062002ddb5762002ddb62003f7f565b1a60f81b82828151811062002df45762002df462003f7f565b60200101906001600160f81b031916908160001a90535060049490941c9362002e1d8162003f00565b905062002da6565b50831562000e6c5760405162461bcd60e51b815260206004820181905260248201527f537472696e67733a20686578206c656e67746820696e73756666696369656e746044820152606401620006bf565b6001600160a01b0381163b62002ecf5760405162461bcd60e51b815260206004820152601f60248201527f476976656e2061646472657373206973206e6f74206120636f6e7472616374006044820152606401620006bf565b600082815260d46020526040902062002ee9908262002c39565b1562002f385760405162461bcd60e51b815260206004820152601d60248201527f455243323020546f6b656e2077617320616c72656164792061646465640000006044820152606401620006bf565b600082815260d46020526040902062002f5290826200171b565b506040516000906001600160a01b0383169084907f89b97f12155170c72b8eb3449d5f1ba0c6a29e5546051dc35694313b1b60741f908490a45050565b6000816001600160a01b03166318160ddd6040518163ffffffff1660e01b815260040160206040518083038186803b15801562002fcb57600080fd5b505afa15801562002fe0573d6000803e3d6000fd5b505050506040513d601f19601f820116820180604052508101906200067f919062003a61565b604080516060808201835280825260006020830152918101919091526040518060600160405280836001600160a01b03166306fdde036040518163ffffffff1660e01b815260040160006040518083038186803b1580156200306757600080fd5b505afa1580156200307c573d6000803e3d6000fd5b505050506040513d6000823e601f3d908101601f19168201604052620030a69190810190620037ce565b8152602001836001600160a01b031663313ce5676040518163ffffffff1660e01b815260040160206040518083038186803b158015620030e557600080fd5b505afa158015620030fa573d6000803e3d6000fd5b505050506040513d601f19601f8201168201806040525081019062003120919062003a7b565b60ff168152602001836001600160a01b03166395d89b416040518163ffffffff1660e01b815260040160006040518083038186803b1580156200316257600080fd5b505afa15801562003177573d6000803e3d6000fd5b505050506040513d6000823e601f3d908101601f19168201604052620031a19190810190620037ce565b905292915050565b6040805161010081018252600460e0820190815260608083019182526001600160a01b03808a166080850152881660a084015260c08301879052908252602080830186905282840185905292519092620032069183910162003d19565b60405160208183030381529060405291505095945050505050565b6040805160e081018252600360c082019081528183019081526001600160a01b03808816606080850191909152908716608084015260a083018690529082526020808301859052925190926200327a9183910162003d8d565b604051602081830303815290604052915050949350505050565b6040805160a08101825260006080820181815282526020820181905291810182905260608101919091526002620032cc848462001d86565b600c811115620032e057620032e062003f53565b146200333a5760405162461bcd60e51b815260206004820152602260248201527f4d6573736167652074797065206973206e6f74204552433230207472616e736660448201526132b960f11b6064820152608401620006bf565b62000e6c8284018462003a42565b61224a8062003fd283390190565b60008083601f8401126200336957600080fd5b5081356001600160401b038111156200338157600080fd5b60208301915083602082850101111562002c3257600080fd5b8035600d8110620033aa57600080fd5b919050565b600082601f830112620033c157600080fd5b8135620033d8620033d28262003e20565b62003ded565b818152846020838601011115620033ee57600080fd5b816020850160208301376000918101602001919091529392505050565b600081830360808112156200341f57600080fd5b604051608081016001600160401b03828210818311171562003445576200344562003f95565b8160405282945060208412156200345b57600080fd5b60a083019350818410818511171562003478576200347862003f95565b508260405262003488856200339a565b81528152602084013591506200349e8262003fab565b81602082015260408401359150620034b68262003fab565b81604082015260608401356060820152505092915050565b600060208284031215620034e157600080fd5b813562000e6c8162003fab565b600080604083850312156200350257600080fd5b82356200350f8162003fab565b946020939093013593505050565b6000602082840312156200353057600080fd5b8151801515811462000e6c57600080fd5b6000602082840312156200355457600080fd5b5035919050565b600080604083850312156200356f57600080fd5b823591506020830135620035838162003fab565b809150509250929050565b60008060008060608587031215620035a557600080fd5b843593506020850135620035b98162003fab565b925060408501356001600160401b03811115620035d557600080fd5b620035e38782880162003356565b95989497509550505050565b600080604083850312156200360357600080fd5b50508035926020909101359150565b6000602082840312156200362557600080fd5b81356001600160e01b03198116811462000e6c57600080fd5b6000602082840312156200365157600080fd5b62000e6c826200339a565b600080602083850312156200367057600080fd5b82356001600160401b038111156200368757600080fd5b620036958582860162003356565b90969095509350505050565b600080600060408486031215620036b757600080fd5b83356001600160401b03811115620036ce57600080fd5b620036dc8682870162003356565b9094509250506020840135620036f28162003fab565b809150509250925092565b600080600080606085870312156200371457600080fd5b84356001600160401b038111156200372b57600080fd5b620037398782880162003356565b90955093505060208501356200374f8162003fab565b91506040850135620037618162003fab565b939692955090935050565b600080600080606085870312156200378357600080fd5b84356001600160401b038111156200379a57600080fd5b620037a88782880162003356565b9095509350506020850135620037be8162003fab565b9396929550929360400135925050565b600060208284031215620037e157600080fd5b81516001600160401b03811115620037f857600080fd5b8201601f810184136200380a57600080fd5b80516200381b620033d28262003e20565b8181528560208385010111156200383157600080fd5b6200384482602083016020860162003ecd565b95945050505050565b600080600080600060a086880312156200386657600080fd5b85356001600160401b038111156200387d57600080fd5b6200388b88828901620033af565b95505060208601356200389e8162003fab565b93506040860135620038b08162003fab565b92506060860135620038c28162003fab565b91506080860135620038d48162003fab565b809150509295509295909350565b600060208284031215620038f557600080fd5b81356001600160401b03808211156200390d57600080fd5b9083019060c082860312156200392257600080fd5b6200392c62003dc2565b6200393886846200340b565b81526080830135602082015260a0830135828111156200395757600080fd5b9290920191606083870312156200396d57600080fd5b6200397762003dc2565b8335838111156200398757600080fd5b6200399588828701620033af565b8252506020840135620039a88162003fc1565b6020820152604084013583811115620039c057600080fd5b620039ce88828701620033af565b6040830152508060408301525080935050505092915050565b600060a08284031215620039fa57600080fd5b604051604081018181106001600160401b038211171562003a1f5762003a1f62003f95565b60405262003a2e84846200340b565b815260809290920135602083015250919050565b60006080828403121562003a5557600080fd5b62000e6c83836200340b565b60006020828403121562003a7457600080fd5b5051919050565b60006020828403121562003a8e57600080fd5b815162000e6c8162003fc1565b6000815180845262003ab581602086016020860162003ecd565b601f01601f19169290920160200192915050565b805151600d811062003aeb57634e487b7160e01b600052602160045260246000fd5b82526020818101516001600160a01b039081169184019190915260408083015190911690830152606090810151910152565b8183823760009101908152919050565b6000825162003b4181846020870162003ecd565b9190910192915050565b7f416363657373436f6e74726f6c3a206163636f756e742000000000000000000081526000835162003b8581601785016020880162003ecd565b7001034b99036b4b9b9b4b733903937b6329607d1b601791840191820152835162003bb881602884016020880162003ecd565b01602801949350505050565b8381526001600160a01b0383166020820152606060408201819052600090620038449083018462003a9b565b60208152816020820152818360408301376000818301604090810191909152601f909201601f19160101919050565b60208152600062000e6c602083018462003a9b565b60408152600062003c49604083018562003a9b565b828103602084015262003844818562003a9b565b60208082526021908201527f4155544f4d415449435f4445504c4f595f524f4c4520697320726571756972656040820152601960fa1b606082015260800190565b6020808252602e908201527f496e697469616c697a61626c653a20636f6e747261637420697320616c72656160408201526d191e481a5b9a5d1a585b1a5e995960921b606082015260800190565b602080825260139082015272151c985b9cd9995c881dd85cc819985a5b1959606a1b604082015260600190565b6020815262003d2d60208201835162003ac9565b602082015160a08201526000604083015160c0808401528051606060e085015262003d5d61014085018262003a9b565b602083015160ff1661010086015260409092015184830360df190161012086015291905062003844818362003a9b565b600060a08201905062003da282845162003ac9565b6020830151608083015292915050565b608081016200067f828462003ac9565b604051606081016001600160401b038111828210171562003de75762003de762003f95565b60405290565b604051601f8201601f191681016001600160401b038111828210171562003e185762003e1862003f95565b604052919050565b60006001600160401b0382111562003e3c5762003e3c62003f95565b50601f01601f191660200190565b6000808585111562003e5b57600080fd5b8386111562003e6957600080fd5b5050820193919092039150565b6000821982111562003e8c5762003e8c62003f3d565b500190565b600081600019048311821515161562003eae5762003eae62003f3d565b500290565b60008282101562003ec85762003ec862003f3d565b500390565b60005b8381101562003eea57818101518382015260200162003ed0565b8381111562003efa576000848401525b50505050565b60008162003f125762003f1262003f3d565b506000190190565b60008262003f3857634e487b7160e01b600052601260045260246000fd5b500690565b634e487b7160e01b600052601160045260246000fd5b634e487b7160e01b600052602160045260246000fd5b634e487b7160e01b600052603160045260246000fd5b634e487b7160e01b600052603260045260246000fd5b634e487b7160e01b600052604160045260246000fd5b6001600160a01b038116811462001cec57600080fd5b60ff8116811462001cec57600080fdfe60806040523480156200001157600080fd5b506040516200224a3803806200224a833981016040819052620000349162000809565b600054610100900460ff16806200004e575060005460ff16155b620000a65760405162461bcd60e51b815260206004820152602e60248201526000805160206200220a83398151915260448201526d191e481a5b9a5d1a585b1a5e995960921b60648201526084015b60405180910390fd5b600054610100900460ff16158015620000c9576000805461ffff19166101011790555b620000de6200015c60201b620007cd1760201c565b620000f583836200022b60201b620008581760201c565b6200010a620002ea60201b620008d71760201c565b620001256000805160206200222a8339815191528062000384565b620001406000805160206200222a83398151915233620003cf565b801562000153576000805461ff00191690555b505050620008c6565b600054610100900460ff168062000176575060005460ff16155b620001ca5760405162461bcd60e51b815260206004820152602e60248201526000805160206200220a83398151915260448201526d191e481a5b9a5d1a585b1a5e995960921b60648201526084016200009d565b600054610100900460ff16158015620001ed576000805461ffff19166101011790555b620001f76200040d565b620002016200040d565b6200020b6200040d565b620002156200040d565b801562000228576000805461ff00191690555b50565b600054610100900460ff168062000245575060005460ff16155b620002995760405162461bcd60e51b815260206004820152602e60248201526000805160206200220a83398151915260448201526d191e481a5b9a5d1a585b1a5e995960921b60648201526084016200009d565b600054610100900460ff16158015620002bc576000805461ffff19166101011790555b620002c66200040d565b620002d28383620004b2565b8015620002e5576000805461ff00191690555b505050565b600054610100900460ff168062000304575060005460ff16155b620003585760405162461bcd60e51b815260206004820152602e60248201526000805160206200220a83398151915260448201526d191e481a5b9a5d1a585b1a5e995960921b60648201526084016200009d565b600054610100900460ff1615801562000201576000805461ffff19166101011790556200020b6200040d565b600082815260656020526040808220600101805490849055905190918391839186917fbd79b86ffe0ab8e8776151514217cd7cacd52c909f66475c3af44e129f0b00ff9190a4505050565b620003e682826200058660201b620009351760201c565b6000828152609760209081526040909120620002e59183906200093f62000596821b17901c565b600054610100900460ff168062000427575060005460ff16155b6200047b5760405162461bcd60e51b815260206004820152602e60248201526000805160206200220a83398151915260448201526d191e481a5b9a5d1a585b1a5e995960921b60648201526084016200009d565b600054610100900460ff1615801562000215576000805461ffff1916610101179055801562000228576000805461ff001916905550565b600054610100900460ff1680620004cc575060005460ff16155b620005205760405162461bcd60e51b815260206004820152602e60248201526000805160206200220a83398151915260448201526d191e481a5b9a5d1a585b1a5e995960921b60648201526084016200009d565b600054610100900460ff1615801562000543576000805461ffff19166101011790555b8251620005589060cc906020860190620006ac565b5081516200056e9060cd906020850190620006ac565b508015620002e5576000805461ff0019169055505050565b620005928282620005b6565b5050565b6000620005ad836001600160a01b0384166200065a565b90505b92915050565b60008281526065602090815260408083206001600160a01b038516845290915290205460ff16620005925760008281526065602090815260408083206001600160a01b03851684529091529020805460ff19166001179055620006163390565b6001600160a01b0316816001600160a01b0316837f2f8788117e7eff1d82e926ec794901d17c78024a50270940304540a733656f0d60405160405180910390a45050565b6000818152600183016020526040812054620006a357508154600181810184556000848152602080822090930184905584548482528286019093526040902091909155620005b0565b506000620005b0565b828054620006ba9062000873565b90600052602060002090601f016020900481019282620006de576000855562000729565b82601f10620006f957805160ff191683800117855562000729565b8280016001018555821562000729579182015b82811115620007295782518255916020019190600101906200070c565b50620007379291506200073b565b5090565b5b808211156200073757600081556001016200073c565b600082601f8301126200076457600080fd5b81516001600160401b0380821115620007815762000781620008b0565b604051601f8301601f19908116603f01168101908282118183101715620007ac57620007ac620008b0565b81604052838152602092508683858801011115620007c957600080fd5b600091505b83821015620007ed5785820183015181830184015290820190620007ce565b83821115620007ff5760008385830101525b9695505050505050565b600080604083850312156200081d57600080fd5b82516001600160401b03808211156200083557600080fd5b620008438683870162000752565b935060208501519150808211156200085a57600080fd5b50620008698582860162000752565b9150509250929050565b600181811c908216806200088857607f821691505b60208210811415620008aa57634e487b7160e01b600052602260045260246000fd5b50919050565b634e487b7160e01b600052604160045260246000fd5b61193480620008d66000396000f3fe608060405234801561001057600080fd5b50600436106101585760003560e01c806370a08231116100c3578063a457c2d71161007c578063a457c2d7146102ef578063a9059cbb14610302578063ca15c87314610315578063d539139314610328578063d547741f1461034f578063dd62ed3e1461036257600080fd5b806370a082311461026557806379cc67901461028e5780639010d07c146102a157806391d14854146102cc57806395d89b41146102df578063a217fddf146102e757600080fd5b80632f2ff15d116101155780632f2ff15d146101f5578063313ce5671461020a57806336568abe14610219578063395093511461022c57806340c10f191461023f57806342966c681461025257600080fd5b806301ffc9a71461015d57806306fdde0314610185578063095ea7b31461019a57806318160ddd146101ad57806323b872dd146101bf578063248a9ca3146101d2575b600080fd5b61017061016b3660046116ba565b61039b565b60405190151581526020015b60405180910390f35b61018d6103c6565b60405161017c9190611759565b6101706101a8366004611632565b610458565b60cb545b60405190815260200161017c565b6101706101cd3660046115f6565b61046e565b6101b16101e036600461165c565b60009081526065602052604090206001015490565b610208610203366004611675565b61051d565b005b6040516012815260200161017c565b610208610227366004611675565b610544565b61017061023a366004611632565b610566565b61020861024d366004611632565b6105a2565b61020861026036600461165c565b61061f565b6101b16102733660046115a8565b6001600160a01b0316600090815260c9602052604090205490565b61020861029c366004611632565b61062c565b6102b46102af366004611698565b6106ad565b6040516001600160a01b03909116815260200161017c565b6101706102da366004611675565b6106cc565b61018d6106f7565b6101b1600081565b6101706102fd366004611632565b610706565b610170610310366004611632565b61079f565b6101b161032336600461165c565b6107ac565b6101b17f9f2df0fed2c77648de5860a4cc508cd0818c85b8b8a1ab4ceeef8d981c8956a681565b61020861035d366004611675565b6107c3565b6101b16103703660046115c3565b6001600160a01b03918216600090815260ca6020908152604080832093909416825291909152205490565b60006001600160e01b03198216635a05180f60e01b14806103c057506103c082610954565b92915050565b606060cc80546103d59061186b565b80601f01602080910402602001604051908101604052809291908181526020018280546104019061186b565b801561044e5780601f106104235761010080835404028352916020019161044e565b820191906000526020600020905b81548152906001019060200180831161043157829003601f168201915b5050505050905090565b6000610465338484610989565b50600192915050565b600061047b848484610aad565b6001600160a01b038416600090815260ca60209081526040808320338452909152902054828110156105055760405162461bcd60e51b815260206004820152602860248201527f45524332303a207472616e7366657220616d6f756e74206578636565647320616044820152676c6c6f77616e636560c01b60648201526084015b60405180910390fd5b6105128533858403610989565b506001949350505050565b6105278282610c7d565b600082815260976020526040902061053f908261093f565b505050565b61054e8282610ca3565b600082815260976020526040902061053f9082610d1d565b33600081815260ca602090815260408083206001600160a01b0387168452909152812054909161046591859061059d9086906117da565b610989565b6105cc7f9f2df0fed2c77648de5860a4cc508cd0818c85b8b8a1ab4ceeef8d981c8956a6336106cc565b6106115760405162461bcd60e51b815260206004820152601660248201527529b2b73232b91034b9903737ba10309026b4b73a32b960511b60448201526064016104fc565b61061b8282610d32565b5050565b6106293382610e11565b50565b60006106388333610370565b9050818110156106965760405162461bcd60e51b8152602060048201526024808201527f45524332303a206275726e20616d6f756e74206578636565647320616c6c6f77604482015263616e636560e01b60648201526084016104fc565b6106a38333848403610989565b61053f8383610e11565b60008281526097602052604081206106c59083610f5f565b9392505050565b60009182526065602090815260408084206001600160a01b0393909316845291905290205460ff1690565b606060cd80546103d59061186b565b33600090815260ca602090815260408083206001600160a01b0386168452909152812054828110156107885760405162461bcd60e51b815260206004820152602560248201527f45524332303a2064656372656173656420616c6c6f77616e63652062656c6f77604482015264207a65726f60d81b60648201526084016104fc565b6107953385858403610989565b5060019392505050565b6000610465338484610aad565b60008181526097602052604081206103c090610f6b565b61054e8282610f75565b600054610100900460ff16806107e6575060005460ff16155b6108025760405162461bcd60e51b81526004016104fc9061178c565b600054610100900460ff16158015610824576000805461ffff19166101011790555b61082c610f9b565b610834610f9b565b61083c610f9b565b610844610f9b565b8015610629576000805461ff001916905550565b600054610100900460ff1680610871575060005460ff16155b61088d5760405162461bcd60e51b81526004016104fc9061178c565b600054610100900460ff161580156108af576000805461ffff19166101011790555b6108b7610f9b565b6108c18383611005565b801561053f576000805461ff0019169055505050565b600054610100900460ff16806108f0575060005460ff16155b61090c5760405162461bcd60e51b81526004016104fc9061178c565b600054610100900460ff16158015610834576000805461ffff191661010117905561083c610f9b565b61061b828261109a565b60006106c5836001600160a01b038416611120565b60006001600160e01b03198216637965db0b60e01b14806103c057506301ffc9a760e01b6001600160e01b03198316146103c0565b6001600160a01b0383166109eb5760405162461bcd60e51b8152602060048201526024808201527f45524332303a20617070726f76652066726f6d20746865207a65726f206164646044820152637265737360e01b60648201526084016104fc565b6001600160a01b038216610a4c5760405162461bcd60e51b815260206004820152602260248201527f45524332303a20617070726f766520746f20746865207a65726f206164647265604482015261737360f01b60648201526084016104fc565b6001600160a01b03838116600081815260ca602090815260408083209487168084529482529182902085905590518481527f8c5be1e5ebec7d5bd14f71427d1e84f3dd0314c0f7b2291e5b200ac8c7c3b925910160405180910390a3505050565b6001600160a01b038316610b115760405162461bcd60e51b815260206004820152602560248201527f45524332303a207472616e736665722066726f6d20746865207a65726f206164604482015264647265737360d81b60648201526084016104fc565b6001600160a01b038216610b735760405162461bcd60e51b815260206004820152602360248201527f45524332303a207472616e7366657220746f20746865207a65726f206164647260448201526265737360e81b60648201526084016104fc565b6001600160a01b038316600090815260c9602052604090205481811015610beb5760405162461bcd60e51b815260206004820152602660248201527f45524332303a207472616e7366657220616d6f756e7420657863656564732062604482015265616c616e636560d01b60648201526084016104fc565b6001600160a01b03808516600090815260c96020526040808220858503905591851681529081208054849290610c229084906117da565b92505081905550826001600160a01b0316846001600160a01b03167fddf252ad1be2c89b69c2b068fc378daa952ba7f163c4a11628f55a4df523b3ef84604051610c6e91815260200190565b60405180910390a35b50505050565b600082815260656020526040902060010154610c99813361116f565b61053f838361109a565b6001600160a01b0381163314610d135760405162461bcd60e51b815260206004820152602f60248201527f416363657373436f6e74726f6c3a2063616e206f6e6c792072656e6f756e636560448201526e103937b632b9903337b91039b2b63360891b60648201526084016104fc565b61061b82826111d3565b60006106c5836001600160a01b03841661123a565b6001600160a01b038216610d885760405162461bcd60e51b815260206004820152601f60248201527f45524332303a206d696e7420746f20746865207a65726f20616464726573730060448201526064016104fc565b8060cb6000828254610d9a91906117da565b90915550506001600160a01b038216600090815260c9602052604081208054839290610dc79084906117da565b90915550506040518181526001600160a01b038316906000907fddf252ad1be2c89b69c2b068fc378daa952ba7f163c4a11628f55a4df523b3ef9060200160405180910390a35050565b6001600160a01b038216610e715760405162461bcd60e51b815260206004820152602160248201527f45524332303a206275726e2066726f6d20746865207a65726f206164647265736044820152607360f81b60648201526084016104fc565b6001600160a01b038216600090815260c9602052604090205481811015610ee55760405162461bcd60e51b815260206004820152602260248201527f45524332303a206275726e20616d6f756e7420657863656564732062616c616e604482015261636560f01b60648201526084016104fc565b6001600160a01b038316600090815260c960205260408120838303905560cb8054849290610f14908490611811565b90915550506040518281526000906001600160a01b038516907fddf252ad1be2c89b69c2b068fc378daa952ba7f163c4a11628f55a4df523b3ef9060200160405180910390a3505050565b60006106c5838361132d565b60006103c0825490565b600082815260656020526040902060010154610f91813361116f565b61053f83836111d3565b600054610100900460ff1680610fb4575060005460ff16155b610fd05760405162461bcd60e51b81526004016104fc9061178c565b600054610100900460ff16158015610844576000805461ffff19166101011790558015610629576000805461ff001916905550565b600054610100900460ff168061101e575060005460ff16155b61103a5760405162461bcd60e51b81526004016104fc9061178c565b600054610100900460ff1615801561105c576000805461ffff19166101011790555b825161106f9060cc9060208601906114f3565b5081516110839060cd9060208501906114f3565b50801561053f576000805461ff0019169055505050565b6110a482826106cc565b61061b5760008281526065602090815260408083206001600160a01b03851684529091529020805460ff191660011790556110dc3390565b6001600160a01b0316816001600160a01b0316837f2f8788117e7eff1d82e926ec794901d17c78024a50270940304540a733656f0d60405160405180910390a45050565b6000818152600183016020526040812054611167575081546001818101845560008481526020808220909301849055845484825282860190935260409020919091556103c0565b5060006103c0565b61117982826106cc565b61061b57611191816001600160a01b03166014611357565b61119c836020611357565b6040516020016111ad9291906116e4565b60408051601f198184030181529082905262461bcd60e51b82526104fc91600401611759565b6111dd82826106cc565b1561061b5760008281526065602090815260408083206001600160a01b0385168085529252808320805460ff1916905551339285917ff6391f5c32d9c69d2a47ea670b442974b53935d1edc7fd64eb21e047a839171b9190a45050565b6000818152600183016020526040812054801561132357600061125e600183611811565b855490915060009061127290600190611811565b90508181146112d7576000866000018281548110611292576112926118d2565b90600052602060002001549050808760000184815481106112b5576112b56118d2565b6000918252602080832090910192909255918252600188019052604090208390555b85548690806112e8576112e86118bc565b6001900381819060005260206000200160009055905585600101600086815260200190815260200160002060009055600193505050506103c0565b60009150506103c0565b6000826000018281548110611344576113446118d2565b9060005260206000200154905092915050565b606060006113668360026117f2565b6113719060026117da565b67ffffffffffffffff811115611389576113896118e8565b6040519080825280601f01601f1916602001820160405280156113b3576020820181803683370190505b509050600360fc1b816000815181106113ce576113ce6118d2565b60200101906001600160f81b031916908160001a905350600f60fb1b816001815181106113fd576113fd6118d2565b60200101906001600160f81b031916908160001a90535060006114218460026117f2565b61142c9060016117da565b90505b60018111156114a4576f181899199a1a9b1b9c1cb0b131b232b360811b85600f1660108110611460576114606118d2565b1a60f81b828281518110611476576114766118d2565b60200101906001600160f81b031916908160001a90535060049490941c9361149d81611854565b905061142f565b5083156106c55760405162461bcd60e51b815260206004820181905260248201527f537472696e67733a20686578206c656e67746820696e73756666696369656e7460448201526064016104fc565b8280546114ff9061186b565b90600052602060002090601f0160209004810192826115215760008555611567565b82601f1061153a57805160ff1916838001178555611567565b82800160010185558215611567579182015b8281111561156757825182559160200191906001019061154c565b50611573929150611577565b5090565b5b808211156115735760008155600101611578565b80356001600160a01b03811681146115a357600080fd5b919050565b6000602082840312156115ba57600080fd5b6106c58261158c565b600080604083850312156115d657600080fd5b6115df8361158c565b91506115ed6020840161158c565b90509250929050565b60008060006060848603121561160b57600080fd5b6116148461158c565b92506116226020850161158c565b9150604084013590509250925092565b6000806040838503121561164557600080fd5b61164e8361158c565b946020939093013593505050565b60006020828403121561166e57600080fd5b5035919050565b6000806040838503121561168857600080fd5b823591506115ed6020840161158c565b600080604083850312156116ab57600080fd5b50508035926020909101359150565b6000602082840312156116cc57600080fd5b81356001600160e01b0319811681146106c557600080fd5b7f416363657373436f6e74726f6c3a206163636f756e742000000000000000000081526000835161171c816017850160208801611828565b7001034b99036b4b9b9b4b733903937b6329607d1b601791840191820152835161174d816028840160208801611828565b01602801949350505050565b6020815260008251806020840152611778816040850160208701611828565b601f01601f19169190910160400192915050565b6020808252602e908201527f496e697469616c697a61626c653a20636f6e747261637420697320616c72656160408201526d191e481a5b9a5d1a585b1a5e995960921b606082015260800190565b600082198211156117ed576117ed6118a6565b500190565b600081600019048311821515161561180c5761180c6118a6565b500290565b600082821015611823576118236118a6565b500390565b60005b8381101561184357818101518382015260200161182b565b83811115610c775750506000910152565b600081611863576118636118a6565b506000190190565b600181811c9082168061187f57607f821691505b602082108114156118a057634e487b7160e01b600052602260045260246000fd5b50919050565b634e487b7160e01b600052601160045260246000fd5b634e487b7160e01b600052603160045260246000fd5b634e487b7160e01b600052603260045260246000fd5b634e487b7160e01b600052604160045260246000fdfea26469706673582212207c932ecb7d6fab803c564af853ea45b5be8d2f7cb78862329e03d5371b1ded6864736f6c63430008060033496e697469616c697a61626c653a20636f6e747261637420697320616c7265619f2df0fed2c77648de5860a4cc508cd0818c85b8b8a1ab4ceeef8d981c8956a67164765a3c8bd2513bdfa0c90f1bee9606e920fbf2c9071f310263fbd818684ba264697066735822122076ddb5d31f8f67d12486dd2c441c0cfc2fa7f54400d5c41e818eec502e56470e64736f6c63430008060033",
  "linkReferences": {},
  "deployedLinkReferences": {}
}