{
  "_format": "hh-sol-artifact-1",
  "contractName": "TokenManagerERC721",
  "sourceName": "contracts/schain/TokenManagers/TokenManagerERC721.sol",
  "abi": [
    {
      "anonymous": false,
      "inputs": [
        {
          "indexed": false,
          "internalType": "address",
          "name": "oldValue",
          "type": "address"
        },
        {
          "indexed": false,
          "internalType": "address",
          "name": "newValue",
          "type": "address"
        }
      ],
      "name": "DepositBoxWasChanged",
      "type": "event"
    },
    {
      "anonymous": false,
      "inputs": [
        {
          "indexed": true,
          "internalType": "bytes32",
          "name": "chainHash",
          "type": "bytes32"
        },
        {
          "indexed": true,
          "internalType": "address",
          "name": "erc721OnMainChain",
          "type": "address"
        },
        {
          "indexed": true,
          "internalType": "address",
          "name": "erc721OnSchain",
          "type": "address"
        }
      ],
      "name": "ERC721TokenAdded",
      "type": "event"
    },
    {
      "anonymous": false,
      "inputs": [
        {
          "indexed": true,
          "internalType": "bytes32",
          "name": "chainHash",
          "type": "bytes32"
        },
        {
          "indexed": true,
          "internalType": "address",
          "name": "erc721OnMainChain",
          "type": "address"
        },
        {
          "indexed": true,
          "internalType": "address",
          "name": "erc721OnSchain",
          "type": "address"
        }
      ],
      "name": "ERC721TokenCreated",
      "type": "event"
    },
    {
      "anonymous": false,
      "inputs": [
        {
          "indexed": true,
          "internalType": "bytes32",
          "name": "chainHash",
          "type": "bytes32"
        },
        {
          "indexed": true,
          "internalType": "address",
          "name": "contractOnMainnet",
          "type": "address"
        },
        {
          "indexed": false,
          "internalType": "uint256",
          "name": "tokenId",
          "type": "uint256"
        }
      ],
      "name": "ERC721TokenReady",
      "type": "event"
    },
    {
      "anonymous": false,
      "inputs": [
        {
          "indexed": true,
          "internalType": "bytes32",
          "name": "chainHash",
          "type": "bytes32"
        },
        {
          "indexed": true,
          "internalType": "address",
          "name": "erc721OnMainChain",
          "type": "address"
        },
        {
          "indexed": true,
          "internalType": "address",
          "name": "erc721OnSchain",
          "type": "address"
        },
        {
          "indexed": false,
          "internalType": "uint256",
          "name": "tokenId",
          "type": "uint256"
        }
      ],
      "name": "ERC721TokenReceived",
      "type": "event"
    },
    {
      "anonymous": false,
      "inputs": [
        {
          "indexed": true,
          "internalType": "bytes32",
          "name": "role",
          "type": "bytes32"
        },
        {
          "indexed": true,
          "internalType": "bytes32",
          "name": "previousAdminRole",
          "type": "bytes32"
        },
        {
          "indexed": true,
          "internalType": "bytes32",
          "name": "newAdminRole",
          "type": "bytes32"
        }
      ],
      "name": "RoleAdminChanged",
      "type": "event"
    },
    {
      "anonymous": false,
      "inputs": [
        {
          "indexed": true,
          "internalType": "bytes32",
          "name": "role",
          "type": "bytes32"
        },
        {
          "indexed": true,
          "internalType": "address",
          "name": "account",
          "type": "address"
        },
        {
          "indexed": true,
          "internalType": "address",
          "name": "sender",
          "type": "address"
        }
      ],
      "name": "RoleGranted",
      "type": "event"
    },
    {
      "anonymous": false,
      "inputs": [
        {
          "indexed": true,
          "internalType": "bytes32",
          "name": "role",
          "type": "bytes32"
        },
        {
          "indexed": true,
          "internalType": "address",
          "name": "account",
          "type": "address"
        },
        {
          "indexed": true,
          "internalType": "address",
          "name": "sender",
          "type": "address"
        }
      ],
      "name": "RoleRevoked",
      "type": "event"
    },
    {
      "inputs": [],
      "name": "AUTOMATIC_DEPLOY_ROLE",
      "outputs": [
        {
          "internalType": "bytes32",
          "name": "",
          "type": "bytes32"
        }
      ],
      "stateMutability": "view",
      "type": "function"
    },
    {
      "inputs": [],
      "name": "DEFAULT_ADMIN_ROLE",
      "outputs": [
        {
          "internalType": "bytes32",
          "name": "",
          "type": "bytes32"
        }
      ],
      "stateMutability": "view",
      "type": "function"
    },
    {
      "inputs": [],
      "name": "MAINNET_HASH",
      "outputs": [
        {
          "internalType": "bytes32",
          "name": "",
          "type": "bytes32"
        }
      ],
      "stateMutability": "view",
      "type": "function"
    },
    {
      "inputs": [],
      "name": "MAINNET_NAME",
      "outputs": [
        {
          "internalType": "string",
          "name": "",
          "type": "string"
        }
      ],
      "stateMutability": "view",
      "type": "function"
    },
    {
      "inputs": [],
      "name": "TOKEN_REGISTRAR_ROLE",
      "outputs": [
        {
          "internalType": "bytes32",
          "name": "",
          "type": "bytes32"
        }
      ],
      "stateMutability": "view",
      "type": "function"
    },
    {
      "inputs": [
        {
          "internalType": "string",
          "name": "targetChainName",
          "type": "string"
        },
        {
          "internalType": "address",
          "name": "erc721OnMainChain",
          "type": "address"
        },
        {
          "internalType": "address",
          "name": "erc721OnSchain",
          "type": "address"
        }
      ],
      "name": "addERC721TokenByOwner",
      "outputs": [],
      "stateMutability": "nonpayable",
      "type": "function"
    },
    {
      "inputs": [
        {
          "internalType": "string",
          "name": "schainName",
          "type": "string"
        },
        {
          "internalType": "address",
          "name": "newTokenManager",
          "type": "address"
        }
      ],
      "name": "addTokenManager",
      "outputs": [],
      "stateMutability": "nonpayable",
      "type": "function"
    },
    {
      "inputs": [
        {
          "internalType": "contract ERC721OnChain",
          "name": "",
          "type": "address"
        }
      ],
      "name": "addedClones",
      "outputs": [
        {
          "internalType": "bool",
          "name": "",
          "type": "bool"
        }
      ],
      "stateMutability": "view",
      "type": "function"
    },
    {
      "inputs": [],
      "name": "automaticDeploy",
      "outputs": [
        {
          "internalType": "bool",
          "name": "",
          "type": "bool"
        }
      ],
      "stateMutability": "view",
      "type": "function"
    },
    {
      "inputs": [
        {
          "internalType": "address",
          "name": "newDepositBox",
          "type": "address"
        }
      ],
      "name": "changeDepositBoxAddress",
      "outputs": [],
      "stateMutability": "nonpayable",
      "type": "function"
    },
    {
      "inputs": [
        {
          "internalType": "bytes32",
          "name": "",
          "type": "bytes32"
        },
        {
          "internalType": "address",
          "name": "",
          "type": "address"
        }
      ],
      "name": "clonesErc721",
      "outputs": [
        {
          "internalType": "contract ERC721OnChain",
          "name": "",
          "type": "address"
        }
      ],
      "stateMutability": "view",
      "type": "function"
    },
    {
      "inputs": [],
      "name": "communityLocker",
      "outputs": [
        {
          "internalType": "contract ICommunityLocker",
          "name": "",
          "type": "address"
        }
      ],
      "stateMutability": "view",
      "type": "function"
    },
    {
      "inputs": [],
      "name": "depositBox",
      "outputs": [
        {
          "internalType": "address",
          "name": "",
          "type": "address"
        }
      ],
      "stateMutability": "view",
      "type": "function"
    },
    {
      "inputs": [
        {
          "internalType": "address",
          "name": "",
          "type": "address"
        }
      ],
      "name": "deprecatedClonesErc721",
      "outputs": [
        {
          "internalType": "contract ERC721OnChain",
          "name": "",
          "type": "address"
        }
      ],
      "stateMutability": "view",
      "type": "function"
    },
    {
      "inputs": [],
      "name": "disableAutomaticDeploy",
      "outputs": [],
      "stateMutability": "nonpayable",
      "type": "function"
    },
    {
      "inputs": [],
      "name": "enableAutomaticDeploy",
      "outputs": [],
      "stateMutability": "nonpayable",
      "type": "function"
    },
    {
      "inputs": [
        {
          "internalType": "address",
          "name": "contractOnMainnet",
          "type": "address"
        },
        {
          "internalType": "uint256",
          "name": "tokenId",
          "type": "uint256"
        }
      ],
      "name": "exitToMainERC721",
      "outputs": [],
      "stateMutability": "nonpayable",
      "type": "function"
    },
    {
      "inputs": [
        {
          "internalType": "bytes32",
          "name": "role",
          "type": "bytes32"
        }
      ],
      "name": "getRoleAdmin",
      "outputs": [
        {
          "internalType": "bytes32",
          "name": "",
          "type": "bytes32"
        }
      ],
      "stateMutability": "view",
      "type": "function"
    },
    {
      "inputs": [
        {
          "internalType": "bytes32",
          "name": "role",
          "type": "bytes32"
        },
        {
          "internalType": "uint256",
          "name": "index",
          "type": "uint256"
        }
      ],
      "name": "getRoleMember",
      "outputs": [
        {
          "internalType": "address",
          "name": "",
          "type": "address"
        }
      ],
      "stateMutability": "view",
      "type": "function"
    },
    {
      "inputs": [
        {
          "internalType": "bytes32",
          "name": "role",
          "type": "bytes32"
        }
      ],
      "name": "getRoleMemberCount",
      "outputs": [
        {
          "internalType": "uint256",
          "name": "",
          "type": "uint256"
        }
      ],
      "stateMutability": "view",
      "type": "function"
    },
    {
      "inputs": [
        {
          "internalType": "bytes32",
          "name": "role",
          "type": "bytes32"
        },
        {
          "internalType": "address",
          "name": "account",
          "type": "address"
        }
      ],
      "name": "grantRole",
      "outputs": [],
      "stateMutability": "nonpayable",
      "type": "function"
    },
    {
      "inputs": [
        {
          "internalType": "bytes32",
          "name": "role",
          "type": "bytes32"
        },
        {
          "internalType": "address",
          "name": "account",
          "type": "address"
        }
      ],
      "name": "hasRole",
      "outputs": [
        {
          "internalType": "bool",
          "name": "",
          "type": "bool"
        }
      ],
      "stateMutability": "view",
      "type": "function"
    },
    {
      "inputs": [
        {
          "internalType": "string",
          "name": "schainName",
          "type": "string"
        }
      ],
      "name": "hasTokenManager",
      "outputs": [
        {
          "internalType": "bool",
          "name": "",
          "type": "bool"
        }
      ],
      "stateMutability": "view",
      "type": "function"
    },
    {
      "inputs": [
        {
          "internalType": "string",
          "name": "newChainName",
          "type": "string"
        },
        {
          "internalType": "contract IMessageProxyForSchain",
          "name": "newMessageProxy",
          "type": "address"
        },
        {
          "internalType": "contract ITokenManagerLinker",
          "name": "newIMALinker",
          "type": "address"
        },
        {
          "internalType": "contract ICommunityLocker",
          "name": "newCommunityLocker",
          "type": "address"
        },
        {
          "internalType": "address",
          "name": "newDepositBox",
          "type": "address"
        }
      ],
      "name": "initialize",
      "outputs": [],
      "stateMutability": "nonpayable",
      "type": "function"
    },
    {
      "inputs": [
        {
          "internalType": "string",
          "name": "newSchainName",
          "type": "string"
        },
        {
          "internalType": "contract IMessageProxyForSchain",
          "name": "newMessageProxy",
          "type": "address"
        },
        {
          "internalType": "contract ITokenManagerLinker",
          "name": "newIMALinker",
          "type": "address"
        },
        {
          "internalType": "contract ICommunityLocker",
          "name": "newCommunityLocker",
          "type": "address"
        },
        {
          "internalType": "address",
          "name": "newDepositBox",
          "type": "address"
        }
      ],
      "name": "initializeTokenManager",
      "outputs": [],
      "stateMutability": "nonpayable",
      "type": "function"
    },
    {
      "inputs": [],
      "name": "messageProxy",
      "outputs": [
        {
          "internalType": "contract IMessageProxyForSchain",
          "name": "",
          "type": "address"
        }
      ],
      "stateMutability": "view",
      "type": "function"
    },
    {
      "inputs": [
        {
          "internalType": "bytes32",
          "name": "fromChainHash",
          "type": "bytes32"
        },
        {
          "internalType": "address",
          "name": "sender",
          "type": "address"
        },
        {
          "internalType": "bytes",
          "name": "data",
          "type": "bytes"
        }
      ],
      "name": "postMessage",
      "outputs": [
        {
          "internalType": "address",
          "name": "",
          "type": "address"
        }
      ],
      "stateMutability": "nonpayable",
      "type": "function"
    },
    {
      "inputs": [
        {
          "internalType": "string",
          "name": "schainName",
          "type": "string"
        }
      ],
      "name": "removeTokenManager",
      "outputs": [],
      "stateMutability": "nonpayable",
      "type": "function"
    },
    {
      "inputs": [
        {
          "internalType": "bytes32",
          "name": "role",
          "type": "bytes32"
        },
        {
          "internalType": "address",
          "name": "account",
          "type": "address"
        }
      ],
      "name": "renounceRole",
      "outputs": [],
      "stateMutability": "nonpayable",
      "type": "function"
    },
    {
      "inputs": [
        {
          "internalType": "bytes32",
          "name": "role",
          "type": "bytes32"
        },
        {
          "internalType": "address",
          "name": "account",
          "type": "address"
        }
      ],
      "name": "revokeRole",
      "outputs": [],
      "stateMutability": "nonpayable",
      "type": "function"
    },
    {
      "inputs": [],
      "name": "schainHash",
      "outputs": [
        {
          "internalType": "bytes32",
          "name": "",
          "type": "bytes32"
        }
      ],
      "stateMutability": "view",
      "type": "function"
    },
    {
      "inputs": [
        {
          "internalType": "bytes4",
          "name": "interfaceId",
          "type": "bytes4"
        }
      ],
      "name": "supportsInterface",
      "outputs": [
        {
          "internalType": "bool",
          "name": "",
          "type": "bool"
        }
      ],
      "stateMutability": "view",
      "type": "function"
    },
    {
      "inputs": [],
      "name": "tokenManagerLinker",
      "outputs": [
        {
          "internalType": "contract ITokenManagerLinker",
          "name": "",
          "type": "address"
        }
      ],
      "stateMutability": "view",
      "type": "function"
    },
    {
      "inputs": [
        {
          "internalType": "bytes32",
          "name": "",
          "type": "bytes32"
        }
      ],
      "name": "tokenManagers",
      "outputs": [
        {
          "internalType": "address",
          "name": "",
          "type": "address"
        }
      ],
      "stateMutability": "view",
      "type": "function"
    },
    {
      "inputs": [
        {
          "internalType": "string",
          "name": "targetSchainName",
          "type": "string"
        },
        {
          "internalType": "address",
          "name": "contractOnMainnet",
          "type": "address"
        },
        {
          "internalType": "uint256",
          "name": "tokenId",
          "type": "uint256"
        }
      ],
      "name": "transferToSchainERC721",
      "outputs": [],
      "stateMutability": "nonpayable",
      "type": "function"
    },
    {
      "inputs": [
        {
          "internalType": "address",
          "name": "",
          "type": "address"
        },
        {
          "internalType": "uint256",
          "name": "",
          "type": "uint256"
        }
      ],
      "name": "transferredAmount",
      "outputs": [
        {
          "internalType": "bytes32",
          "name": "",
          "type": "bytes32"
        }
      ],
      "stateMutability": "view",
      "type": "function"
    }
  ],
  "bytecode": "0x608060405234801561001057600080fd5b50616741806100206000396000f3fe60806040523480156200001157600080fd5b5060043610620002495760003560e01c80636d611286116200013d578063b9581c5011620000bb578063cb703bff1162000086578063cb703bff14620005a6578063cc5b715b14620005bd578063d547741f14620005e5578063dec2deb614620005fc578063edcc12b5146200061157600080fd5b8063b9581c501462000537578063c0e312dc1462000541578063ca15c8731462000558578063ca99be02146200056f57600080fd5b80639010d07c11620001085780639010d07c14620004ae57806391d1485414620004c5578063a217fddf14620004dc578063aebaaca914620004e5578063b4a0522b146200050b57600080fd5b80636d61128614620004585780636d6c68e6146200046c5780636e81ae281462000480578063884cee5a146200049757600080fd5b80632f2ff15d11620001cb5780633fa194ce11620001965780633fa194ce14620003c957806350f4428014620003e05780635573b8b61462000416578063680ae2fe146200042a5780636ce681d2146200044157600080fd5b80632f2ff15d146200037a57806336568abe146200039157806339927cf914620003a85780633b690b6b14620003bf57600080fd5b80630f1a8f7411620002185780630f1a8f7414620002da5780631e0594e3146200031f578063248a9ca3146200033657806328c5e182146200035c5780632dc151de146200036657600080fd5b806301ffc9a7146200024e578063029996b8146200027a5780630b6c672314620002865780630b885ac314620002c3575b600080fd5b620002656200025f36600462002fdf565b62000628565b60405190151581526020015b60405180910390f35b6200028462000656565b005b620002b46200029736600462002ebb565b60d260209081526000928352604080842090915290825290205481565b60405190815260200162000271565b62000284620002d43660046200321a565b620006ae565b62000306620002eb36600462002f0e565b60ce602052600090815260409020546001600160a01b031681565b6040516001600160a01b03909116815260200162000271565b620002846200033036600462003139565b620006c4565b620002b46200034736600462002f0e565b60009081526065602052604090206001015490565b620002b4620008f2565b60ca5462000306906001600160a01b031681565b620002846200038b36600462002f28565b6200093d565b62000284620003a236600462002f28565b62000968565b62000265620003b936600462003029565b6200098e565b620002b460cc5481565b620002b4600080516020620066ec83398151915281565b620004076040518060400160405280600781526020016613585a5b9b995d60ca1b81525081565b60405162000271919062003538565b60c95462000306906001600160a01b031681565b620002846200043b366004620030ca565b620009eb565b62000284620004523660046200321a565b62000d14565b60cd5462000306906001600160a01b031681565b60cb5462000306906001600160a01b031681565b620002846200049136600462002ebb565b62000eea565b62000306620004a836600462002f5b565b62000fb0565b62000306620004bf36600462002fbc565b6200112c565b62000265620004d636600462002f28565b6200114d565b620002b4600081565b62000265620004f636600462002e7b565b60d06020526000908152604090205460ff1681565b620003066200051c36600462002e7b565b60cf602052600090815260409020546001600160a01b031681565b6200028462001178565b620002846200055236600462003029565b620011c1565b620002b46200056936600462002f0e565b620012df565b620003066200058036600462002f28565b60d16020908152600092835260408084209091529082529020546001600160a01b031681565b62000284620005b73660046200306e565b620012f8565b620002b47ffda70c2cc66a36c14884ee85424961f51b1d92b4494751699b6d105b3bcbcba881565b62000284620005f636600462002f28565b6200147f565b60cd546200026590600160a01b900460ff1681565b620002846200062236600462002e7b565b6200148b565b60006001600160e01b03198216635a05180f60e01b14806200065057506200065082620015a7565b92915050565b62000671600080516020620066ec833981519152336200114d565b620006995760405162461bcd60e51b8152600401620006909062003576565b60405180910390fd5b60cd805460ff60a01b1916600160a01b179055565b620006bd858585858562000d14565b5050505050565b83838080601f0160208091040260200160405190810160405280939291908181526020018383808284376000920182905250604051339450909250620007109150849060200162003446565b60408051601f1981840301815282825280516020918201208383018352600784526613585a5b9b995d60ca1b8483015291519193506200075292910162003446565b60405160208183030381529060405280519060200120811415620007d25760405162461bcd60e51b815260206004820152603060248201527f546869732066756e6374696f6e206973206e6f7420666f72207472616e73666560448201526f1c9c9a5b99c81d1bc813585a5b9b995d60821b606482015260840162000690565b6001600160a01b0382166200082a5760405162461bcd60e51b815260206004820152601a60248201527f496e636f72726563742072656365697665722061646472657373000000000000604482015260640162000690565b600081815260ce60205260409020546001600160a01b0316620008905760405162461bcd60e51b815260206004820152601f60248201527f496e636f727265637420546f6b656e204d616e61676572206164647265737300604482015260640162000690565b60008787604051602001620008a792919062003436565b60408051601f198184030181529181528151602092830120600081815260ce909352912054909150620008e89082906001600160a01b0316883389620015de565b5050505050505050565b6040518060400160405280600781526020016613585a5b9b995d60ca1b81525060405160200162000924919062003446565b6040516020818303038152906040528051906020012081565b6200094982826200191a565b600082815260976020526040902062000963908262001944565b505050565b6200097482826200195b565b6000828152609760205260409020620009639082620019d9565b6000806001600160a01b031660ce60008585604051602001620009b392919062003436565b60408051808303601f19018152918152815160209283012083529082019290925201600020546001600160a01b031614159392505050565b62000a177ffda70c2cc66a36c14884ee85424961f51b1d92b4494751699b6d105b3bcbcba8336200114d565b62000a655760405162461bcd60e51b815260206004820181905260248201527f544f4b454e5f5245474953545241525f524f4c45206973207265717569726564604482015260640162000690565b60c954604051634ccd5cd560e11b81526001600160a01b039091169063999ab9aa9062000a99908790879060040162003509565b60206040518083038186803b15801562000ab257600080fd5b505afa15801562000ac7573d6000803e3d6000fd5b505050506040513d601f19601f8201168201806040525081019062000aed919062002eea565b62000b345760405162461bcd60e51b815260206004820152601660248201527510da185a5b881a5cc81b9bdd0818dbdb9b9958dd195960521b604482015260640162000690565b6001600160a01b0381163b62000b8d5760405162461bcd60e51b815260206004820152601f60248201527f476976656e2061646472657373206973206e6f74206120636f6e747261637400604482015260640162000690565b6000848460405160200162000ba492919062003436565b60408051601f198184030181529181528151602092830120600081815260d184528281206001600160a01b03888116835294529190912054909250161562000c285760405162461bcd60e51b8152602060048201526016602482015275436f756c64206e6f742072656c696e6b20636c6f6e6560501b604482015260640162000690565b6001600160a01b038216600090815260d0602052604090205460ff161562000c935760405162461bcd60e51b815260206004820152601760248201527f436c6f6e652077617320616c7265616479206164646564000000000000000000604482015260640162000690565b600081815260d1602090815260408083206001600160a01b0387811680865291845282852080546001600160a01b031916918816918217905580855260d0909352818420805460ff1916600117905590519192909184917f11bec40858c3e219ac2d82dd307a6989e3ea72d1c463dfce7376c149d5ccf30c91a45050505050565b600054610100900460ff168062000d2e575060005460ff16155b62000d4d5760405162461bcd60e51b81526004016200069090620035b7565b600054610100900460ff1615801562000d70576000805461ffff19166101011790555b6001600160a01b03821662000dc85760405162461bcd60e51b815260206004820181905260248201527f4465706f736974426f7820616464726573732068617320746f20626520736574604482015260640162000690565b62000dd2620019f0565b62000ddf60003362001a8a565b62000dfa600080516020620066ec8339815191523362001a8a565b62000e267ffda70c2cc66a36c14884ee85424961f51b1d92b4494751699b6d105b3bcbcba83362001a8a565b8560405160200162000e39919062003446565b60408051601f19818403018152828252805160209182012060cc5560c980546001600160a01b038a81166001600160a01b03199283161790925560ca80548a841690831617905560cb805489841690831617905560cd8054928816929091168217905560008452908301527fc968af77923193016f61d74ba6827296db5e1f37ec4fab3ad1ef20e193395e59910160405180910390a1801562000ee2576000805461ff00191690555b505050505050565b60cb546040516311be333d60e11b81523360048201526001600160a01b039091169063237c667a90602401600060405180830381600087803b15801562000f3057600080fd5b505af115801562000f45573d6000803e3d6000fd5b5050505062000fac6040518060400160405280600781526020016613585a5b9b995d60ca1b81525060405160200162000f7f919062003446565b60408051601f19818403018152919052805160209091012060cd546001600160a01b0316843385620015de565b5050565b60c9546000906001600160a01b031633146200100f5760405162461bcd60e51b815260206004820152601c60248201527f53656e646572206973206e6f742061204d65737361676550726f787900000000604482015260640162000690565b848460cc5482141580156200102b57506200102b828262001a96565b620010795760405162461bcd60e51b815260206004820152601b60248201527f526563656976657220636861696e20697320696e636f72726563740000000000604482015260640162000690565b600062001087868662001b21565b90506000600682600c811115620010a257620010a262003801565b1480620010c35750600582600c811115620010c157620010c162003801565b145b15620010de57620010d689888862001b75565b905062001120565b60405162461bcd60e51b815260206004820152601660248201527526b2b9b9b0b3b2aa3cb8329034b9903ab735b737bbb760511b604482015260640162000690565b98975050505050505050565b6000828152609760205260408120620011469083620020ab565b9392505050565b60009182526065602090815260408084206001600160a01b0393909316845291905290205460ff1690565b62001193600080516020620066ec833981519152336200114d565b620011b25760405162461bcd60e51b8152600401620006909062003576565b60cd805460ff60a01b19169055565b60ca546001600160a01b0316331480620011e35750620011e36000336200114d565b620012295760405162461bcd60e51b81526020600482015260156024820152742737ba1030baba3437b934bd32b21031b0b63632b960591b604482015260640162000690565b600082826040516020016200124092919062003436565b60408051601f198184030181529181528151602092830120600081815260ce9093529120549091506001600160a01b0316620012bf5760405162461bcd60e51b815260206004820152601860248201527f546f6b656e204d616e61676572206973206e6f74207365740000000000000000604482015260640162000690565b600090815260ce6020526040902080546001600160a01b03191690555050565b60008181526097602052604081206200065090620020b9565b60ca546001600160a01b03163314806200131a57506200131a6000336200114d565b620013605760405162461bcd60e51b81526020600482015260156024820152742737ba1030baba3437b934bd32b21031b0b63632b960591b604482015260640162000690565b600083836040516020016200137792919062003436565b60408051601f198184030181529181528151602092830120600081815260ce9093529120549091506001600160a01b031615620013f75760405162461bcd60e51b815260206004820152601c60248201527f546f6b656e204d616e6167657220697320616c72656164792073657400000000604482015260640162000690565b6001600160a01b0382166200144f5760405162461bcd60e51b815260206004820152601f60248201527f496e636f727265637420546f6b656e204d616e61676572206164647265737300604482015260640162000690565b600090815260ce6020526040902080546001600160a01b0319166001600160a01b03929092169190911790555050565b620009748282620020c4565b620014986000336200114d565b620014e65760405162461bcd60e51b815260206004820152601e60248201527f44454641554c545f41444d494e5f524f4c452069732072657175697265640000604482015260640162000690565b6001600160a01b0381166200153e5760405162461bcd60e51b815260206004820181905260248201527f4465706f736974426f7820616464726573732068617320746f20626520736574604482015260640162000690565b60cd54604080516001600160a01b03928316815291831660208301527fc968af77923193016f61d74ba6827296db5e1f37ec4fab3ad1ef20e193395e59910160405180910390a160cd80546001600160a01b0319166001600160a01b0392909216919091179055565b60006001600160e01b03198216637965db0b60e01b14806200065057506301ffc9a760e01b6001600160e01b031983161462000650565b600085815260d1602090815260408083206001600160a01b038088168552925282205416806200160f575060019050835b6001600160a01b0381163b620016685760405162461bcd60e51b815260206004820152601860248201527f4e6f20746f6b656e20636c6f6e65206f6e2073636861696e0000000000000000604482015260640162000690565b60405163020604bf60e21b81526004810184905230906001600160a01b0383169063081812fc9060240160206040518083038186803b158015620016ab57600080fd5b505afa158015620016c0573d6000803e3d6000fd5b505050506040513d601f19601f82011682018060405250810190620016e6919062002e9b565b6001600160a01b0316146200173e5760405162461bcd60e51b815260206004820152601860248201527f4e6f7420616c6c6f7765642045524337323120546f6b656e0000000000000000604482015260640162000690565b60006200174d868686620020ee565b90508215620017e15762001764888333876200214f565b905062001773888386620021ff565b6040516323b872dd60e01b8152336004820152306024820152604481018590526001600160a01b038316906323b872dd90606401600060405180830381600087803b158015620017c257600080fd5b505af1158015620017d7573d6000803e3d6000fd5b50505050620018a6565b6040516323b872dd60e01b8152336004820152306024820152604481018590526001600160a01b038316906323b872dd90606401600060405180830381600087803b1580156200183057600080fd5b505af115801562001845573d6000803e3d6000fd5b5050604051630852cd8d60e31b8152600481018790526001600160a01b03851692506342966c689150602401600060405180830381600087803b1580156200188c57600080fd5b505af1158015620018a1573d6000803e3d6000fd5b505050505b60c954604051634a24490160e11b81526001600160a01b0390911690639448920290620018dc908b908b908690600401620034dd565b600060405180830381600087803b158015620018f757600080fd5b505af11580156200190c573d6000803e3d6000fd5b505050505050505050505050565b600082815260656020526040902060010154620019388133620022a7565b62000963838362002316565b600062001146836001600160a01b038416620023a0565b6001600160a01b0381163314620019cd5760405162461bcd60e51b815260206004820152602f60248201527f416363657373436f6e74726f6c3a2063616e206f6e6c792072656e6f756e636560448201526e103937b632b9903337b91039b2b63360891b606482015260840162000690565b62000fac8282620023f2565b600062001146836001600160a01b0384166200245c565b600054610100900460ff168062001a0a575060005460ff16155b62001a295760405162461bcd60e51b81526004016200069090620035b7565b600054610100900460ff1615801562001a4c576000805461ffff19166101011790555b62001a5662002560565b62001a6062002560565b62001a6a62002560565b62001a7462002560565b801562001a87576000805461ff00191690555b50565b620009498282620025d0565b60006040518060400160405280600781526020016613585a5b9b995d60ca1b81525060405160200162001aca919062003446565b60405160208183030381529060405280519060200120831462001b0a57600083815260ce60205260409020546001600160a01b0383811691161462001146565b5060cd546001600160a01b03908116911614919050565b60008062001b328385018562002f0e565b905062001b41602082620037c8565b62001b675762001b5e62001b5884838188620036f8565b62001b21565b91505062000650565b62001b5e838501856200300b565b60008062001b84848462001b21565b90506000808080600585600c81111562001ba25762001ba262003801565b141562001bfd57600062001bb78989620025dc565b60408082015160208084015160609094015160008f815260d183528481206001600160a01b0380881683529352939093205491985092965090945016915062001db69050565b600062001c0b898962002691565b905080600001516040015194508060000151602001519350806000015160600151925060d160008b81526020019081526020016000206000856001600160a01b03166001600160a01b0316815260200190815260200160002060009054906101000a90046001600160a01b0316915060006001600160a01b0316826001600160a01b0316141562001db45760cd54600160a01b900460ff1662001cf15760405162461bcd60e51b815260206004820152601c60248201527f4175746f6d61746963206465706c6f792069732064697361626c656400000000604482015260640162000690565b602080820151805191015160405162001d0a9062002c97565b62001d179291906200354d565b604051809103906000f08015801562001d34573d6000803e3d6000fd5b5060008b815260d1602090815260408083206001600160a01b0389811680865291845282852080546001600160a01b031916918716918217905580855260d0909352818420805460ff191660011790559051939550909290918d917f3db9e29b45c5fe72aaa0bdc4514d68a645660185a44637e9bc6f0b805ea770459190a45b505b600585600c81111562001dcd5762001dcd62003801565b14801562001e2257506040518060400160405280600781526020016613585a5b9b995d60ca1b81525060405160200162001e08919062003446565b604051602081830303815290604052805190602001208914155b801562001e445750600089815260d36020526040902062001e44908462002736565b1562001fea576001600160a01b0383163b62001ea35760405162461bcd60e51b815260206004820152601a60248201527f496e636f7272656374206d61696e20636861696e20746f6b656e000000000000604482015260640162000690565b6040516331a9108f60e11b81526004810183905230906001600160a01b03851690636352211e9060240160206040518083038186803b15801562001ee657600080fd5b505afa15801562001efb573d6000803e3d6000fd5b505050506040513d601f19601f8201168201806040525081019062001f21919062002e9b565b6001600160a01b03161462001f6d5760405162461bcd60e51b8152602060048201526011602482015270125b98dbdc9c9958dd081d1bdad95b9259607a1b604482015260640162000690565b62001f7a89848462002759565b6040516323b872dd60e01b81523060048201526001600160a01b038581166024830152604482018490528416906323b872dd90606401600060405180830381600087803b15801562001fcb57600080fd5b505af115801562001fe0573d6000803e3d6000fd5b505050506200204f565b6040516340c10f1960e01b81526001600160a01b038581166004830152602482018490528216906340c10f1990604401600060405180830381600087803b1580156200203557600080fd5b505af11580156200204a573d6000803e3d6000fd5b505050505b806001600160a01b0316836001600160a01b03168a7f2735a548eee1cda16c2df4c1a546c0376f3b3bb2ceca4966ef9d251fcbdd3c45856040516200209691815260200190565b60405180910390a45091979650505050505050565b600062001146838362002807565b600062000650825490565b600082815260656020526040902060010154620020e28133620022a7565b620009638383620023f2565b6040805160a08101825260056080820190815281526001600160a01b038086166020808401919091529085168284015260608083018590529251620021369183910162003660565b6040516020818303038152906040529150509392505050565b600084815260d360205260408120606091906200216d908662002736565b905080620021a15762002181868662002834565b6200219985858562002193896200294d565b62002a6b565b9150620021b1565b620021ae858585620020ee565b91505b846001600160a01b0316867fd0fe87fb12c7aa2b7f679256044123cb20de43059fb2ddbb4cc6556f217f29dc85604051620021ee91815260200190565b60405180910390a350949350505050565b6001600160a01b038216600090815260d26020908152604080832084845290915290205415620022815760405162461bcd60e51b815260206004820152602660248201527f546f6b656e2077617320616c7265616479207472616e7366657272656420746f6044820152651031b430b4b760d11b606482015260840162000690565b6001600160a01b03909116600090815260d2602090815260408083209383529290522055565b620022b382826200114d565b62000fac57620022ce816001600160a01b0316601462002ade565b620022db83602062002ade565b604051602001620022ee92919062003464565b60408051601f198184030181529082905262461bcd60e51b8252620006909160040162003538565b6200232282826200114d565b62000fac5760008281526065602090815260408083206001600160a01b03851684529091529020805460ff191660011790556200235c3390565b6001600160a01b0316816001600160a01b0316837f2f8788117e7eff1d82e926ec794901d17c78024a50270940304540a733656f0d60405160405180910390a45050565b6000818152600183016020526040812054620023e95750815460018181018455600084815260208082209093018490558454848252828601909352604090209190915562000650565b50600062000650565b620023fe82826200114d565b1562000fac5760008281526065602090815260408083206001600160a01b0385168085529252808320805460ff1916905551339285917ff6391f5c32d9c69d2a47ea670b442974b53935d1edc7fd64eb21e047a839171b9190a45050565b60008181526001830160205260408120548015620025555760006200248360018362003761565b8554909150600090620024999060019062003761565b905081811462002505576000866000018281548110620024bd57620024bd6200382d565b9060005260206000200154905080876000018481548110620024e357620024e36200382d565b6000918252602080832090910192909255918252600188019052604090208390555b855486908062002519576200251962003817565b60019003818190600052602060002001600090559055856001016000868152602001908152602001600020600090556001935050505062000650565b600091505062000650565b600054610100900460ff16806200257a575060005460ff16155b620025995760405162461bcd60e51b81526004016200069090620035b7565b600054610100900460ff1615801562001a74576000805461ffff1916610101179055801562001a87576000805461ff001916905550565b62000fac828262002316565b6040805160a0810182526000608082018181528252602082018190529181018290526060810191909152600562002614848462001b21565b600c81111562002628576200262862003801565b14620026835760405162461bcd60e51b815260206004820152602360248201527f4d6573736167652074797065206973206e6f7420455243373231207472616e736044820152623332b960e91b606482015260840162000690565b620011468284018462003395565b6200269b62002ca5565b6006620026a9848462001b21565b600c811115620026bd57620026bd62003801565b14620027285760405162461bcd60e51b815260206004820152603360248201527f4d6573736167652074797065206973206e6f7420455243373231207472616e73604482015272666572207769746820746f6b656e20696e666f60681b606482015260840162000690565b6200114682840184620032af565b6001600160a01b0381166000908152600183016020526040812054151562001146565b6001600160a01b038216600090815260d2602090815260408083208484529091529020548314620027de5760405162461bcd60e51b815260206004820152602860248201527f546f6b656e2077617320616c7265616479207472616e7366657272656420667260448201526737b69031b430b4b760c11b606482015260840162000690565b6001600160a01b03909116600090815260d2602090815260408083209383529290529081205550565b60008260000182815481106200282157620028216200382d565b9060005260206000200154905092915050565b6001600160a01b0381163b6200288d5760405162461bcd60e51b815260206004820152601f60248201527f476976656e2061646472657373206973206e6f74206120636f6e747261637400604482015260640162000690565b600082815260d360205260409020620028a7908262002736565b15620028f65760405162461bcd60e51b815260206004820152601e60248201527f45524337323120546f6b656e2077617320616c72656164792061646465640000604482015260640162000690565b600082815260d36020526040902062002910908262001944565b506040516000906001600160a01b0383169084907f11bec40858c3e219ac2d82dd307a6989e3ea72d1c463dfce7376c149d5ccf30c908490a45050565b60408051808201909152606080825260208201526040518060400160405280836001600160a01b03166306fdde036040518163ffffffff1660e01b815260040160006040518083038186803b158015620029a657600080fd5b505afa158015620029bb573d6000803e3d6000fd5b505050506040513d6000823e601f3d908101601f19168201604052620029e591908101906200319b565b8152602001836001600160a01b03166395d89b416040518163ffffffff1660e01b815260040160006040518083038186803b15801562002a2457600080fd5b505afa15801562002a39573d6000803e3d6000fd5b505050506040513d6000823e601f3d908101601f1916820160405262002a6391908101906200319b565b905292915050565b6040805160e081018252600660c082019081528183019081526001600160a01b03808816606080850191909152908716608084015260a0830186905290825260208083018590529251909262002ac49183910162003605565b604051602081830303815290604052915050949350505050565b6060600062002aef8360026200373f565b62002afc90600262003724565b6001600160401b0381111562002b165762002b1662003843565b6040519080825280601f01601f19166020018201604052801562002b41576020820181803683370190505b509050600360fc1b8160008151811062002b5f5762002b5f6200382d565b60200101906001600160f81b031916908160001a905350600f60fb1b8160018151811062002b915762002b916200382d565b60200101906001600160f81b031916908160001a905350600062002bb78460026200373f565b62002bc490600162003724565b90505b600181111562002c46576f181899199a1a9b1b9c1cb0b131b232b360811b85600f166010811062002bfc5762002bfc6200382d565b1a60f81b82828151811062002c155762002c156200382d565b60200101906001600160f81b031916908160001a90535060049490941c9362002c3e81620037ae565b905062002bc7565b508315620011465760405162461bcd60e51b815260206004820181905260248201527f537472696e67733a20686578206c656e67746820696e73756666696369656e74604482015260640162000690565b612e7c806200387083390190565b6040805160e081018252600060c08201818152928201928352606082018190526080820181905260a0820152908190815260200162002cf7604051806040016040528060608152602001606081525090565b905290565b60008083601f84011262002d0f57600080fd5b5081356001600160401b0381111562002d2757600080fd5b60208301915083602082850101111562002d4057600080fd5b9250929050565b8035600d811062002d5757600080fd5b919050565b600082601f83011262002d6e57600080fd5b813562002d8562002d7f82620036ce565b6200369b565b81815284602083860101111562002d9b57600080fd5b816020850160208301376000918101602001919091529392505050565b6000818303608081121562002dcc57600080fd5b604051608081016001600160401b03828210818311171562002df25762002df262003843565b81604052829450602084121562002e0857600080fd5b60a083019350818410818511171562002e255762002e2562003843565b508260405262002e358562002d47565b815281526020840135915062002e4b8262003859565b8160208201526040840135915062002e638262003859565b81604082015260608401356060820152505092915050565b60006020828403121562002e8e57600080fd5b8135620011468162003859565b60006020828403121562002eae57600080fd5b8151620011468162003859565b6000806040838503121562002ecf57600080fd5b823562002edc8162003859565b946020939093013593505050565b60006020828403121562002efd57600080fd5b815180151581146200114657600080fd5b60006020828403121562002f2157600080fd5b5035919050565b6000806040838503121562002f3c57600080fd5b82359150602083013562002f508162003859565b809150509250929050565b6000806000806060858703121562002f7257600080fd5b84359350602085013562002f868162003859565b925060408501356001600160401b0381111562002fa257600080fd5b62002fb08782880162002cfc565b95989497509550505050565b6000806040838503121562002fd057600080fd5b50508035926020909101359150565b60006020828403121562002ff257600080fd5b81356001600160e01b0319811681146200114657600080fd5b6000602082840312156200301e57600080fd5b620011468262002d47565b600080602083850312156200303d57600080fd5b82356001600160401b038111156200305457600080fd5b620030628582860162002cfc565b90969095509350505050565b6000806000604084860312156200308457600080fd5b83356001600160401b038111156200309b57600080fd5b620030a98682870162002cfc565b9094509250506020840135620030bf8162003859565b809150509250925092565b60008060008060608587031215620030e157600080fd5b84356001600160401b03811115620030f857600080fd5b620031068782880162002cfc565b90955093505060208501356200311c8162003859565b915060408501356200312e8162003859565b939692955090935050565b600080600080606085870312156200315057600080fd5b84356001600160401b038111156200316757600080fd5b620031758782880162002cfc565b90955093505060208501356200318b8162003859565b9396929550929360400135925050565b600060208284031215620031ae57600080fd5b81516001600160401b03811115620031c557600080fd5b8201601f81018413620031d757600080fd5b8051620031e862002d7f82620036ce565b818152856020838501011115620031fe57600080fd5b620032118260208301602086016200377b565b95945050505050565b600080600080600060a086880312156200323357600080fd5b85356001600160401b038111156200324a57600080fd5b620032588882890162002d5c565b95505060208601356200326b8162003859565b935060408601356200327d8162003859565b925060608601356200328f8162003859565b91506080860135620032a18162003859565b809150509295509295909350565b600060208284031215620032c257600080fd5b81356001600160401b0380821115620032da57600080fd5b9083019060a08286031215620032ef57600080fd5b620032f962003670565b62003305868462002db8565b81526080830135828111156200331a57600080fd5b9290920191604083870312156200333057600080fd5b6200333a62003670565b8335838111156200334a57600080fd5b620033588882870162002d5c565b8252506020840135838111156200336e57600080fd5b6200337c8882870162002d5c565b6020830152508060208301525080935050505092915050565b600060808284031215620033a857600080fd5b62001146838362002db8565b60008151808452620033ce8160208601602086016200377b565b601f01601f19169290920160200192915050565b805151600d81106200340457634e487b7160e01b600052602160045260246000fd5b82526020818101516001600160a01b039081169184019190915260408083015190911690830152606090810151910152565b8183823760009101908152919050565b600082516200345a8184602087016200377b565b9190910192915050565b7f416363657373436f6e74726f6c3a206163636f756e74200000000000000000008152600083516200349e8160178501602088016200377b565b7001034b99036b4b9b9b4b733903937b6329607d1b6017918401918201528351620034d18160288401602088016200377b565b01602801949350505050565b8381526001600160a01b03831660208201526060604082018190526000906200321190830184620033b4565b60208152816020820152818360408301376000818301604090810191909152601f909201601f19160101919050565b602081526000620011466020830184620033b4565b604081526000620035626040830185620033b4565b8281036020840152620032118185620033b4565b60208082526021908201527f4155544f4d415449435f4445504c4f595f524f4c4520697320726571756972656040820152601960fa1b606082015260800190565b6020808252602e908201527f496e697469616c697a61626c653a20636f6e747261637420697320616c72656160408201526d191e481a5b9a5d1a585b1a5e995960921b606082015260800190565b6020815262003619602082018351620033e2565b6000602083015160a0808401528051604060c08501526200363f610100850182620033b4565b90506020820151915060bf198482030160e0850152620032118183620033b4565b60808101620006508284620033e2565b604080519081016001600160401b038111828210171562003695576200369562003843565b60405290565b604051601f8201601f191681016001600160401b0381118282101715620036c657620036c662003843565b604052919050565b60006001600160401b03821115620036ea57620036ea62003843565b50601f01601f191660200190565b600080858511156200370957600080fd5b838611156200371757600080fd5b5050820193919092039150565b600082198211156200373a576200373a620037eb565b500190565b60008160001904831182151516156200375c576200375c620037eb565b500290565b600082821015620037765762003776620037eb565b500390565b60005b83811015620037985781810151838201526020016200377e565b83811115620037a8576000848401525b50505050565b600081620037c057620037c0620037eb565b506000190190565b600082620037e657634e487b7160e01b600052601260045260246000fd5b500690565b634e487b7160e01b600052601160045260246000fd5b634e487b7160e01b600052602160045260246000fd5b634e487b7160e01b600052603160045260246000fd5b634e487b7160e01b600052603260045260246000fd5b634e487b7160e01b600052604160045260246000fd5b6001600160a01b038116811462001a8757600080fdfe60806040523480156200001157600080fd5b5060405162002e7c38038062002e7c833981016040819052620000349162000813565b600054610100900460ff16806200004e575060005460ff16155b620000a65760405162461bcd60e51b815260206004820152602e602482015260008051602062002e3c83398151915260448201526d191e481a5b9a5d1a585b1a5e995960921b60648201526084015b60405180910390fd5b600054610100900460ff16158015620000c9576000805461ffff19166101011790555b620000de6200015c60201b62000b061760201c565b620000f583836200022b60201b62000b911760201c565b6200010a620002f460201b62000c181760201c565b6200012560008051602062002e5c833981519152806200038e565b6200014060008051602062002e5c83398151915233620003d9565b801562000153576000805461ff00191690555b505050620008d0565b600054610100900460ff168062000176575060005460ff16155b620001ca5760405162461bcd60e51b815260206004820152602e602482015260008051602062002e3c83398151915260448201526d191e481a5b9a5d1a585b1a5e995960921b60648201526084016200009d565b600054610100900460ff16158015620001ed576000805461ffff19166101011790555b620001f762000417565b6200020162000417565b6200020b62000417565b6200021562000417565b801562000228576000805461ff00191690555b50565b600054610100900460ff168062000245575060005460ff16155b620002995760405162461bcd60e51b815260206004820152602e602482015260008051602062002e3c83398151915260448201526d191e481a5b9a5d1a585b1a5e995960921b60648201526084016200009d565b600054610100900460ff16158015620002bc576000805461ffff19166101011790555b620002c662000417565b620002d062000417565b620002dc8383620004bc565b8015620002ef576000805461ff00191690555b505050565b600054610100900460ff16806200030e575060005460ff16155b620003625760405162461bcd60e51b815260206004820152602e602482015260008051602062002e3c83398151915260448201526d191e481a5b9a5d1a585b1a5e995960921b60648201526084016200009d565b600054610100900460ff16158015620001f7576000805461ffff19166101011790556200020162000417565b600082815260656020526040808220600101805490849055905190918391839186917fbd79b86ffe0ab8e8776151514217cd7cacd52c909f66475c3af44e129f0b00ff9190a4505050565b620003f082826200059060201b62000c761760201c565b6000828152609760209081526040909120620002ef91839062000c80620005a0821b17901c565b600054610100900460ff168062000431575060005460ff16155b620004855760405162461bcd60e51b815260206004820152602e602482015260008051602062002e3c83398151915260448201526d191e481a5b9a5d1a585b1a5e995960921b60648201526084016200009d565b600054610100900460ff1615801562000215576000805461ffff1916610101179055801562000228576000805461ff001916905550565b600054610100900460ff1680620004d6575060005460ff16155b6200052a5760405162461bcd60e51b815260206004820152602e602482015260008051602062002e3c83398151915260448201526d191e481a5b9a5d1a585b1a5e995960921b60648201526084016200009d565b600054610100900460ff161580156200054d576000805461ffff19166101011790555b8251620005629060c9906020860190620006b6565b508151620005789060ca906020850190620006b6565b508015620002ef576000805461ff0019169055505050565b6200059c8282620005c0565b5050565b6000620005b7836001600160a01b03841662000664565b90505b92915050565b60008281526065602090815260408083206001600160a01b038516845290915290205460ff166200059c5760008281526065602090815260408083206001600160a01b03851684529091529020805460ff19166001179055620006203390565b6001600160a01b0316816001600160a01b0316837f2f8788117e7eff1d82e926ec794901d17c78024a50270940304540a733656f0d60405160405180910390a45050565b6000818152600183016020526040812054620006ad57508154600181810184556000848152602080822090930184905584548482528286019093526040902091909155620005ba565b506000620005ba565b828054620006c4906200087d565b90600052602060002090601f016020900481019282620006e8576000855562000733565b82601f106200070357805160ff191683800117855562000733565b8280016001018555821562000733579182015b828111156200073357825182559160200191906001019062000716565b506200074192915062000745565b5090565b5b8082111562000741576000815560010162000746565b600082601f8301126200076e57600080fd5b81516001600160401b03808211156200078b576200078b620008ba565b604051601f8301601f19908116603f01168101908282118183101715620007b657620007b6620008ba565b81604052838152602092508683858801011115620007d357600080fd5b600091505b83821015620007f75785820183015181830184015290820190620007d8565b83821115620008095760008385830101525b9695505050505050565b600080604083850312156200082757600080fd5b82516001600160401b03808211156200083f57600080fd5b6200084d868387016200075c565b935060208501519150808211156200086457600080fd5b5062000873858286016200075c565b9150509250929050565b600181811c908216806200089257607f821691505b60208210811415620008b457634e487b7160e01b600052602260045260246000fd5b50919050565b634e487b7160e01b600052604160045260246000fd5b61255c80620008e06000396000f3fe608060405234801561001057600080fd5b50600436106101735760003560e01c80636352211e116100de578063a22cb46511610097578063ca15c87311610071578063ca15c87314610340578063d539139314610353578063d547741f1461037a578063e985e9c51461038d57600080fd5b8063a22cb46514610307578063b88d4fde1461031a578063c87b56dd1461032d57600080fd5b80636352211e146102ab57806370a08231146102be5780639010d07c146102d157806391d14854146102e457806395d89b41146102f7578063a217fddf146102ff57600080fd5b8063248a9ca311610130578063248a9ca31461021b5780632f2ff15d1461024c57806336568abe1461025f57806340c10f191461027257806342842e0e1461028557806342966c681461029857600080fd5b806301ffc9a71461017857806306fdde03146101a0578063081812fc146101b5578063095ea7b3146101e0578063162094c4146101f557806323b872dd14610208575b600080fd5b61018b6101863660046120cc565b6103c9565b60405190151581526020015b60405180910390f35b6101a86103da565b604051610197919061228f565b6101c86101c336600461206e565b61046c565b6040516001600160a01b039091168152602001610197565b6101f36101ee366004612044565b6104f9565b005b61018b610203366004612106565b61060f565b6101f3610216366004611ef0565b6106fe565b61023e61022936600461206e565b60009081526065602052604090206001015490565b604051908152602001610197565b6101f361025a366004612087565b610730565b6101f361026d366004612087565b610752565b6101f3610280366004612044565b610774565b6101f3610293366004611ef0565b6107f1565b6101f36102a636600461206e565b61080c565b6101c86102b936600461206e565b610886565b61023e6102cc366004611ea2565b6108fd565b6101c86102df3660046120aa565b610984565b61018b6102f2366004612087565b6109a3565b6101a86109ce565b61023e600081565b6101f3610315366004612008565b6109dd565b6101f3610328366004611f2c565b610aa2565b6101a861033b36600461206e565b610ada565b61023e61034e36600461206e565b610ae5565b61023e7f9f2df0fed2c77648de5860a4cc508cd0818c85b8b8a1ab4ceeef8d981c8956a681565b6101f3610388366004612087565b610afc565b61018b61039b366004611ebd565b6001600160a01b03918216600090815260ce6020908152604080832093909416825291909152205460ff1690565b60006103d482610c95565b92915050565b606060c980546103e990612438565b80601f016020809104026020016040519081016040528092919081815260200182805461041590612438565b80156104625780601f1061043757610100808354040283529160200191610462565b820191906000526020600020905b81548152906001019060200180831161044557829003601f168201915b5050505050905090565b600061047782610cd5565b6104dd5760405162461bcd60e51b815260206004820152602c60248201527f4552433732313a20617070726f76656420717565727920666f72206e6f6e657860448201526b34b9ba32b73a103a37b5b2b760a11b60648201526084015b60405180910390fd5b50600090815260cd60205260409020546001600160a01b031690565b600061050482610886565b9050806001600160a01b0316836001600160a01b031614156105725760405162461bcd60e51b815260206004820152602160248201527f4552433732313a20617070726f76616c20746f2063757272656e74206f776e656044820152603960f91b60648201526084016104d4565b336001600160a01b038216148061058e575061058e813361039b565b6106005760405162461bcd60e51b815260206004820152603860248201527f4552433732313a20617070726f76652063616c6c6572206973206e6f74206f7760448201527f6e6572206e6f7220617070726f76656420666f7220616c6c000000000000000060648201526084016104d4565b61060a8383610cf2565b505050565b600061061a84610cd5565b61065e5760405162461bcd60e51b8152602060048201526015602482015274546f6b656e20646f6573206e6f742065786973747360581b60448201526064016104d4565b6106683385610d60565b6106b45760405162461bcd60e51b815260206004820152601c60248201527f53656e6465722063616e206e6f742073657420746f6b656e205552490000000060448201526064016104d4565b6106f48484848080601f016020809104026020016040519081016040528093929190818152602001838380828437600092019190915250610e4a92505050565b5060019392505050565b610709335b82610d60565b6107255760405162461bcd60e51b81526004016104d490612342565b61060a838383610ed6565b61073a8282611076565b600082815260976020526040902061060a9082610c80565b61075c828261109c565b600082815260976020526040902061060a9082611116565b61079e7f9f2df0fed2c77648de5860a4cc508cd0818c85b8b8a1ab4ceeef8d981c8956a6336109a3565b6107e35760405162461bcd60e51b815260206004820152601660248201527529b2b73232b91034b9903737ba10309026b4b73a32b960511b60448201526064016104d4565b6107ed828261112b565b5050565b61060a83838360405180602001604052806000815250610aa2565b61081533610703565b61087a5760405162461bcd60e51b815260206004820152603060248201527f4552433732314275726e61626c653a2063616c6c6572206973206e6f74206f7760448201526f1b995c881b9bdc88185c1c1c9bdd995960821b60648201526084016104d4565b6108838161125e565b50565b600081815260cb60205260408120546001600160a01b0316806103d45760405162461bcd60e51b815260206004820152602960248201527f4552433732313a206f776e657220717565727920666f72206e6f6e657869737460448201526832b73a103a37b5b2b760b91b60648201526084016104d4565b60006001600160a01b0382166109685760405162461bcd60e51b815260206004820152602a60248201527f4552433732313a2062616c616e636520717565727920666f7220746865207a65604482015269726f206164647265737360b01b60648201526084016104d4565b506001600160a01b0316600090815260cc602052604090205490565b600082815260976020526040812061099c9083611267565b9392505050565b60009182526065602090815260408084206001600160a01b0393909316845291905290205460ff1690565b606060ca80546103e990612438565b6001600160a01b038216331415610a365760405162461bcd60e51b815260206004820152601960248201527f4552433732313a20617070726f766520746f2063616c6c65720000000000000060448201526064016104d4565b33600081815260ce602090815260408083206001600160a01b03871680855290835292819020805460ff191686151590811790915590519081529192917f17307eab39ab6107e8899845ad3d59bd9653f200f220920489ca2b5937696c31910160405180910390a35050565b610aac3383610d60565b610ac85760405162461bcd60e51b81526004016104d490612342565b610ad484848484611273565b50505050565b60606103d4826112a6565b60008181526097602052604081206103d490611416565b61075c8282611420565b600054610100900460ff1680610b1f575060005460ff16155b610b3b5760405162461bcd60e51b81526004016104d4906122f4565b600054610100900460ff16158015610b5d576000805461ffff19166101011790555b610b65611446565b610b6d611446565b610b75611446565b610b7d611446565b8015610883576000805461ff001916905550565b600054610100900460ff1680610baa575060005460ff16155b610bc65760405162461bcd60e51b81526004016104d4906122f4565b600054610100900460ff16158015610be8576000805461ffff19166101011790555b610bf0611446565b610bf8611446565b610c0283836114b0565b801561060a576000805461ff0019169055505050565b600054610100900460ff1680610c31575060005460ff16155b610c4d5760405162461bcd60e51b81526004016104d4906122f4565b600054610100900460ff16158015610b65576000805461ffff1916610101179055610b6d611446565b6107ed8282611545565b600061099c836001600160a01b0384166115cb565b60006001600160e01b031982166380ac58cd60e01b1480610cc657506001600160e01b03198216635b5e139f60e01b145b806103d457506103d48261161a565b600090815260cb60205260409020546001600160a01b0316151590565b600081815260cd6020526040902080546001600160a01b0319166001600160a01b0384169081179091558190610d2782610886565b6001600160a01b03167f8c5be1e5ebec7d5bd14f71427d1e84f3dd0314c0f7b2291e5b200ac8c7c3b92560405160405180910390a45050565b6000610d6b82610cd5565b610dcc5760405162461bcd60e51b815260206004820152602c60248201527f4552433732313a206f70657261746f7220717565727920666f72206e6f6e657860448201526b34b9ba32b73a103a37b5b2b760a11b60648201526084016104d4565b6000610dd783610886565b9050806001600160a01b0316846001600160a01b03161480610e125750836001600160a01b0316610e078461046c565b6001600160a01b0316145b80610e4257506001600160a01b03808216600090815260ce602090815260408083209388168352929052205460ff165b949350505050565b610e5382610cd5565b610eb65760405162461bcd60e51b815260206004820152602e60248201527f45524337323155524953746f726167653a2055524920736574206f66206e6f6e60448201526d32bc34b9ba32b73a103a37b5b2b760911b60648201526084016104d4565b600082815261012d60209081526040909120825161060a92840190611db7565b826001600160a01b0316610ee982610886565b6001600160a01b031614610f515760405162461bcd60e51b815260206004820152602960248201527f4552433732313a207472616e73666572206f6620746f6b656e2074686174206960448201526839903737ba1037bbb760b91b60648201526084016104d4565b6001600160a01b038216610fb35760405162461bcd60e51b8152602060048201526024808201527f4552433732313a207472616e7366657220746f20746865207a65726f206164646044820152637265737360e01b60648201526084016104d4565b610fbe600082610cf2565b6001600160a01b038316600090815260cc60205260408120805460019290610fe79084906123de565b90915550506001600160a01b038216600090815260cc60205260408120805460019290611015908490612393565b9091555050600081815260cb602052604080822080546001600160a01b0319166001600160a01b0386811691821790925591518493918716917fddf252ad1be2c89b69c2b068fc378daa952ba7f163c4a11628f55a4df523b3ef91a4505050565b600082815260656020526040902060010154611092813361163f565b61060a8383611545565b6001600160a01b038116331461110c5760405162461bcd60e51b815260206004820152602f60248201527f416363657373436f6e74726f6c3a2063616e206f6e6c792072656e6f756e636560448201526e103937b632b9903337b91039b2b63360891b60648201526084016104d4565b6107ed82826116a3565b600061099c836001600160a01b03841661170a565b6001600160a01b0382166111815760405162461bcd60e51b815260206004820181905260248201527f4552433732313a206d696e7420746f20746865207a65726f206164647265737360448201526064016104d4565b61118a81610cd5565b156111d75760405162461bcd60e51b815260206004820152601c60248201527f4552433732313a20746f6b656e20616c7265616479206d696e7465640000000060448201526064016104d4565b6001600160a01b038216600090815260cc60205260408120805460019290611200908490612393565b9091555050600081815260cb602052604080822080546001600160a01b0319166001600160a01b03861690811790915590518392907fddf252ad1be2c89b69c2b068fc378daa952ba7f163c4a11628f55a4df523b3ef908290a45050565b610883816117fd565b600061099c838361183f565b61127e848484610ed6565b61128a84848484611869565b610ad45760405162461bcd60e51b81526004016104d4906122a2565b60606112b182610cd5565b6113175760405162461bcd60e51b815260206004820152603160248201527f45524337323155524953746f726167653a2055524920717565727920666f72206044820152703737b732bc34b9ba32b73a103a37b5b2b760791b60648201526084016104d4565b600082815261012d60205260408120805461133190612438565b80601f016020809104026020016040519081016040528092919081815260200182805461135d90612438565b80156113aa5780601f1061137f576101008083540402835291602001916113aa565b820191906000526020600020905b81548152906001019060200180831161138d57829003601f168201915b5050505050905060006113c860408051602081019091526000815290565b90508051600014156113db575092915050565b81511561140d5780826040516020016113f59291906121ae565b60405160208183030381529060405292505050919050565b610e4284611976565b60006103d4825490565b60008281526065602052604090206001015461143c813361163f565b61060a83836116a3565b600054610100900460ff168061145f575060005460ff16155b61147b5760405162461bcd60e51b81526004016104d4906122f4565b600054610100900460ff16158015610b7d576000805461ffff19166101011790558015610883576000805461ff001916905550565b600054610100900460ff16806114c9575060005460ff16155b6114e55760405162461bcd60e51b81526004016104d4906122f4565b600054610100900460ff16158015611507576000805461ffff19166101011790555b825161151a9060c9906020860190611db7565b50815161152e9060ca906020850190611db7565b50801561060a576000805461ff0019169055505050565b61154f82826109a3565b6107ed5760008281526065602090815260408083206001600160a01b03851684529091529020805460ff191660011790556115873390565b6001600160a01b0316816001600160a01b0316837f2f8788117e7eff1d82e926ec794901d17c78024a50270940304540a733656f0d60405160405180910390a45050565b6000818152600183016020526040812054611612575081546001818101845560008481526020808220909301849055845484825282860190935260409020919091556103d4565b5060006103d4565b60006001600160e01b03198216635a05180f60e01b14806103d457506103d482611a4d565b61164982826109a3565b6107ed57611661816001600160a01b03166014611a82565b61166c836020611a82565b60405160200161167d9291906121dd565b60408051601f198184030181529082905262461bcd60e51b82526104d49160040161228f565b6116ad82826109a3565b156107ed5760008281526065602090815260408083206001600160a01b0385168085529252808320805460ff1916905551339285917ff6391f5c32d9c69d2a47ea670b442974b53935d1edc7fd64eb21e047a839171b9190a45050565b600081815260018301602052604081205480156117f357600061172e6001836123de565b8554909150600090611742906001906123de565b90508181146117a7576000866000018281548110611762576117626124e4565b9060005260206000200154905080876000018481548110611785576117856124e4565b6000918252602080832090910192909255918252600188019052604090208390555b85548690806117b8576117b86124ce565b6001900381819060005260206000200160009055905585600101600086815260200190815260200160002060009055600193505050506103d4565b60009150506103d4565b61180681611c1e565b600081815261012d60205260409020805461182090612438565b15905061088357600081815261012d6020526040812061088391611e3b565b6000826000018281548110611856576118566124e4565b9060005260206000200154905092915050565b60006001600160a01b0384163b1561196b57604051630a85bd0160e11b81526001600160a01b0385169063150b7a02906118ad903390899088908890600401612252565b602060405180830381600087803b1580156118c757600080fd5b505af19250505080156118f7575060408051601f3d908101601f191682019092526118f4918101906120e9565b60015b611951573d808015611925576040519150601f19603f3d011682016040523d82523d6000602084013e61192a565b606091505b5080516119495760405162461bcd60e51b81526004016104d4906122a2565b805181602001fd5b6001600160e01b031916630a85bd0160e11b149050610e42565b506001949350505050565b606061198182610cd5565b6119e55760405162461bcd60e51b815260206004820152602f60248201527f4552433732314d657461646174613a2055524920717565727920666f72206e6f60448201526e3732bc34b9ba32b73a103a37b5b2b760891b60648201526084016104d4565b60006119fc60408051602081019091526000815290565b90506000815111611a1c576040518060200160405280600081525061099c565b80611a2684611cb9565b604051602001611a379291906121ae565b6040516020818303038152906040529392505050565b60006001600160e01b03198216637965db0b60e01b14806103d457506301ffc9a760e01b6001600160e01b03198316146103d4565b60606000611a918360026123bf565b611a9c906002612393565b67ffffffffffffffff811115611ab457611ab46124fa565b6040519080825280601f01601f191660200182016040528015611ade576020820181803683370190505b509050600360fc1b81600081518110611af957611af96124e4565b60200101906001600160f81b031916908160001a905350600f60fb1b81600181518110611b2857611b286124e4565b60200101906001600160f81b031916908160001a9053506000611b4c8460026123bf565b611b57906001612393565b90505b6001811115611bcf576f181899199a1a9b1b9c1cb0b131b232b360811b85600f1660108110611b8b57611b8b6124e4565b1a60f81b828281518110611ba157611ba16124e4565b60200101906001600160f81b031916908160001a90535060049490941c93611bc881612421565b9050611b5a565b50831561099c5760405162461bcd60e51b815260206004820181905260248201527f537472696e67733a20686578206c656e67746820696e73756666696369656e7460448201526064016104d4565b6000611c2982610886565b9050611c36600083610cf2565b6001600160a01b038116600090815260cc60205260408120805460019290611c5f9084906123de565b9091555050600082815260cb602052604080822080546001600160a01b0319169055518391906001600160a01b038416907fddf252ad1be2c89b69c2b068fc378daa952ba7f163c4a11628f55a4df523b3ef908390a45050565b606081611cdd5750506040805180820190915260018152600360fc1b602082015290565b8160005b8115611d075780611cf181612473565b9150611d009050600a836123ab565b9150611ce1565b60008167ffffffffffffffff811115611d2257611d226124fa565b6040519080825280601f01601f191660200182016040528015611d4c576020820181803683370190505b5090505b8415610e4257611d616001836123de565b9150611d6e600a8661248e565b611d79906030612393565b60f81b818381518110611d8e57611d8e6124e4565b60200101906001600160f81b031916908160001a905350611db0600a866123ab565b9450611d50565b828054611dc390612438565b90600052602060002090601f016020900481019282611de55760008555611e2b565b82601f10611dfe57805160ff1916838001178555611e2b565b82800160010185558215611e2b579182015b82811115611e2b578251825591602001919060010190611e10565b50611e37929150611e71565b5090565b508054611e4790612438565b6000825580601f10611e57575050565b601f01602090049060005260206000209081019061088391905b5b80821115611e375760008155600101611e72565b80356001600160a01b0381168114611e9d57600080fd5b919050565b600060208284031215611eb457600080fd5b61099c82611e86565b60008060408385031215611ed057600080fd5b611ed983611e86565b9150611ee760208401611e86565b90509250929050565b600080600060608486031215611f0557600080fd5b611f0e84611e86565b9250611f1c60208501611e86565b9150604084013590509250925092565b60008060008060808587031215611f4257600080fd5b611f4b85611e86565b9350611f5960208601611e86565b925060408501359150606085013567ffffffffffffffff80821115611f7d57600080fd5b818701915087601f830112611f9157600080fd5b813581811115611fa357611fa36124fa565b604051601f8201601f19908116603f01168101908382118183101715611fcb57611fcb6124fa565b816040528281528a6020848701011115611fe457600080fd5b82602086016020830137600060208483010152809550505050505092959194509250565b6000806040838503121561201b57600080fd5b61202483611e86565b91506020830135801515811461203957600080fd5b809150509250929050565b6000806040838503121561205757600080fd5b61206083611e86565b946020939093013593505050565b60006020828403121561208057600080fd5b5035919050565b6000806040838503121561209a57600080fd5b82359150611ee760208401611e86565b600080604083850312156120bd57600080fd5b50508035926020909101359150565b6000602082840312156120de57600080fd5b813561099c81612510565b6000602082840312156120fb57600080fd5b815161099c81612510565b60008060006040848603121561211b57600080fd5b83359250602084013567ffffffffffffffff8082111561213a57600080fd5b818601915086601f83011261214e57600080fd5b81358181111561215d57600080fd5b87602082850101111561216f57600080fd5b6020830194508093505050509250925092565b6000815180845261219a8160208601602086016123f5565b601f01601f19169290920160200192915050565b600083516121c08184602088016123f5565b8351908301906121d48183602088016123f5565b01949350505050565b7f416363657373436f6e74726f6c3a206163636f756e74200000000000000000008152600083516122158160178501602088016123f5565b7001034b99036b4b9b9b4b733903937b6329607d1b60179184019182015283516122468160288401602088016123f5565b01602801949350505050565b6001600160a01b038581168252841660208201526040810183905260806060820181905260009061228590830184612182565b9695505050505050565b60208152600061099c6020830184612182565b60208082526032908201527f4552433732313a207472616e7366657220746f206e6f6e20455243373231526560408201527131b2b4bb32b91034b6b83632b6b2b73a32b960711b606082015260800190565b6020808252602e908201527f496e697469616c697a61626c653a20636f6e747261637420697320616c72656160408201526d191e481a5b9a5d1a585b1a5e995960921b606082015260800190565b60208082526031908201527f4552433732313a207472616e736665722063616c6c6572206973206e6f74206f6040820152701ddb995c881b9bdc88185c1c1c9bdd9959607a1b606082015260800190565b600082198211156123a6576123a66124a2565b500190565b6000826123ba576123ba6124b8565b500490565b60008160001904831182151516156123d9576123d96124a2565b500290565b6000828210156123f0576123f06124a2565b500390565b60005b838110156124105781810151838201526020016123f8565b83811115610ad45750506000910152565b600081612430576124306124a2565b506000190190565b600181811c9082168061244c57607f821691505b6020821081141561246d57634e487b7160e01b600052602260045260246000fd5b50919050565b6000600019821415612487576124876124a2565b5060010190565b60008261249d5761249d6124b8565b500690565b634e487b7160e01b600052601160045260246000fd5b634e487b7160e01b600052601260045260246000fd5b634e487b7160e01b600052603160045260246000fd5b634e487b7160e01b600052603260045260246000fd5b634e487b7160e01b600052604160045260246000fd5b6001600160e01b03198116811461088357600080fdfea2646970667358221220913d06b15af06cefe70f8b2b7a29d10d47eac26dcc8865d46b896e7c2b69711f64736f6c63430008060033496e697469616c697a61626c653a20636f6e747261637420697320616c7265619f2df0fed2c77648de5860a4cc508cd0818c85b8b8a1ab4ceeef8d981c8956a67164765a3c8bd2513bdfa0c90f1bee9606e920fbf2c9071f310263fbd818684ba2646970667358221220519377c4c996d76740c0f7c2d3ff277160d1a87d57eee22d77b697041c11dbb564736f6c63430008060033",
  "linkReferences": {},
  "deployedLinkReferences": {}
}