{
  "_format": "hh-sol-artifact-1",
  "contractName": "ERC20TemplateEnterprise",
  "sourceName": "contracts/templates/ERC20TemplateEnterprise.sol",
  "abi": [
    {
      "anonymous": false,
      "inputs": [
        {
          "indexed": true,
          "internalType": "address",
          "name": "user",
          "type": "address"
        },
        {
          "indexed": true,
          "internalType": "address",
          "name": "signer",
          "type": "address"
        },
        {
          "indexed": false,
          "internalType": "uint256",
          "name": "timestamp",
          "type": "uint256"
        },
        {
          "indexed": false,
          "internalType": "uint256",
          "name": "blockNumber",
          "type": "uint256"
        }
      ],
      "name": "AddedMinter",
      "type": "event"
    },
    {
      "anonymous": false,
      "inputs": [
        {
          "indexed": true,
          "internalType": "address",
          "name": "user",
          "type": "address"
        },
        {
          "indexed": true,
          "internalType": "address",
          "name": "signer",
          "type": "address"
        },
        {
          "indexed": false,
          "internalType": "uint256",
          "name": "timestamp",
          "type": "uint256"
        },
        {
          "indexed": false,
          "internalType": "uint256",
          "name": "blockNumber",
          "type": "uint256"
        }
      ],
      "name": "AddedPaymentManager",
      "type": "event"
    },
    {
      "anonymous": false,
      "inputs": [
        {
          "indexed": true,
          "internalType": "address",
          "name": "owner",
          "type": "address"
        },
        {
          "indexed": true,
          "internalType": "address",
          "name": "spender",
          "type": "address"
        },
        {
          "indexed": false,
          "internalType": "uint256",
          "name": "value",
          "type": "uint256"
        }
      ],
      "name": "Approval",
      "type": "event"
    },
    {
      "anonymous": false,
      "inputs": [
        {
          "indexed": true,
          "internalType": "address",
          "name": "signer",
          "type": "address"
        },
        {
          "indexed": false,
          "internalType": "uint256",
          "name": "timestamp",
          "type": "uint256"
        },
        {
          "indexed": false,
          "internalType": "uint256",
          "name": "blockNumber",
          "type": "uint256"
        }
      ],
      "name": "CleanedPermissions",
      "type": "event"
    },
    {
      "anonymous": false,
      "inputs": [
        {
          "indexed": true,
          "internalType": "address",
          "name": "consumeMarketFeeAddress",
          "type": "address"
        },
        {
          "indexed": true,
          "internalType": "address",
          "name": "consumeMarketFeeToken",
          "type": "address"
        },
        {
          "indexed": false,
          "internalType": "uint256",
          "name": "consumeMarketFeeAmount",
          "type": "uint256"
        }
      ],
      "name": "ConsumeMarketFee",
      "type": "event"
    },
    {
      "anonymous": false,
      "inputs": [
        {
          "indexed": false,
          "internalType": "address",
          "name": "currentMinter",
          "type": "address"
        },
        {
          "indexed": false,
          "internalType": "address",
          "name": "newMinter",
          "type": "address"
        }
      ],
      "name": "MinterApproved",
      "type": "event"
    },
    {
      "anonymous": false,
      "inputs": [
        {
          "indexed": false,
          "internalType": "address",
          "name": "currentMinter",
          "type": "address"
        },
        {
          "indexed": false,
          "internalType": "address",
          "name": "newMinter",
          "type": "address"
        }
      ],
      "name": "MinterProposed",
      "type": "event"
    },
    {
      "anonymous": false,
      "inputs": [
        {
          "indexed": false,
          "internalType": "address",
          "name": "dispenserContract",
          "type": "address"
        }
      ],
      "name": "NewDispenser",
      "type": "event"
    },
    {
      "anonymous": false,
      "inputs": [
        {
          "indexed": false,
          "internalType": "bytes32",
          "name": "exchangeId",
          "type": "bytes32"
        },
        {
          "indexed": true,
          "internalType": "address",
          "name": "owner",
          "type": "address"
        },
        {
          "indexed": false,
          "internalType": "address",
          "name": "exchangeContract",
          "type": "address"
        },
        {
          "indexed": true,
          "internalType": "address",
          "name": "baseToken",
          "type": "address"
        }
      ],
      "name": "NewFixedRate",
      "type": "event"
    },
    {
      "anonymous": false,
      "inputs": [
        {
          "indexed": true,
          "internalType": "address",
          "name": "caller",
          "type": "address"
        },
        {
          "indexed": true,
          "internalType": "address",
          "name": "_newPaymentCollector",
          "type": "address"
        },
        {
          "indexed": false,
          "internalType": "uint256",
          "name": "timestamp",
          "type": "uint256"
        },
        {
          "indexed": false,
          "internalType": "uint256",
          "name": "blockNumber",
          "type": "uint256"
        }
      ],
      "name": "NewPaymentCollector",
      "type": "event"
    },
    {
      "anonymous": false,
      "inputs": [
        {
          "indexed": true,
          "internalType": "address",
          "name": "providerAddress",
          "type": "address"
        },
        {
          "indexed": true,
          "internalType": "address",
          "name": "consumerAddress",
          "type": "address"
        },
        {
          "indexed": false,
          "internalType": "bytes32",
          "name": "orderTxId",
          "type": "bytes32"
        },
        {
          "indexed": false,
          "internalType": "bytes",
          "name": "providerData",
          "type": "bytes"
        },
        {
          "indexed": false,
          "internalType": "bytes",
          "name": "providerSignature",
          "type": "bytes"
        },
        {
          "indexed": false,
          "internalType": "bytes",
          "name": "consumerData",
          "type": "bytes"
        },
        {
          "indexed": false,
          "internalType": "bytes",
          "name": "consumerSignature",
          "type": "bytes"
        },
        {
          "indexed": false,
          "internalType": "uint256",
          "name": "timestamp",
          "type": "uint256"
        },
        {
          "indexed": false,
          "internalType": "uint256",
          "name": "blockNumber",
          "type": "uint256"
        }
      ],
      "name": "OrderExecuted",
      "type": "event"
    },
    {
      "anonymous": false,
      "inputs": [
        {
          "indexed": false,
          "internalType": "bytes32",
          "name": "orderTxId",
          "type": "bytes32"
        },
        {
          "indexed": false,
          "internalType": "address",
          "name": "caller",
          "type": "address"
        },
        {
          "indexed": false,
          "internalType": "uint256",
          "name": "timestamp",
          "type": "uint256"
        },
        {
          "indexed": false,
          "internalType": "uint256",
          "name": "number",
          "type": "uint256"
        }
      ],
      "name": "OrderReused",
      "type": "event"
    },
    {
      "anonymous": false,
      "inputs": [
        {
          "indexed": true,
          "internalType": "address",
          "name": "consumer",
          "type": "address"
        },
        {
          "indexed": false,
          "internalType": "address",
          "name": "payer",
          "type": "address"
        },
        {
          "indexed": false,
          "internalType": "uint256",
          "name": "amount",
          "type": "uint256"
        },
        {
          "indexed": false,
          "internalType": "uint256",
          "name": "serviceIndex",
          "type": "uint256"
        },
        {
          "indexed": false,
          "internalType": "uint256",
          "name": "timestamp",
          "type": "uint256"
        },
        {
          "indexed": true,
          "internalType": "address",
          "name": "publishMarketAddress",
          "type": "address"
        },
        {
          "indexed": false,
          "internalType": "uint256",
          "name": "blockNumber",
          "type": "uint256"
        }
      ],
      "name": "OrderStarted",
      "type": "event"
    },
    {
      "anonymous": false,
      "inputs": [
        {
          "indexed": true,
          "internalType": "address",
          "name": "providerFeeAddress",
          "type": "address"
        },
        {
          "indexed": true,
          "internalType": "address",
          "name": "providerFeeToken",
          "type": "address"
        },
        {
          "indexed": false,
          "internalType": "uint256",
          "name": "providerFeeAmount",
          "type": "uint256"
        },
        {
          "indexed": false,
          "internalType": "bytes",
          "name": "providerData",
          "type": "bytes"
        },
        {
          "indexed": false,
          "internalType": "uint8",
          "name": "v",
          "type": "uint8"
        },
        {
          "indexed": false,
          "internalType": "bytes32",
          "name": "r",
          "type": "bytes32"
        },
        {
          "indexed": false,
          "internalType": "bytes32",
          "name": "s",
          "type": "bytes32"
        },
        {
          "indexed": false,
          "internalType": "uint256",
          "name": "validUntil",
          "type": "uint256"
        }
      ],
      "name": "ProviderFee",
      "type": "event"
    },
    {
      "anonymous": false,
      "inputs": [
        {
          "indexed": true,
          "internalType": "address",
          "name": "PublishMarketFeeAddress",
          "type": "address"
        },
        {
          "indexed": true,
          "internalType": "address",
          "name": "PublishMarketFeeToken",
          "type": "address"
        },
        {
          "indexed": false,
          "internalType": "uint256",
          "name": "PublishMarketFeeAmount",
          "type": "uint256"
        }
      ],
      "name": "PublishMarketFee",
      "type": "event"
    },
    {
      "anonymous": false,
      "inputs": [
        {
          "indexed": false,
          "internalType": "address",
          "name": "caller",
          "type": "address"
        },
        {
          "indexed": false,
          "internalType": "address",
          "name": "PublishMarketFeeAddress",
          "type": "address"
        },
        {
          "indexed": false,
          "internalType": "address",
          "name": "PublishMarketFeeToken",
          "type": "address"
        },
        {
          "indexed": false,
          "internalType": "uint256",
          "name": "PublishMarketFeeAmount",
          "type": "uint256"
        }
      ],
      "name": "PublishMarketFeeChanged",
      "type": "event"
    },
    {
      "anonymous": false,
      "inputs": [
        {
          "indexed": true,
          "internalType": "address",
          "name": "user",
          "type": "address"
        },
        {
          "indexed": true,
          "internalType": "address",
          "name": "signer",
          "type": "address"
        },
        {
          "indexed": false,
          "internalType": "uint256",
          "name": "timestamp",
          "type": "uint256"
        },
        {
          "indexed": false,
          "internalType": "uint256",
          "name": "blockNumber",
          "type": "uint256"
        }
      ],
      "name": "RemovedMinter",
      "type": "event"
    },
    {
      "anonymous": false,
      "inputs": [
        {
          "indexed": true,
          "internalType": "address",
          "name": "user",
          "type": "address"
        },
        {
          "indexed": true,
          "internalType": "address",
          "name": "signer",
          "type": "address"
        },
        {
          "indexed": false,
          "internalType": "uint256",
          "name": "timestamp",
          "type": "uint256"
        },
        {
          "indexed": false,
          "internalType": "uint256",
          "name": "blockNumber",
          "type": "uint256"
        }
      ],
      "name": "RemovedPaymentManager",
      "type": "event"
    },
    {
      "anonymous": false,
      "inputs": [
        {
          "indexed": true,
          "internalType": "address",
          "name": "from",
          "type": "address"
        },
        {
          "indexed": true,
          "internalType": "address",
          "name": "to",
          "type": "address"
        },
        {
          "indexed": false,
          "internalType": "uint256",
          "name": "value",
          "type": "uint256"
        }
      ],
      "name": "Transfer",
      "type": "event"
    },
    {
      "stateMutability": "payable",
      "type": "fallback"
    },
    {
      "inputs": [],
      "name": "BASE",
      "outputs": [
        {
          "internalType": "uint256",
          "name": "",
          "type": "uint256"
        }
      ],
      "stateMutability": "view",
      "type": "function"
    },
    {
      "inputs": [],
      "name": "DOMAIN_SEPARATOR",
      "outputs": [
        {
          "internalType": "bytes32",
          "name": "",
          "type": "bytes32"
        }
      ],
      "stateMutability": "view",
      "type": "function"
    },
    {
      "inputs": [],
      "name": "PERMIT_TYPEHASH",
      "outputs": [
        {
          "internalType": "bytes32",
          "name": "",
          "type": "bytes32"
        }
      ],
      "stateMutability": "view",
      "type": "function"
    },
    {
      "inputs": [
        {
          "internalType": "address",
          "name": "_minter",
          "type": "address"
        }
      ],
      "name": "addMinter",
      "outputs": [],
      "stateMutability": "nonpayable",
      "type": "function"
    },
    {
      "inputs": [
        {
          "internalType": "address",
          "name": "_paymentManager",
          "type": "address"
        }
      ],
      "name": "addPaymentManager",
      "outputs": [],
      "stateMutability": "nonpayable",
      "type": "function"
    },
    {
      "inputs": [
        {
          "internalType": "address",
          "name": "owner",
          "type": "address"
        },
        {
          "internalType": "address",
          "name": "spender",
          "type": "address"
        }
      ],
      "name": "allowance",
      "outputs": [
        {
          "internalType": "uint256",
          "name": "",
          "type": "uint256"
        }
      ],
      "stateMutability": "view",
      "type": "function"
    },
    {
      "inputs": [
        {
          "internalType": "address",
          "name": "spender",
          "type": "address"
        },
        {
          "internalType": "uint256",
          "name": "amount",
          "type": "uint256"
        }
      ],
      "name": "approve",
      "outputs": [
        {
          "internalType": "bool",
          "name": "",
          "type": "bool"
        }
      ],
      "stateMutability": "nonpayable",
      "type": "function"
    },
    {
      "inputs": [
        {
          "internalType": "uint256",
          "name": "",
          "type": "uint256"
        }
      ],
      "name": "authERC20",
      "outputs": [
        {
          "internalType": "address",
          "name": "",
          "type": "address"
        }
      ],
      "stateMutability": "view",
      "type": "function"
    },
    {
      "inputs": [
        {
          "internalType": "address",
          "name": "account",
          "type": "address"
        }
      ],
      "name": "balanceOf",
      "outputs": [
        {
          "internalType": "uint256",
          "name": "",
          "type": "uint256"
        }
      ],
      "stateMutability": "view",
      "type": "function"
    },
    {
      "inputs": [
        {
          "internalType": "uint256",
          "name": "amount",
          "type": "uint256"
        }
      ],
      "name": "burn",
      "outputs": [],
      "stateMutability": "nonpayable",
      "type": "function"
    },
    {
      "inputs": [
        {
          "internalType": "address",
          "name": "account",
          "type": "address"
        },
        {
          "internalType": "uint256",
          "name": "amount",
          "type": "uint256"
        }
      ],
      "name": "burnFrom",
      "outputs": [],
      "stateMutability": "nonpayable",
      "type": "function"
    },
    {
      "inputs": [
        {
          "components": [
            {
              "internalType": "address",
              "name": "consumer",
              "type": "address"
            },
            {
              "internalType": "uint256",
              "name": "serviceIndex",
              "type": "uint256"
            },
            {
              "components": [
                {
                  "internalType": "address",
                  "name": "providerFeeAddress",
                  "type": "address"
                },
                {
                  "internalType": "address",
                  "name": "providerFeeToken",
                  "type": "address"
                },
                {
                  "internalType": "uint256",
                  "name": "providerFeeAmount",
                  "type": "uint256"
                },
                {
                  "internalType": "uint8",
                  "name": "v",
                  "type": "uint8"
                },
                {
                  "internalType": "bytes32",
                  "name": "r",
                  "type": "bytes32"
                },
                {
                  "internalType": "bytes32",
                  "name": "s",
                  "type": "bytes32"
                },
                {
                  "internalType": "uint256",
                  "name": "validUntil",
                  "type": "uint256"
                },
                {
                  "internalType": "bytes",
                  "name": "providerData",
                  "type": "bytes"
                }
              ],
              "internalType": "struct ERC20TemplateEnterprise.providerFee",
              "name": "_providerFee",
              "type": "tuple"
            },
            {
              "components": [
                {
                  "internalType": "address",
                  "name": "consumeMarketFeeAddress",
                  "type": "address"
                },
                {
                  "internalType": "address",
                  "name": "consumeMarketFeeToken",
                  "type": "address"
                },
                {
                  "internalType": "uint256",
                  "name": "consumeMarketFeeAmount",
                  "type": "uint256"
                }
              ],
              "internalType": "struct ERC20TemplateEnterprise.consumeMarketFee",
              "name": "_consumeMarketFee",
              "type": "tuple"
            }
          ],
          "internalType": "struct ERC20TemplateEnterprise.OrderParams",
          "name": "_orderParams",
          "type": "tuple"
        },
        {
          "internalType": "address",
          "name": "dispenserContract",
          "type": "address"
        }
      ],
      "name": "buyFromDispenserAndOrder",
      "outputs": [],
      "stateMutability": "nonpayable",
      "type": "function"
    },
    {
      "inputs": [
        {
          "components": [
            {
              "internalType": "address",
              "name": "consumer",
              "type": "address"
            },
            {
              "internalType": "uint256",
              "name": "serviceIndex",
              "type": "uint256"
            },
            {
              "components": [
                {
                  "internalType": "address",
                  "name": "providerFeeAddress",
                  "type": "address"
                },
                {
                  "internalType": "address",
                  "name": "providerFeeToken",
                  "type": "address"
                },
                {
                  "internalType": "uint256",
                  "name": "providerFeeAmount",
                  "type": "uint256"
                },
                {
                  "internalType": "uint8",
                  "name": "v",
                  "type": "uint8"
                },
                {
                  "internalType": "bytes32",
                  "name": "r",
                  "type": "bytes32"
                },
                {
                  "internalType": "bytes32",
                  "name": "s",
                  "type": "bytes32"
                },
                {
                  "internalType": "uint256",
                  "name": "validUntil",
                  "type": "uint256"
                },
                {
                  "internalType": "bytes",
                  "name": "providerData",
                  "type": "bytes"
                }
              ],
              "internalType": "struct ERC20TemplateEnterprise.providerFee",
              "name": "_providerFee",
              "type": "tuple"
            },
            {
              "components": [
                {
                  "internalType": "address",
                  "name": "consumeMarketFeeAddress",
                  "type": "address"
                },
                {
                  "internalType": "address",
                  "name": "consumeMarketFeeToken",
                  "type": "address"
                },
                {
                  "internalType": "uint256",
                  "name": "consumeMarketFeeAmount",
                  "type": "uint256"
                }
              ],
              "internalType": "struct ERC20TemplateEnterprise.consumeMarketFee",
              "name": "_consumeMarketFee",
              "type": "tuple"
            }
          ],
          "internalType": "struct ERC20TemplateEnterprise.OrderParams",
          "name": "_orderParams",
          "type": "tuple"
        },
        {
          "components": [
            {
              "internalType": "address",
              "name": "exchangeContract",
              "type": "address"
            },
            {
              "internalType": "bytes32",
              "name": "exchangeId",
              "type": "bytes32"
            },
            {
              "internalType": "uint256",
              "name": "maxBaseTokenAmount",
              "type": "uint256"
            },
            {
              "internalType": "uint256",
              "name": "swapMarketFee",
              "type": "uint256"
            },
            {
              "internalType": "address",
              "name": "marketFeeAddress",
              "type": "address"
            }
          ],
          "internalType": "struct ERC20TemplateEnterprise.FreParams",
          "name": "_freParams",
          "type": "tuple"
        }
      ],
      "name": "buyFromFreAndOrder",
      "outputs": [],
      "stateMutability": "nonpayable",
      "type": "function"
    },
    {
      "inputs": [],
      "name": "cap",
      "outputs": [
        {
          "internalType": "uint256",
          "name": "",
          "type": "uint256"
        }
      ],
      "stateMutability": "view",
      "type": "function"
    },
    {
      "inputs": [],
      "name": "cleanFrom721",
      "outputs": [],
      "stateMutability": "nonpayable",
      "type": "function"
    },
    {
      "inputs": [],
      "name": "cleanPermissions",
      "outputs": [],
      "stateMutability": "nonpayable",
      "type": "function"
    },
    {
      "inputs": [
        {
          "internalType": "address",
          "name": "_dispenser",
          "type": "address"
        },
        {
          "internalType": "uint256",
          "name": "maxTokens",
          "type": "uint256"
        },
        {
          "internalType": "uint256",
          "name": "maxBalance",
          "type": "uint256"
        },
        {
          "internalType": "bool",
          "name": "withMint",
          "type": "bool"
        },
        {
          "internalType": "address",
          "name": "allowedSwapper",
          "type": "address"
        }
      ],
      "name": "createDispenser",
      "outputs": [],
      "stateMutability": "nonpayable",
      "type": "function"
    },
    {
      "inputs": [
        {
          "internalType": "address",
          "name": "fixedPriceAddress",
          "type": "address"
        },
        {
          "internalType": "address[]",
          "name": "addresses",
          "type": "address[]"
        },
        {
          "internalType": "uint256[]",
          "name": "uints",
          "type": "uint256[]"
        }
      ],
      "name": "createFixedRate",
      "outputs": [
        {
          "internalType": "bytes32",
          "name": "exchangeId",
          "type": "bytes32"
        }
      ],
      "stateMutability": "nonpayable",
      "type": "function"
    },
    {
      "inputs": [],
      "name": "decimals",
      "outputs": [
        {
          "internalType": "uint8",
          "name": "",
          "type": "uint8"
        }
      ],
      "stateMutability": "pure",
      "type": "function"
    },
    {
      "inputs": [
        {
          "internalType": "address",
          "name": "spender",
          "type": "address"
        },
        {
          "internalType": "uint256",
          "name": "subtractedValue",
          "type": "uint256"
        }
      ],
      "name": "decreaseAllowance",
      "outputs": [
        {
          "internalType": "bool",
          "name": "",
          "type": "bool"
        }
      ],
      "stateMutability": "nonpayable",
      "type": "function"
    },
    {
      "inputs": [],
      "name": "getDispensers",
      "outputs": [
        {
          "internalType": "address[]",
          "name": "",
          "type": "address[]"
        }
      ],
      "stateMutability": "view",
      "type": "function"
    },
    {
      "inputs": [],
      "name": "getERC721Address",
      "outputs": [
        {
          "internalType": "address",
          "name": "",
          "type": "address"
        }
      ],
      "stateMutability": "view",
      "type": "function"
    },
    {
      "inputs": [],
      "name": "getFixedRates",
      "outputs": [
        {
          "components": [
            {
              "internalType": "address",
              "name": "contractAddress",
              "type": "address"
            },
            {
              "internalType": "bytes32",
              "name": "id",
              "type": "bytes32"
            }
          ],
          "internalType": "struct ERC20TemplateEnterprise.fixedRate[]",
          "name": "",
          "type": "tuple[]"
        }
      ],
      "stateMutability": "view",
      "type": "function"
    },
    {
      "inputs": [],
      "name": "getId",
      "outputs": [
        {
          "internalType": "uint8",
          "name": "",
          "type": "uint8"
        }
      ],
      "stateMutability": "pure",
      "type": "function"
    },
    {
      "inputs": [],
      "name": "getPaymentCollector",
      "outputs": [
        {
          "internalType": "address",
          "name": "",
          "type": "address"
        }
      ],
      "stateMutability": "view",
      "type": "function"
    },
    {
      "inputs": [
        {
          "internalType": "address",
          "name": "user",
          "type": "address"
        }
      ],
      "name": "getPermissions",
      "outputs": [
        {
          "components": [
            {
              "internalType": "bool",
              "name": "minter",
              "type": "bool"
            },
            {
              "internalType": "bool",
              "name": "paymentManager",
              "type": "bool"
            }
          ],
          "internalType": "struct ERC20Roles.RolesERC20",
          "name": "",
          "type": "tuple"
        }
      ],
      "stateMutability": "view",
      "type": "function"
    },
    {
      "inputs": [],
      "name": "getPublishingMarketFee",
      "outputs": [
        {
          "internalType": "address",
          "name": "",
          "type": "address"
        },
        {
          "internalType": "address",
          "name": "",
          "type": "address"
        },
        {
          "internalType": "uint256",
          "name": "",
          "type": "uint256"
        }
      ],
      "stateMutability": "view",
      "type": "function"
    },
    {
      "inputs": [
        {
          "internalType": "address",
          "name": "spender",
          "type": "address"
        },
        {
          "internalType": "uint256",
          "name": "addedValue",
          "type": "uint256"
        }
      ],
      "name": "increaseAllowance",
      "outputs": [
        {
          "internalType": "bool",
          "name": "",
          "type": "bool"
        }
      ],
      "stateMutability": "nonpayable",
      "type": "function"
    },
    {
      "inputs": [
        {
          "internalType": "string[]",
          "name": "strings_",
          "type": "string[]"
        },
        {
          "internalType": "address[]",
          "name": "addresses_",
          "type": "address[]"
        },
        {
          "internalType": "address[]",
          "name": "factoryAddresses_",
          "type": "address[]"
        },
        {
          "internalType": "uint256[]",
          "name": "uints_",
          "type": "uint256[]"
        },
        {
          "internalType": "bytes[]",
          "name": "bytes_",
          "type": "bytes[]"
        }
      ],
      "name": "initialize",
      "outputs": [
        {
          "internalType": "bool",
          "name": "",
          "type": "bool"
        }
      ],
      "stateMutability": "nonpayable",
      "type": "function"
    },
    {
      "inputs": [
        {
          "internalType": "address",
          "name": "user",
          "type": "address"
        }
      ],
      "name": "isERC20Deployer",
      "outputs": [
        {
          "internalType": "bool",
          "name": "deployer",
          "type": "bool"
        }
      ],
      "stateMutability": "nonpayable",
      "type": "function"
    },
    {
      "inputs": [],
      "name": "isInitialized",
      "outputs": [
        {
          "internalType": "bool",
          "name": "",
          "type": "bool"
        }
      ],
      "stateMutability": "view",
      "type": "function"
    },
    {
      "inputs": [
        {
          "internalType": "address",
          "name": "account",
          "type": "address"
        }
      ],
      "name": "isMinter",
      "outputs": [
        {
          "internalType": "bool",
          "name": "",
          "type": "bool"
        }
      ],
      "stateMutability": "view",
      "type": "function"
    },
    {
      "inputs": [
        {
          "internalType": "address",
          "name": "account",
          "type": "address"
        },
        {
          "internalType": "uint256",
          "name": "value",
          "type": "uint256"
        }
      ],
      "name": "mint",
      "outputs": [],
      "stateMutability": "nonpayable",
      "type": "function"
    },
    {
      "inputs": [],
      "name": "name",
      "outputs": [
        {
          "internalType": "string",
          "name": "",
          "type": "string"
        }
      ],
      "stateMutability": "view",
      "type": "function"
    },
    {
      "inputs": [
        {
          "internalType": "address",
          "name": "",
          "type": "address"
        }
      ],
      "name": "nonces",
      "outputs": [
        {
          "internalType": "uint256",
          "name": "",
          "type": "uint256"
        }
      ],
      "stateMutability": "view",
      "type": "function"
    },
    {
      "inputs": [
        {
          "internalType": "bytes32",
          "name": "orderTxId",
          "type": "bytes32"
        },
        {
          "internalType": "bytes",
          "name": "providerData",
          "type": "bytes"
        },
        {
          "internalType": "bytes",
          "name": "providerSignature",
          "type": "bytes"
        },
        {
          "internalType": "bytes",
          "name": "consumerData",
          "type": "bytes"
        },
        {
          "internalType": "bytes",
          "name": "consumerSignature",
          "type": "bytes"
        },
        {
          "internalType": "address",
          "name": "consumerAddress",
          "type": "address"
        }
      ],
      "name": "orderExecuted",
      "outputs": [],
      "stateMutability": "nonpayable",
      "type": "function"
    },
    {
      "inputs": [
        {
          "internalType": "address",
          "name": "",
          "type": "address"
        }
      ],
      "name": "permissions",
      "outputs": [
        {
          "internalType": "bool",
          "name": "minter",
          "type": "bool"
        },
        {
          "internalType": "bool",
          "name": "paymentManager",
          "type": "bool"
        }
      ],
      "stateMutability": "view",
      "type": "function"
    },
    {
      "inputs": [
        {
          "internalType": "address",
          "name": "owner",
          "type": "address"
        },
        {
          "internalType": "address",
          "name": "spender",
          "type": "address"
        },
        {
          "internalType": "uint256",
          "name": "value",
          "type": "uint256"
        },
        {
          "internalType": "uint256",
          "name": "deadline",
          "type": "uint256"
        },
        {
          "internalType": "uint8",
          "name": "v",
          "type": "uint8"
        },
        {
          "internalType": "bytes32",
          "name": "r",
          "type": "bytes32"
        },
        {
          "internalType": "bytes32",
          "name": "s",
          "type": "bytes32"
        }
      ],
      "name": "permit",
      "outputs": [],
      "stateMutability": "nonpayable",
      "type": "function"
    },
    {
      "inputs": [
        {
          "internalType": "address",
          "name": "_minter",
          "type": "address"
        }
      ],
      "name": "removeMinter",
      "outputs": [],
      "stateMutability": "nonpayable",
      "type": "function"
    },
    {
      "inputs": [
        {
          "internalType": "address",
          "name": "_paymentManager",
          "type": "address"
        }
      ],
      "name": "removePaymentManager",
      "outputs": [],
      "stateMutability": "nonpayable",
      "type": "function"
    },
    {
      "inputs": [
        {
          "internalType": "bytes32",
          "name": "orderTxId",
          "type": "bytes32"
        },
        {
          "components": [
            {
              "internalType": "address",
              "name": "providerFeeAddress",
              "type": "address"
            },
            {
              "internalType": "address",
              "name": "providerFeeToken",
              "type": "address"
            },
            {
              "internalType": "uint256",
              "name": "providerFeeAmount",
              "type": "uint256"
            },
            {
              "internalType": "uint8",
              "name": "v",
              "type": "uint8"
            },
            {
              "internalType": "bytes32",
              "name": "r",
              "type": "bytes32"
            },
            {
              "internalType": "bytes32",
              "name": "s",
              "type": "bytes32"
            },
            {
              "internalType": "uint256",
              "name": "validUntil",
              "type": "uint256"
            },
            {
              "internalType": "bytes",
              "name": "providerData",
              "type": "bytes"
            }
          ],
          "internalType": "struct ERC20TemplateEnterprise.providerFee",
          "name": "_providerFee",
          "type": "tuple"
        }
      ],
      "name": "reuseOrder",
      "outputs": [],
      "stateMutability": "nonpayable",
      "type": "function"
    },
    {
      "inputs": [],
      "name": "router",
      "outputs": [
        {
          "internalType": "address",
          "name": "",
          "type": "address"
        }
      ],
      "stateMutability": "view",
      "type": "function"
    },
    {
      "inputs": [
        {
          "internalType": "bytes",
          "name": "_value",
          "type": "bytes"
        }
      ],
      "name": "setData",
      "outputs": [],
      "stateMutability": "nonpayable",
      "type": "function"
    },
    {
      "inputs": [
        {
          "internalType": "address",
          "name": "_newPaymentCollector",
          "type": "address"
        }
      ],
      "name": "setPaymentCollector",
      "outputs": [],
      "stateMutability": "nonpayable",
      "type": "function"
    },
    {
      "inputs": [
        {
          "internalType": "address",
          "name": "_publishMarketFeeAddress",
          "type": "address"
        },
        {
          "internalType": "address",
          "name": "_publishMarketFeeToken",
          "type": "address"
        },
        {
          "internalType": "uint256",
          "name": "_publishMarketFeeAmount",
          "type": "uint256"
        }
      ],
      "name": "setPublishingMarketFee",
      "outputs": [],
      "stateMutability": "nonpayable",
      "type": "function"
    },
    {
      "inputs": [
        {
          "internalType": "address",
          "name": "consumer",
          "type": "address"
        },
        {
          "internalType": "uint256",
          "name": "serviceIndex",
          "type": "uint256"
        },
        {
          "components": [
            {
              "internalType": "address",
              "name": "providerFeeAddress",
              "type": "address"
            },
            {
              "internalType": "address",
              "name": "providerFeeToken",
              "type": "address"
            },
            {
              "internalType": "uint256",
              "name": "providerFeeAmount",
              "type": "uint256"
            },
            {
              "internalType": "uint8",
              "name": "v",
              "type": "uint8"
            },
            {
              "internalType": "bytes32",
              "name": "r",
              "type": "bytes32"
            },
            {
              "internalType": "bytes32",
              "name": "s",
              "type": "bytes32"
            },
            {
              "internalType": "uint256",
              "name": "validUntil",
              "type": "uint256"
            },
            {
              "internalType": "bytes",
              "name": "providerData",
              "type": "bytes"
            }
          ],
          "internalType": "struct ERC20TemplateEnterprise.providerFee",
          "name": "_providerFee",
          "type": "tuple"
        },
        {
          "components": [
            {
              "internalType": "address",
              "name": "consumeMarketFeeAddress",
              "type": "address"
            },
            {
              "internalType": "address",
              "name": "consumeMarketFeeToken",
              "type": "address"
            },
            {
              "internalType": "uint256",
              "name": "consumeMarketFeeAmount",
              "type": "uint256"
            }
          ],
          "internalType": "struct ERC20TemplateEnterprise.consumeMarketFee",
          "name": "_consumeMarketFee",
          "type": "tuple"
        }
      ],
      "name": "startOrder",
      "outputs": [],
      "stateMutability": "nonpayable",
      "type": "function"
    },
    {
      "inputs": [],
      "name": "symbol",
      "outputs": [
        {
          "internalType": "string",
          "name": "",
          "type": "string"
        }
      ],
      "stateMutability": "view",
      "type": "function"
    },
    {
      "inputs": [],
      "name": "totalSupply",
      "outputs": [
        {
          "internalType": "uint256",
          "name": "",
          "type": "uint256"
        }
      ],
      "stateMutability": "view",
      "type": "function"
    },
    {
      "inputs": [
        {
          "internalType": "address",
          "name": "recipient",
          "type": "address"
        },
        {
          "internalType": "uint256",
          "name": "amount",
          "type": "uint256"
        }
      ],
      "name": "transfer",
      "outputs": [
        {
          "internalType": "bool",
          "name": "",
          "type": "bool"
        }
      ],
      "stateMutability": "nonpayable",
      "type": "function"
    },
    {
      "inputs": [
        {
          "internalType": "address",
          "name": "sender",
          "type": "address"
        },
        {
          "internalType": "address",
          "name": "recipient",
          "type": "address"
        },
        {
          "internalType": "uint256",
          "name": "amount",
          "type": "uint256"
        }
      ],
      "name": "transferFrom",
      "outputs": [
        {
          "internalType": "bool",
          "name": "",
          "type": "bool"
        }
      ],
      "stateMutability": "nonpayable",
      "type": "function"
    },
    {
      "inputs": [],
      "name": "withdrawETH",
      "outputs": [],
      "stateMutability": "payable",
      "type": "function"
    }
  ],
  "bytecode": "0x6080604052600b805460ff60a01b191690553480156200001e57600080fd5b5060408051808201825260048152631d195cdd60e21b60208083019182528351808501909452600a8452691d195cdd14de5b589bdb60b21b9084015281519192916200006d9160039162000091565b5080516200008390600490602084019062000091565b505060016007555062000174565b8280546200009f9062000137565b90600052602060002090601f016020900481019282620000c357600085556200010e565b82601f10620000de57805160ff19168380011785556200010e565b828001600101855582156200010e579182015b828111156200010e578251825591602001919060010190620000f1565b506200011c92915062000120565b5090565b5b808211156200011c576000815560010162000121565b600181811c908216806200014c57607f821691505b602082108114156200016e57634e487b7160e01b600052602260045260246000fd5b50919050565b6155f180620001846000396000f3fe6080604052600436106102c55760003560e01c80635d1ca6311161017e578063a8c09b0b116100d3578063d505accf1161008f578063e487c2e81161006c578063e487c2e8146109a8578063ec342ad0146109bd578063ef867ff4146109d9578063f887ea40146109f957005b8063d505accf1461093a578063dd62ed3e1461095a578063e086e5ec146109a057005b8063a8c09b0b14610861578063a9059cbb14610881578063aa271e1a146108a1578063aa492ef9146108da578063ab62f0e1146108fa578063b3998be01461091a57005b806382c03da51161013a57806395d89b411161011757806395d89b41146107ec57806396fb3eaf14610801578063983b2d5614610821578063a457c2d71461084157005b806382c03da51461079757806389208f0f146107ac5780638b96412b146107cc57005b80635d1ca631146106be57806370a08231146106d257806379cc67901461070857806379d9d7f3146107285780637dda231e146107485780637ecebe001461076a57005b8063313ce56711610234578063397b3743116101f057806347ac7d55116101cd57806347ac7d55146106475780634f189cb21461066957806357a3a31b1461067e57806357ad5ff61461069e57005b8063397b3743146105cb57806340c10f191461060757806342966c681461062757005b8063313ce5671461051f578063355274ea14610541578063361fef49146105565780633644e51514610576578063392e53cd1461058c57806339509351146105ab57005b8063191c918a11610283578063191c918a1461044b5780631b53b05f1461046b57806323b872dd1461048b57806325b00243146104ab5780633092afd5146104cb57806330adf81f146104eb57005b80627ffb78146102c757806301e88208146102fe57806306fdde031461034e578063095ea7b314610370578063160a7925146103a057806318160ddd1461042c575b005b3480156102d357600080fd5b50600c546001600160a01b03165b6040516001600160a01b0390911681526020015b60405180910390f35b34801561030a57600080fd5b5061033761031936600461455f565b60056020526000908152604090205460ff8082169161010090041682565b6040805192151583529015156020830152016102f5565b34801561035a57600080fd5b50610363610a19565b6040516102f591906145a8565b34801561037c57600080fd5b5061039061038b3660046145db565b610aab565b60405190151581526020016102f5565b3480156103ac57600080fd5b5061040d6103bb36600461455f565b6040805180820190915260008082526020820152506001600160a01b031660009081526005602090815260409182902082518084019093525460ff808216151584526101009091041615159082015290565b60408051825115158152602092830151151592810192909252016102f5565b34801561043857600080fd5b506002545b6040519081526020016102f5565b34801561045757600080fd5b506102c5610466366004614615565b610ac2565b34801561047757600080fd5b506102c561048636600461468c565b610c9d565b34801561049757600080fd5b506103906104a63660046146dd565b610dcb565b3480156104b757600080fd5b506102c56104c636600461455f565b610e77565b3480156104d757600080fd5b506102c56104e636600461455f565b610f11565b3480156104f757600080fd5b5061043d7f6e71edae12b1b97f4d1f60370fef10105fa2faae0126114a169c64845d6126c981565b34801561052b57600080fd5b5060125b60405160ff90911681526020016102f5565b34801561054d57600080fd5b50600a5461043d565b34801561056257600080fd5b506102c5610571366004614731565b610fa8565b34801561058257600080fd5b5061043d60115481565b34801561059857600080fd5b50600b54600160a01b900460ff16610390565b3480156105b757600080fd5b506103906105c63660046145db565b610ff9565b3480156105d757600080fd5b50600e54600f54601054604080516001600160a01b039485168152939092166020840152908201526060016102f5565b34801561061357600080fd5b506102c56106223660046145db565b611035565b34801561063357600080fd5b506102c5610642366004614777565b611102565b34801561065357600080fd5b5061065c61110c565b6040516102f591906147d4565b34801561067557600080fd5b506102c561116d565b34801561068a57600080fd5b506102c561069936600461455f565b611254565b3480156106aa57600080fd5b506102c56106b93660046146dd565b611396565b3480156106ca57600080fd5b50600261052f565b3480156106de57600080fd5b5061043d6106ed36600461455f565b6001600160a01b031660009081526020819052604090205490565b34801561071457600080fd5b506102c56107233660046145db565b61154f565b34801561073457600080fd5b506102c56107433660046147e7565b6115d5565b34801561075457600080fd5b5061075d611ae1565b6040516102f5919061485a565b34801561077657600080fd5b5061043d61078536600461455f565b60126020526000908152604090205481565b3480156107a357600080fd5b506102c5611b56565b3480156107b857600080fd5b506102c56107c73660046148fa565b611bb0565b3480156107d857600080fd5b5061043d6107e7366004614aab565b611e9d565b3480156107f857600080fd5b50610363612151565b34801561080d57600080fd5b5061039061081c36600461455f565b612160565b34801561082d57600080fd5b506102c561083c36600461455f565b6121db565b34801561084d57600080fd5b5061039061085c3660046145db565b612272565b34801561086d57600080fd5b506102c561087c366004614b80565b61230b565b34801561088d57600080fd5b5061039061089c3660046145db565b6126bf565b3480156108ad57600080fd5b506103906108bc36600461455f565b6001600160a01b031660009081526005602052604090205460ff1690565b3480156108e657600080fd5b506102c56108f536600461455f565b6126cc565b34801561090657600080fd5b506102c5610915366004614bd9565b612763565b34801561092657600080fd5b50610390610935366004614c5e565b612894565b34801561094657600080fd5b506102c5610955366004614d5f565b6129ce565b34801561096657600080fd5b5061043d610975366004614dcd565b6001600160a01b03918216600090815260016020908152604080832093909416825291909152205490565b6102c5612be0565b3480156109b457600080fd5b506102e1612c20565b3480156109c957600080fd5b5061043d670de0b6b3a764000081565b3480156109e557600080fd5b506102e16109f4366004614777565b612cb5565b348015610a0557600080fd5b506013546102e1906001600160a01b031681565b606060088054610a2890614dfb565b80601f0160208091040260200160405190810160405280929190818152602001828054610a5490614dfb565b8015610aa15780601f10610a7657610100808354040283529160200191610aa1565b820191906000526020600020905b815481529060010190602001808311610a8457829003601f168201915b5050505050905090565b6000610ab8338484612cdf565b5060015b92915050565b600c5460405163160a792560e01b81523360048201526001600160a01b039091169063160a7925906024016080604051808303816000875af1158015610b0c573d6000803e3d6000fd5b505050506040513d601f19601f82011682018060405250810190610b309190614e30565b60200151610b595760405162461bcd60e51b8152600401610b5090614eb4565b60405180910390fd5b60026007541415610b7c5760405162461bcd60e51b8152600401610b5090614ee9565b6002600755601354604051636b14d00560e11b81526001600160a01b0387811660048301523060248301819052604483018890526064830187905233608484015260a48301529091169063d629a00a9060c401600060405180830381600087803b158015610be957600080fd5b505af1158015610bfd573d6000803e3d6000fd5b505050508115610c1057610c1085612e03565b601580546001810182556000919091527f55f448fdea98c4d29eb340757ef0a66cd03dbb9538908a6a81d96026b71ec4750180546001600160a01b0319166001600160a01b0387169081179091556040519081527fa31ffd41531537eb31bfd827a3f5372b5f62bf4dd8579e5354b280dc58490e709060200160405180910390a150506001600755505050565b60026007541415610cc05760405162461bcd60e51b8152600401610b5090614ee9565b6002600755604051631d746d8360e01b8152306004820152670de0b6b3a764000060248201819052336044830152906001600160a01b03831690631d746d8390606401600060405180830381600087803b158015610d1d57600080fd5b505af1158015610d31573d6000803e3d6000fd5b50503360009081526020819052604090205483925090501015610d965760405162461bcd60e51b815260206004820152601f60248201527f556e61626c6520746f206765742044542066726f6d2044697370656e736572006044820152606401610b50565b610dc1610da6602085018561455f565b6020850135610db86040870187614f20565b866060016115d5565b5050600160075550565b6000610dd8848484612f05565b6001600160a01b038416600090815260016020908152604080832033845290915290205482811015610e5d5760405162461bcd60e51b815260206004820152602860248201527f45524332303a207472616e7366657220616d6f756e74206578636565647320616044820152676c6c6f77616e636560c01b6064820152608401610b50565b610e6a8533858403612cdf565b60019150505b9392505050565b600c5460405163160a792560e01b81523360048201526001600160a01b039091169063160a7925906024016080604051808303816000875af1158015610ec1573d6000803e3d6000fd5b505050506040513d601f19601f82011682018060405250810190610ee59190614e30565b60200151610f055760405162461bcd60e51b8152600401610b5090614eb4565b610f0e816130d5565b50565b600c5460405163160a792560e01b81523360048201526001600160a01b039091169063160a7925906024016080604051808303816000875af1158015610f5b573d6000803e3d6000fd5b505050506040513d601f19601f82011682018060405250810190610f7f9190614e30565b60200151610f9f5760405162461bcd60e51b8152600401610b5090614eb4565b610f0e81613136565b60408051838152336020820152428183015243606082015290517f526e31449ea46e2aecf9b480c8d7dfa191348ef74ffdf75b445a6ab726daa6ff9181900360800190a1610ff581613196565b5050565b3360008181526001602090815260408083206001600160a01b03871684529091528120549091610ab8918590611030908690614f56565b612cdf565b3360009081526005602052604090205460ff166110945760405162461bcd60e51b815260206004820152601960248201527f455243323054656d706c6174653a204e4f54204d494e544552000000000000006044820152606401610b50565b600a546110aa826110a460025490565b90613533565b11156110f85760405162461bcd60e51b815260206004820152601f60248201527f44617461746f6b656e54656d706c6174653a20636170206578636565646564006044820152606401610b50565b610ff5828261353f565b610f0e338261361e565b60606015805480602002602001604051908101604052809291908181526020018280548015610aa157602002820191906000526020600020905b81546001600160a01b03168152600190910190602001808311611146575050505050905090565b600c546040516331a9108f60e11b8152600160048201526001600160a01b0390911690636352211e90602401602060405180830381865afa1580156111b6573d6000803e3d6000fd5b505050506040513d601f19601f820116820180604052508101906111da9190614f6e565b6001600160a01b0316336001600160a01b03161461123a5760405162461bcd60e51b815260206004820152601b60248201527f455243323054656d706c6174653a206e6f74204e46544f776e657200000000006044820152606401610b50565b61124261376c565b600d80546001600160a01b0319169055565b33600090815260056020526040902054610100900460ff16806112e55750600c5460405163160a792560e01b81523360048201526001600160a01b039091169063160a7925906024016080604051808303816000875af11580156112bc573d6000803e3d6000fd5b505050506040513d601f19601f820116820180604052508101906112e09190614e30565b602001515b6113455760405162461bcd60e51b815260206004820152602b60248201527f455243323054656d706c6174653a204e4f54205041594d454e54204d414e414760448201526a22a91037b91027aba722a960a91b6064820152608401610b50565b61134e8161381b565b604080514281524360208201526001600160a01b0383169133917f4d7694d695c57cc54947177c8e8a0e61aae664e9223492a798c32fadfc6419cc910160405180910390a350565b600e546001600160a01b031633146114035760405162461bcd60e51b815260206004820152602a60248201527f455243323054656d706c6174653a206e6f74207075626c6973684d61726b65746044820152694665654164647265737360b01b6064820152608401610b50565b6001600160a01b03831661146a5760405162461bcd60e51b815260206004820152602860248201527f496e76616c6964205f7075626c6973684d61726b657446656541646472657373604482015267206164647265737360c01b6064820152608401610b50565b6001600160a01b0382166114cf5760405162461bcd60e51b815260206004820152602660248201527f496e76616c6964205f7075626c6973684d61726b6574466565546f6b656e206160448201526564647265737360d01b6064820152608401610b50565b600e80546001600160a01b038581166001600160a01b03199283168117909355600f80549186169190921681179091556010839055604080513381526020810193909352820152606081018290527f02ab4b3fc023109c2d0da394bda239166c833f63c42b71b67ed4b836dca0ddfe9060800160405180910390a1505050565b600061155b8333610975565b9050818110156115b95760405162461bcd60e51b8152602060048201526024808201527f45524332303a206275726e20616d6f756e74206578636565647320616c6c6f77604482015263616e636560e01b6064820152608401610b50565b6115c68333848403612cdf565b6115d0838361361e565b505050565b33600090815260208190526040812054670de0b6b3a7640000919082111561164b5760405162461bcd60e51b8152602060048201526024808201527f4e6f7420656e6f7567682064617461746f6b656e7320746f207374617274204f604482015263393232b960e11b6064820152608401610b50565b600e5460408051338152602081018590529081018790524260608201524360808201526001600160a01b03918216918816907fe1c4fa794edfa8f619b8257a077398950357b9c6398528f94480307352f9afcc9060a00160405180910390a360006010541180156116c65750600f546001600160a01b031615155b80156116dc5750600e546001600160a01b031615155b1561189457600f546010546116fe916001600160a01b0316903390309061383d565b60135460408051637d28354d60e01b815290516000926001600160a01b031691637d28354d9160048083019260209291908290030181865afa158015611748573d6000803e3d6000fd5b505050506040513d601f19601f8201168201806040525081019061176c9190614f8b565b9050801561179e5761179b670de0b6b3a76400006117958360105461398b90919063ffffffff16565b90613997565b91505b600e546010546117cf916001600160a01b0316906117bc90856139a3565b600f546001600160a01b031691906139af565b600f54600e546010546001600160a01b0392831692909116907f4049a448ac6f0284a98d2cb9199e73605944ea5bec901a037f88c84703de82b29061181490866139a3565b60405190815260200160405180910390a3811561189257600b54600f54611848916001600160a01b039182169116846139af565b600f54600b546040518481526001600160a01b0392831692909116907f4049a448ac6f0284a98d2cb9199e73605944ea5bec901a037f88c84703de82b29060200160405180910390a35b505b600083604001351180156118c1575060006118b5604085016020860161455f565b6001600160a01b031614155b80156118e3575060006118d7602085018561455f565b6001600160a01b031614155b15611ac7576119076118fb604085016020860161455f565b3330866040013561383d565b60135460408051637d28354d60e01b815290516000926001600160a01b031691637d28354d9160048083019260209291908290030181865afa158015611951573d6000803e3d6000fd5b505050506040513d601f19601f820116820180604052508101906119759190614f8b565b9050801561199a57611997670de0b6b3a764000061179560408701358461398b565b91505b6119d86119aa602086018661455f565b6119b86040870135856139a3565b6119c8604088016020890161455f565b6001600160a01b031691906139af565b6119e8604085016020860161455f565b6001600160a01b03166119fe602086018661455f565b6001600160a01b03167f6d11837f46cc09b011cf4aae09fcade046c020aac088090ae4f77ff67b707972611a366040880135866139a3565b60405190815260200160405180910390a38115611ac557600b54611a6e906001600160a01b0316836119c8604088016020890161455f565b611a7e604085016020860161455f565b600b546040518481526001600160a01b0392831692909116907f6d11837f46cc09b011cf4aae09fcade046c020aac088090ae4f77ff67b7079729060200160405180910390a35b505b611ad084613196565b611ad982611102565b505050505050565b60606014805480602002602001604051908101604052809291908181526020016000905b82821015611b4d576000848152602090819020604080518082019091526002850290910180546001600160a01b03168252600190810154828401529083529092019101611b05565b50505050905090565b600c546001600160a01b0316331461123a5760405162461bcd60e51b815260206004820152601f60248201527f455243323054656d706c6174653a204e4f542037323120436f6e7472616374006044820152606401610b50565b336001600160a01b0382161415611c095760405162461bcd60e51b815260206004820152601f60248201527f50726f76696465722063616e6e6f742062652074686520636f6e73756d6572006044820152606401610b50565b60006040518060400160405280601c81526020017f19457468657265756d205369676e6564204d6573736167653a0a33320000000081525090506000818c8c8c604051602001611c5b93929190614fa4565b60405160208183030381529060405280519060200120604051602001611c82929190614fbe565b604051602081830303815290604052805190602001209050336001600160a01b0316611ce4828b8b8080601f016020809104026020016040519081016040528093929190818152602001838380828437600092019190915250613a1292505050565b6001600160a01b031614611d3a5760405162461bcd60e51b815260206004820152601f60248201527f50726f7669646572207369676e617475726520636865636b206661696c6564006044820152606401610b50565b6000828888604051602001611d50929190614fe0565b60405160208183030381529060405280519060200120604051602001611d77929190614fbe565b604051602081830303815290604052805190602001209050836001600160a01b0316611dd98288888080601f016020809104026020016040519081016040528093929190818152602001838380828437600092019190915250613a1292505050565b6001600160a01b031614611e2f5760405162461bcd60e51b815260206004820152601f60248201527f436f6e73756d6572207369676e617475726520636865636b206661696c6564006044820152606401610b50565b836001600160a01b0316336001600160a01b03167fc9a10280e9c735c63092fa5431e6acb3ed342e08b69a083e5e676994eb7070f98f8f8f8f8f8f8f8f8f4243604051611e869b9a99989796959493929190615019565b60405180910390a350505050505050505050505050565b600c5460405163160a792560e01b81523360048201526000916001600160a01b03169063160a7925906024016080604051808303816000875af1158015611ee8573d6000803e3d6000fd5b505050506040513d601f19601f82011682018060405250810190611f0c9190614e30565b60200151611f2c5760405162461bcd60e51b8152600401610b5090614eb4565b60026007541415611f4f5760405162461bcd60e51b8152600401610b5090614ee9565b60026007819055503083600381518110611f6b57611f6b61508b565b6001600160a01b039283166020918202929092010152601354604051638244937560e01b8152911690638244937590611fac908790879087906004016150a1565b6020604051808303816000875af1158015611fcb573d6000803e3d6000fd5b505050506040513d601f19601f82011682018060405250810190611fef9190614f8b565b90506000826004815181106120065761200661508b565b6020026020010151111561201d5761201d84612e03565b826000815181106120305761203061508b565b60200260200101516001600160a01b0316836001815181106120545761205461508b565b60200260200101516001600160a01b03167fb3fac3ae95956dbac74e63ba8dac94081832395c8788e3049c900a7732f3480583876040516120a89291909182526001600160a01b0316602082015260400190565b60405180910390a3604080518082019091526001600160a01b03948516815260208101828152601480546001808201835560009290925292517fce6d7b5282bd9a3661ae061feed1dbda4e52ab073b1f9285be6e155d9c38d4ec600290940293840180546001600160a01b0319169190981617909655517fce6d7b5282bd9a3661ae061feed1dbda4e52ab073b1f9285be6e155d9c38d4ed909101556007939093555090919050565b606060098054610a2890614dfb565b600c5460405163160a792560e01b81526001600160a01b038381166004830152600092169063160a7925906024016080604051808303816000875af11580156121ad573d6000803e3d6000fd5b505050506040513d601f19601f820116820180604052508101906121d19190614e30565b6020015192915050565b600c5460405163160a792560e01b81523360048201526001600160a01b039091169063160a7925906024016080604051808303816000875af1158015612225573d6000803e3d6000fd5b505050506040513d601f19601f820116820180604052508101906122499190614e30565b602001516122695760405162461bcd60e51b8152600401610b5090614eb4565b610f0e81612e03565b3360009081526001602090815260408083206001600160a01b0386168452909152812054828110156122f45760405162461bcd60e51b815260206004820152602560248201527f45524332303a2064656372656173656420616c6c6f77616e63652062656c6f77604482015264207a65726f60d81b6064820152608401610b50565b6123013385858403612cdf565b5060019392505050565b6002600754141561232e5760405162461bcd60e51b8152600401610b5090614ee9565b6002600755600080612343602084018461455f565b604051634c87087d60e01b8152602085013560048201526001600160a01b039190911690634c87087d9060240161018060405180830381865afa15801561238e573d6000803e3d6000fd5b505050506040513d601f19601f820116820180604052508101906123b29190615107565b5050505050505050935050925050306001600160a01b0316826001600160a01b0316146124315760405162461bcd60e51b815260206004820152602760248201527f5468697320466978656452617465206973206e6f742070726f766964696e67206044820152661d1a1a5cc8111560ca1b6064820152608401610b50565b6000612440602085018561455f565b604051636e8de4b560e11b815260208601356004820152670de0b6b3a76400006024820152606086013560448201526001600160a01b03919091169063dd1bc96a90606401608060405180830381865afa1580156124a2573d6000803e3d6000fd5b505050506040513d601f19601f820116820180604052508101906124c691906151c4565b5050509050836040013581111561252f5760405162461bcd60e51b815260206004820152602760248201527f46697865645261746545786368616e67653a20546f6f206d616e79206261736560448201526620746f6b656e7360c81b6064820152608401610b50565b61253b8233308461383d565b61255c61254b602086018661455f565b6001600160a01b0384169083613aea565b612569602085018561455f565b6001600160a01b03166368c4b7e96020860135670de0b6b3a76400008461259660a08a0160808b0161455f565b6040516001600160e01b031960e087901b1681526004810194909452602484019290925260448301526001600160a01b031660648201526060870135608482015260a401600060405180830381600087803b1580156125f457600080fd5b505af1158015612608573d6000803e3d6000fd5b505030600090815260208190526040902054670de0b6b3a76400009250905010156126755760405162461bcd60e51b815260206004820152601f60248201527f556e61626c6520746f206275792044542066726f6d20466978656452617465006044820152606401610b50565b6126883033670de0b6b3a7640000612f05565b6126b3612698602087018761455f565b60208701356126aa6040890189614f20565b886060016115d5565b50506001600755505050565b6000610ab8338484612f05565b600c5460405163160a792560e01b81523360048201526001600160a01b039091169063160a7925906024016080604051808303816000875af1158015612716573d6000803e3d6000fd5b505050506040513d601f19601f8201168201806040525081019061273a9190614e30565b6020015161275a5760405162461bcd60e51b8152600401610b5090614eb4565b610f0e81613b9c565b600c5460405163160a792560e01b81523360048201526001600160a01b039091169063160a7925906024016080604051808303816000875af11580156127ad573d6000803e3d6000fd5b505050506040513d601f19601f820116820180604052508101906127d19190614e30565b602001516127f15760405162461bcd60e51b8152600401610b5090614eb4565b6040516bffffffffffffffffffffffff193060601b16602082015260009060340160408051601f19818403018152908290528051602090910120600c546301caf8fd60e31b83529092506001600160a01b031690630e57c7e89061285d908490879087906004016151fa565b600060405180830381600087803b15801561287757600080fd5b505af115801561288b573d6000803e3d6000fd5b50505050505050565b600b54600090600160a01b900460ff161561290b5760405162461bcd60e51b815260206004820152603160248201527f455243323054656d706c6174653a20746f6b656e20696e7374616e636520616c6044820152701c9958591e481a5b9a5d1a585b1a5e9959607a1b6064820152608401610b50565b6129bf6129188b8d615274565b8a8a8080602002602001604051908101604052809392919081815260200183836020028082843760009201919091525050604080516020808e0282810182019093528d82529093508d92508c91829185019084908082843760009201919091525050604080516020808d0282810182019093528c82529093508c92508b9182918501908490808284376000920191909152506129ba92508991508a90506152fb565b613caa565b9b9a5050505050505050505050565b43841015612a115760405162461bcd60e51b815260206004820152601060248201526f115490cc8c11150e881156141254915160821b6044820152606401610b50565b6011546001600160a01b038816600090815260126020526040812080549192917f6e71edae12b1b97f4d1f60370fef10105fa2faae0126114a169c64845d6126c9918b918b918b919087612a6483615376565b909155506040805160208101969096526001600160a01b0394851690860152929091166060840152608083015260a082015260c0810187905260e00160405160208183030381529060405280519060200120604051602001612add92919061190160f01b81526002810192909252602282015260420190565b60408051601f198184030181528282528051602091820120600080855291840180845281905260ff88169284019290925260608301869052608083018590529092509060019060a0016020604051602081039080840390855afa158015612b48573d6000803e3d6000fd5b5050604051601f1901519150506001600160a01b03811615801590612b7e5750886001600160a01b0316816001600160a01b0316145b612bca5760405162461bcd60e51b815260206004820152601a60248201527f455243323044543a20494e56414c49445f5349474e41545552450000000000006044820152606401610b50565b612bd5898989612cdf565b505050505050505050565b612be8612c20565b6001600160a01b03166108fc479081150290604051600060405180830381858888f19350505050158015610f0e573d6000803e3d6000fd5b600d546000906001600160a01b0316612ca557600c546040516331a9108f60e11b8152600160048201526001600160a01b0390911690636352211e90602401602060405180830381865afa158015612c7c573d6000803e3d6000fd5b505050506040513d601f19601f82011682018060405250810190612ca09190614f6e565b905090565b50600d546001600160a01b031690565b60068181548110612cc557600080fd5b6000918252602090912001546001600160a01b0316905081565b6001600160a01b038316612d415760405162461bcd60e51b8152602060048201526024808201527f45524332303a20617070726f76652066726f6d20746865207a65726f206164646044820152637265737360e01b6064820152608401610b50565b6001600160a01b038216612da25760405162461bcd60e51b815260206004820152602260248201527f45524332303a20617070726f766520746f20746865207a65726f206164647265604482015261737360f01b6064820152608401610b50565b6001600160a01b0383811660008181526001602090815260408083209487168084529482529182902085905590518481527f8c5be1e5ebec7d5bd14f71427d1e84f3dd0314c0f7b2291e5b200ac8c7c3b925910160405180910390a3505050565b6001600160a01b0381166000908152600560205260409020805460ff1615612e6d5760405162461bcd60e51b815260206004820152601d60248201527f4552433230526f6c65733a2020414c52454144592041204d494e5445520000006044820152606401610b50565b8054600160ff19909116811782556006805491820181556000527ff652222313e28459528d920b65115c16c04f3efc82aaedc97be59f3f377c0d3f0180546001600160a01b0319166001600160a01b038416908117909155604080514281524360208201523392917f4f7e100eb1ee13e903798bd0d6aa854152e07eb05544f392b9409c12935c809591015b60405180910390a35050565b6001600160a01b038316612f695760405162461bcd60e51b815260206004820152602560248201527f45524332303a207472616e736665722066726f6d20746865207a65726f206164604482015264647265737360d81b6064820152608401610b50565b6001600160a01b038216612fcb5760405162461bcd60e51b815260206004820152602360248201527f45524332303a207472616e7366657220746f20746865207a65726f206164647260448201526265737360e81b6064820152608401610b50565b6001600160a01b038316600090815260208190526040902054818110156130435760405162461bcd60e51b815260206004820152602660248201527f45524332303a207472616e7366657220616d6f756e7420657863656564732062604482015265616c616e636560d01b6064820152608401610b50565b6001600160a01b0380851660009081526020819052604080822085850390559185168152908120805484929061307a908490614f56565b92505081905550826001600160a01b0316846001600160a01b03167fddf252ad1be2c89b69c2b068fc378daa952ba7f163c4a11628f55a4df523b3ef846040516130c691815260200190565b60405180910390a35b50505050565b6001600160a01b03811660008181526005602052604090819020805461ff00191681559051909133917faee911eec8b2df8f3ae0464841541b1e5f339519bd5cf51889fe8b07fecff65890612ef99042904390918252602082015260400190565b6001600160a01b03811660008181526005602052604090819020805460ff191681559051909133917fefa2735987005aaa89c050c0ff8cc9ae7d9079d19382081c429130f98c52d48090612ef99042904390918252602082015260400190565b60408051808201909152601c81527f19457468657265756d205369676e6564204d6573736167653a0a33320000000060208201526000816131da60e0850185615391565b6131e7602087018761455f565b6131f7604088016020890161455f565b87604001358860c00135604051602001613216969594939291906153d7565b6040516020818303038152906040528051906020012060405160200161323d929190614fbe565b60408051601f1981840301815291905280516020909101209050600060018261326c6080870160608801615415565b6040805160008152602081018083529390935260ff90911690820152608080870135606083015260a08088013591830191909152016020604051602081039080840390855afa1580156132c3573d6000803e3d6000fd5b5050604051601f19015191506132de9050602085018561455f565b6001600160a01b0316816001600160a01b0316146133355760405162461bcd60e51b8152602060048201526014602482015273496e76616c69642070726f76696465722066656560601b6044820152606401610b50565b613345604085016020860161455f565b6001600160a01b031661335b602086018661455f565b6001600160a01b03167ff8ed11cdaaf10eca2b6c941fb802cb8682afe86cac1eb93f70d0780fa062c544604087013561339760e0890189615391565b6133a760808b0160608c01615415565b8a608001358b60a001358c60c001356040516133c99796959493929190615430565b60405180910390a3600084604001351180156133fe575060006133f2604086016020870161455f565b6001600160a01b031614155b801561342057506000613414602086018661455f565b6001600160a01b031614155b156130cf5760135460408051636c45e88160e01b815290516000926001600160a01b031691636c45e8819160048083019260209291908290030181865afa15801561346f573d6000803e3d6000fd5b505050506040513d601f19601f820116820180604052508101906134939190614f8b565b9050600081156134ba576134b7670de0b6b3a764000061179560408901358561398b565b90505b60006134ca6040880135836139a3565b90506134eb6134df6040890160208a0161455f565b33308a6040013561383d565b61350c6134fb602089018961455f565b826119c860408b0160208c0161455f565b811561288b57600b5461288b906001600160a01b0316836119c860408b0160208c0161455f565b6000610e708284614f56565b6001600160a01b0382166135955760405162461bcd60e51b815260206004820152601f60248201527f45524332303a206d696e7420746f20746865207a65726f2061646472657373006044820152606401610b50565b80600260008282546135a79190614f56565b90915550506001600160a01b038216600090815260208190526040812080548392906135d4908490614f56565b90915550506040518181526001600160a01b038316906000907fddf252ad1be2c89b69c2b068fc378daa952ba7f163c4a11628f55a4df523b3ef9060200160405180910390a35050565b6001600160a01b03821661367e5760405162461bcd60e51b815260206004820152602160248201527f45524332303a206275726e2066726f6d20746865207a65726f206164647265736044820152607360f81b6064820152608401610b50565b6001600160a01b038216600090815260208190526040902054818110156136f25760405162461bcd60e51b815260206004820152602260248201527f45524332303a206275726e20616d6f756e7420657863656564732062616c616e604482015261636560f01b6064820152608401610b50565b6001600160a01b0383166000908152602081905260408120838303905560028054849290613721908490615473565b90915550506040518281526000906001600160a01b038516907fddf252ad1be2c89b69c2b068fc378daa952ba7f163c4a11628f55a4df523b3ef9060200160405180910390a3505050565b60005b6006548110156137d257600060056000600684815481106137925761379261508b565b60009182526020808320909101546001600160a01b031683528201929092526040019020805461ffff1916905550806137ca81615376565b91505061376f565b506137df60066000614483565b6040805142815243602082015233917f712bc71db81927a76b8bf1ea346247bb0ad58f18e4e5c1bd4aa0ec6573e02a2b910160405180910390a2565b600d80546001600160a01b0319166001600160a01b0392909216919091179055565b6040516370a0823160e01b81526001600160a01b038381166004830152600091908616906370a0823190602401602060405180830381865afa158015613887573d6000803e3d6000fd5b505050506040513d601f19601f820116820180604052508101906138ab9190614f8b565b90506138c26001600160a01b038616858585614201565b6138cc8183613533565b6040516370a0823160e01b81526001600160a01b0385811660048301528716906370a0823190602401602060405180830381865afa158015613912573d6000803e3d6000fd5b505050506040513d601f19601f820116820180604052508101906139369190614f8b565b10156139845760405162461bcd60e51b815260206004820152601a60248201527f5472616e7366657220616d6f756e7420697320746f6f206c6f770000000000006044820152606401610b50565b5050505050565b6000610e70828461548a565b6000610e7082846154a9565b6000610e708284615473565b6040516001600160a01b0383166024820152604481018290526115d090849063a9059cbb60e01b906064015b60408051601f198184030181529190526020810180516001600160e01b03166001600160e01b031990931692909217909152614239565b6000806000808451604114613a2d5760009350505050610abc565b50505060208201516040830151604184015160ff16601b811015613a5957613a56601b826154cb565b90505b8060ff16601b14158015613a7157508060ff16601c14155b15613a825760009350505050610abc565b60408051600081526020810180835288905260ff831691810191909152606081018490526080810183905260019060a0016020604051602081039080840390855afa158015613ad5573d6000803e3d6000fd5b5050604051601f190151979650505050505050565b604051636eb1769f60e11b81523060048201526001600160a01b038381166024830152600091839186169063dd62ed3e90604401602060405180830381865afa158015613b3b573d6000803e3d6000fd5b505050506040513d601f19601f82011682018060405250810190613b5f9190614f8b565b613b699190614f56565b6040516001600160a01b0385166024820152604481018290529091506130cf90859063095ea7b360e01b906064016139db565b6001600160a01b03811660009081526005602052604090208054610100900460ff1615613c165760405162461bcd60e51b815260206004820152602260248201527f4552433230526f6c65733a2020414c5245414459204120464545204d414e414760448201526122a960f11b6064820152608401610b50565b805461ff001916610100178155600680546001810182556000919091527ff652222313e28459528d920b65115c16c04f3efc82aaedc97be59f3f377c0d3f0180546001600160a01b0384166001600160a01b03199091168117909155604080514281524360208201523392917fb17da2e9910b4ba5754e8872385ba315a238bafb5ae221fc85093c33432c40a79101612ef9565b60008084600081518110613cc057613cc061508b565b60200260200101519050600085600181518110613cdf57613cdf61508b565b6020026020010151905060006001600160a01b0316826001600160a01b03161415613d615760405162461bcd60e51b815260206004820152602c60248201527f455243323054656d706c6174653a20496e76616c6964206d696e7465722c202060448201526b7a65726f206164647265737360a01b6064820152608401610b50565b6001600160a01b038116613ddd5760405162461bcd60e51b815260206004820152603c60248201527f455243323054656d706c6174653a20496e76616c696420636f6d6d756e69747960448201527f2066656520636f6c6c6563746f722c207a65726f2061646472657373000000006064820152608401610b50565b84600081518110613df057613df061508b565b602002602001015160001415613e545760405162461bcd60e51b8152602060048201526024808201527f44617461746f6b656e54656d706c6174653a20496e76616c6964206361702076604482015263616c756560e01b6064820152608401610b50565b84600081518110613e6757613e6761508b565b6020026020010151600a8190555087600081518110613e8857613e8861508b565b602002602001015160089080519060200190613ea59291906144a1565b5087600181518110613eb957613eb961508b565b602002602001015160099080519060200190613ed69291906144a1565b50600c80546001600160a01b0319166001600160a01b038416179055855186906002908110613f0757613f0761508b565b6020908102919091010151601380546001600160a01b039283166001600160a01b0319909116179055600b80546001600160a81b03191691831691909117600160a01b1790558651613f71908890600090613f6457613f6461508b565b6020026020010151612e03565b60006001600160a01b031687600181518110613f8f57613f8f61508b565b60200260200101516001600160a01b03161461403957613fc887600181518110613fbb57613fbb61508b565b602002602001015161381b565b86600181518110613fdb57613fdb61508b565b60200260200101516001600160a01b0316336001600160a01b03167f4d7694d695c57cc54947177c8e8a0e61aae664e9223492a798c32fadfc6419cc4243604051614030929190918252602082015260400190565b60405180910390a35b8660028151811061404c5761404c61508b565b6020026020010151600e60006101000a8154816001600160a01b0302191690836001600160a01b031602179055508660038151811061408d5761408d61508b565b6020026020010151600f60006101000a8154816001600160a01b0302191690836001600160a01b03160217905550846001815181106140ce576140ce61508b565b6020908102919091018101516010819055600e54600f54604080513381526001600160a01b039384169581019590955291169083015260608201527f02ab4b3fc023109c2d0da394bda239166c833f63c42b71b67ed4b836dca0ddfe9060800160405180910390a160405146907f8b73c3c69bb8fe3d512ecc4cf759cc79239f7b179b0ffacaa9a75d522b39400f90614169906008906154f0565b60408051918290038220828201825260018352603160f81b6020938401528151928301939093528101919091527fc89efdaa54c0f20c7adf612882df0950f5a951637e0307cdcb4c672f298b8bc66060820152608081018290523060a082015260c00160408051808303601f1901815291905280516020909101206011555050600b54600160a01b900460ff16979650505050505050565b6040516001600160a01b03808516602483015283166044820152606481018290526130cf9085906323b872dd60e01b906084016139db565b600061428e826040518060400160405280602081526020017f5361666545524332303a206c6f772d6c6576656c2063616c6c206661696c6564815250856001600160a01b031661430b9092919063ffffffff16565b8051909150156115d057808060200190518101906142ac919061558c565b6115d05760405162461bcd60e51b815260206004820152602a60248201527f5361666545524332303a204552433230206f7065726174696f6e20646964206e6044820152691bdd081cdd58d8d9595960b21b6064820152608401610b50565b606061431a8484600085614322565b949350505050565b6060824710156143835760405162461bcd60e51b815260206004820152602660248201527f416464726573733a20696e73756666696369656e742062616c616e636520666f6044820152651c8818d85b1b60d21b6064820152608401610b50565b843b6143d15760405162461bcd60e51b815260206004820152601d60248201527f416464726573733a2063616c6c20746f206e6f6e2d636f6e74726163740000006044820152606401610b50565b600080866001600160a01b031685876040516143ed91906155a9565b60006040518083038185875af1925050503d806000811461442a576040519150601f19603f3d011682016040523d82523d6000602084013e61442f565b606091505b509150915061443f82828661444a565b979650505050505050565b60608315614459575081610e70565b8251156144695782518084602001fd5b8160405162461bcd60e51b8152600401610b5091906145a8565b5080546000825590600052602060002090810190610f0e9190614525565b8280546144ad90614dfb565b90600052602060002090601f0160209004810192826144cf5760008555614515565b82601f106144e857805160ff1916838001178555614515565b82800160010185558215614515579182015b828111156145155782518255916020019190600101906144fa565b50614521929150614525565b5090565b5b808211156145215760008155600101614526565b6001600160a01b0381168114610f0e57600080fd5b803561455a8161453a565b919050565b60006020828403121561457157600080fd5b8135610e708161453a565b60005b8381101561459757818101518382015260200161457f565b838111156130cf5750506000910152565b60208152600082518060208401526145c781604085016020870161457c565b601f01601f19169190910160400192915050565b600080604083850312156145ee57600080fd5b82356145f98161453a565b946020939093013593505050565b8015158114610f0e57600080fd5b600080600080600060a0868803121561462d57600080fd5b85356146388161453a565b94506020860135935060408601359250606086013561465681614607565b915060808601356146668161453a565b809150509295509295909350565b600060c0828403121561468657600080fd5b50919050565b6000806040838503121561469f57600080fd5b82356001600160401b038111156146b557600080fd5b6146c185828601614674565b92505060208301356146d28161453a565b809150509250929050565b6000806000606084860312156146f257600080fd5b83356146fd8161453a565b9250602084013561470d8161453a565b929592945050506040919091013590565b6000610100828403121561468657600080fd5b6000806040838503121561474457600080fd5b8235915060208301356001600160401b0381111561476157600080fd5b61476d8582860161471e565b9150509250929050565b60006020828403121561478957600080fd5b5035919050565b600081518084526020808501945080840160005b838110156147c95781516001600160a01b0316875295820195908201906001016147a4565b509495945050505050565b602081526000610e706020830184614790565b60008060008084860360c08112156147fe57600080fd5b85356148098161453a565b94506020860135935060408601356001600160401b0381111561482b57600080fd5b6148378882890161471e565b9350506060605f198201121561484c57600080fd5b509295919450926060019150565b602080825282518282018190526000919060409081850190868401855b828110156148a557815180516001600160a01b03168552860151868501529284019290850190600101614877565b5091979650505050505050565b60008083601f8401126148c457600080fd5b5081356001600160401b038111156148db57600080fd5b6020830191508360208285010111156148f357600080fd5b9250929050565b60008060008060008060008060008060c08b8d03121561491957600080fd5b8a35995060208b01356001600160401b038082111561493757600080fd5b6149438e838f016148b2565b909b50995060408d013591508082111561495c57600080fd5b6149688e838f016148b2565b909950975060608d013591508082111561498157600080fd5b61498d8e838f016148b2565b909750955060808d01359150808211156149a657600080fd5b506149b38d828e016148b2565b90945092506149c6905060a08c0161454f565b90509295989b9194979a5092959850565b634e487b7160e01b600052604160045260246000fd5b604051601f8201601f191681016001600160401b0381118282101715614a1557614a156149d7565b604052919050565b60006001600160401b03821115614a3657614a366149d7565b5060051b60200190565b600082601f830112614a5157600080fd5b81356020614a66614a6183614a1d565b6149ed565b82815260059290921b84018101918181019086841115614a8557600080fd5b8286015b84811015614aa05780358352918301918301614a89565b509695505050505050565b600080600060608486031215614ac057600080fd5b8335614acb8161453a565b92506020848101356001600160401b0380821115614ae857600080fd5b818701915087601f830112614afc57600080fd5b8135614b0a614a6182614a1d565b81815260059190911b8301840190848101908a831115614b2957600080fd5b938501935b82851015614b50578435614b418161453a565b82529385019390850190614b2e565b965050506040870135925080831115614b6857600080fd5b5050614b7686828701614a40565b9150509250925092565b60008082840360c0811215614b9457600080fd5b83356001600160401b03811115614baa57600080fd5b614bb686828701614674565b93505060a0601f1982011215614bcb57600080fd5b506020830190509250929050565b60008060208385031215614bec57600080fd5b82356001600160401b03811115614c0257600080fd5b614c0e858286016148b2565b90969095509350505050565b60008083601f840112614c2c57600080fd5b5081356001600160401b03811115614c4357600080fd5b6020830191508360208260051b85010111156148f357600080fd5b60008060008060008060008060008060a08b8d031215614c7d57600080fd5b8a356001600160401b0380821115614c9457600080fd5b614ca08e838f01614c1a565b909c509a5060208d0135915080821115614cb957600080fd5b614cc58e838f01614c1a565b909a50985060408d0135915080821115614cde57600080fd5b614cea8e838f01614c1a565b909850965060608d0135915080821115614d0357600080fd5b614d0f8e838f01614c1a565b909650945060808d0135915080821115614d2857600080fd5b50614d358d828e01614c1a565b915080935050809150509295989b9194979a5092959850565b803560ff8116811461455a57600080fd5b600080600080600080600060e0888a031215614d7a57600080fd5b8735614d858161453a565b96506020880135614d958161453a565b95506040880135945060608801359350614db160808901614d4e565b925060a0880135915060c0880135905092959891949750929550565b60008060408385031215614de057600080fd5b8235614deb8161453a565b915060208301356146d28161453a565b600181811c90821680614e0f57607f821691505b6020821081141561468657634e487b7160e01b600052602260045260246000fd5b600060808284031215614e4257600080fd5b604051608081018181106001600160401b0382111715614e6457614e646149d7565b6040528251614e7281614607565b81526020830151614e8281614607565b60208201526040830151614e9581614607565b60408201526060830151614ea881614607565b60608201529392505050565b6020808252818101527f455243323054656d706c6174653a204e4f54204445504c4f59455220524f4c45604082015260600190565b6020808252601f908201527f5265656e7472616e637947756172643a207265656e7472616e742063616c6c00604082015260600190565b6000823560fe19833603018112614f3657600080fd5b9190910192915050565b634e487b7160e01b600052601160045260246000fd5b60008219821115614f6957614f69614f40565b500190565b600060208284031215614f8057600080fd5b8151610e708161453a565b600060208284031215614f9d57600080fd5b5051919050565b838152818360208301376000910160200190815292915050565b60008351614fd081846020880161457c565b9190910191825250602001919050565b8183823760009101908152919050565b81835281816020850137506000828201602090810191909152601f909101601f19169091010190565b8b815260e06020820152600061503360e083018c8e614ff0565b8281036040840152615046818b8d614ff0565b9050828103606084015261505b81898b614ff0565b90508281036080840152615070818789614ff0565b60a0840195909552505060c001529998505050505050505050565b634e487b7160e01b600052603260045260246000fd5b6001600160a01b0384168152606060208083018290526000916150c690840186614790565b838103604085015284518082528286019183019060005b818110156150f9578351835292840192918401916001016150dd565b509098975050505050505050565b6000806000806000806000806000806000806101808d8f03121561512a57600080fd5b8c516151358161453a565b60208e0151909c506151468161453a565b60408e015160608f0151919c509a5061515e8161453a565b8099505060808d0151975060a08d0151965060c08d015161517e81614607565b8096505060e08d015194506101008d015193506101208d015192506101408d015191506101608d01516151b081614607565b809150509295989b509295989b509295989b565b600080600080608085870312156151da57600080fd5b505082516020840151604085015160609095015191969095509092509050565b838152604060208201526000615214604083018486614ff0565b95945050505050565b60006001600160401b03831115615236576152366149d7565b615249601f8401601f19166020016149ed565b905082815283838301111561525d57600080fd5b828260208301376000602084830101529392505050565b6000615282614a6184614a1d565b80848252602080830192508560051b8501368111156152a057600080fd5b855b818110156152ef5780356001600160401b038111156152c15760008081fd5b870136601f8201126152d35760008081fd5b6152e136823586840161521d565b8652509382019382016152a2565b50919695505050505050565b6000615309614a6184614a1d565b80848252602080830192508560051b85013681111561532757600080fd5b855b818110156152ef5780356001600160401b038111156153485760008081fd5b870136601f82011261535a5760008081fd5b61536836823586840161521d565b865250938201938201615329565b600060001982141561538a5761538a614f40565b5060010190565b6000808335601e198436030181126153a857600080fd5b8301803591506001600160401b038211156153c257600080fd5b6020019150368190038213156148f357600080fd5b858782376bffffffffffffffffffffffff19606095861b8116969091019586529290931b909116601484015260288301526048820152606801919050565b60006020828403121561542757600080fd5b610e7082614d4e565b87815260c06020820152600061544a60c08301888a614ff0565b905060ff861660408301528460608301528360808301528260a083015298975050505050505050565b60008282101561548557615485614f40565b500390565b60008160001904831182151516156154a4576154a4614f40565b500290565b6000826154c657634e487b7160e01b600052601260045260246000fd5b500490565b600060ff821660ff84168060ff038211156154e8576154e8614f40565b019392505050565b600080835481600182811c91508083168061550c57607f831692505b602080841082141561552c57634e487b7160e01b86526022600452602486fd5b81801561554057600181146155515761557e565b60ff1986168952848901965061557e565b60008a81526020902060005b868110156155765781548b82015290850190830161555d565b505084890196505b509498975050505050505050565b60006020828403121561559e57600080fd5b8151610e7081614607565b60008251614f3681846020870161457c56fea2646970667358221220571529be0bfe917ae217768530d1844b2d6cb8be5d9650967b8bf0ec2b8d1bdd64736f6c634300080a0033",
  "linkReferences": {},
  "deployedLinkReferences": {}
}