{
  "_format": "hh-sol-artifact-1",
  "contractName": "ERC20Template",
  "sourceName": "contracts/templates/ERC20Template.sol",
  "abi": [
    {
      "anonymous": false,
      "inputs": [
        {
          "indexed": true,
          "internalType": "address",
          "name": "user",
          "type": "address"
        },
        {
          "indexed": true,
          "internalType": "address",
          "name": "signer",
          "type": "address"
        },
        {
          "indexed": false,
          "internalType": "uint256",
          "name": "timestamp",
          "type": "uint256"
        },
        {
          "indexed": false,
          "internalType": "uint256",
          "name": "blockNumber",
          "type": "uint256"
        }
      ],
      "name": "AddedMinter",
      "type": "event"
    },
    {
      "anonymous": false,
      "inputs": [
        {
          "indexed": true,
          "internalType": "address",
          "name": "user",
          "type": "address"
        },
        {
          "indexed": true,
          "internalType": "address",
          "name": "signer",
          "type": "address"
        },
        {
          "indexed": false,
          "internalType": "uint256",
          "name": "timestamp",
          "type": "uint256"
        },
        {
          "indexed": false,
          "internalType": "uint256",
          "name": "blockNumber",
          "type": "uint256"
        }
      ],
      "name": "AddedPaymentManager",
      "type": "event"
    },
    {
      "anonymous": false,
      "inputs": [
        {
          "indexed": true,
          "internalType": "address",
          "name": "owner",
          "type": "address"
        },
        {
          "indexed": true,
          "internalType": "address",
          "name": "spender",
          "type": "address"
        },
        {
          "indexed": false,
          "internalType": "uint256",
          "name": "value",
          "type": "uint256"
        }
      ],
      "name": "Approval",
      "type": "event"
    },
    {
      "anonymous": false,
      "inputs": [
        {
          "indexed": true,
          "internalType": "address",
          "name": "signer",
          "type": "address"
        },
        {
          "indexed": false,
          "internalType": "uint256",
          "name": "timestamp",
          "type": "uint256"
        },
        {
          "indexed": false,
          "internalType": "uint256",
          "name": "blockNumber",
          "type": "uint256"
        }
      ],
      "name": "CleanedPermissions",
      "type": "event"
    },
    {
      "anonymous": false,
      "inputs": [
        {
          "indexed": true,
          "internalType": "address",
          "name": "consumeMarketFeeAddress",
          "type": "address"
        },
        {
          "indexed": true,
          "internalType": "address",
          "name": "consumeMarketFeeToken",
          "type": "address"
        },
        {
          "indexed": false,
          "internalType": "uint256",
          "name": "consumeMarketFeeAmount",
          "type": "uint256"
        }
      ],
      "name": "ConsumeMarketFee",
      "type": "event"
    },
    {
      "anonymous": false,
      "inputs": [
        {
          "indexed": false,
          "internalType": "address",
          "name": "currentMinter",
          "type": "address"
        },
        {
          "indexed": false,
          "internalType": "address",
          "name": "newMinter",
          "type": "address"
        }
      ],
      "name": "MinterApproved",
      "type": "event"
    },
    {
      "anonymous": false,
      "inputs": [
        {
          "indexed": false,
          "internalType": "address",
          "name": "currentMinter",
          "type": "address"
        },
        {
          "indexed": false,
          "internalType": "address",
          "name": "newMinter",
          "type": "address"
        }
      ],
      "name": "MinterProposed",
      "type": "event"
    },
    {
      "anonymous": false,
      "inputs": [
        {
          "indexed": false,
          "internalType": "address",
          "name": "dispenserContract",
          "type": "address"
        }
      ],
      "name": "NewDispenser",
      "type": "event"
    },
    {
      "anonymous": false,
      "inputs": [
        {
          "indexed": false,
          "internalType": "bytes32",
          "name": "exchangeId",
          "type": "bytes32"
        },
        {
          "indexed": true,
          "internalType": "address",
          "name": "owner",
          "type": "address"
        },
        {
          "indexed": false,
          "internalType": "address",
          "name": "exchangeContract",
          "type": "address"
        },
        {
          "indexed": true,
          "internalType": "address",
          "name": "baseToken",
          "type": "address"
        }
      ],
      "name": "NewFixedRate",
      "type": "event"
    },
    {
      "anonymous": false,
      "inputs": [
        {
          "indexed": true,
          "internalType": "address",
          "name": "caller",
          "type": "address"
        },
        {
          "indexed": true,
          "internalType": "address",
          "name": "_newPaymentCollector",
          "type": "address"
        },
        {
          "indexed": false,
          "internalType": "uint256",
          "name": "timestamp",
          "type": "uint256"
        },
        {
          "indexed": false,
          "internalType": "uint256",
          "name": "blockNumber",
          "type": "uint256"
        }
      ],
      "name": "NewPaymentCollector",
      "type": "event"
    },
    {
      "anonymous": false,
      "inputs": [
        {
          "indexed": false,
          "internalType": "address",
          "name": "poolAddress",
          "type": "address"
        },
        {
          "indexed": false,
          "internalType": "address",
          "name": "ssContract",
          "type": "address"
        },
        {
          "indexed": false,
          "internalType": "address",
          "name": "baseTokenAddress",
          "type": "address"
        }
      ],
      "name": "NewPool",
      "type": "event"
    },
    {
      "anonymous": false,
      "inputs": [
        {
          "indexed": true,
          "internalType": "address",
          "name": "providerAddress",
          "type": "address"
        },
        {
          "indexed": true,
          "internalType": "address",
          "name": "consumerAddress",
          "type": "address"
        },
        {
          "indexed": false,
          "internalType": "bytes32",
          "name": "orderTxId",
          "type": "bytes32"
        },
        {
          "indexed": false,
          "internalType": "bytes",
          "name": "providerData",
          "type": "bytes"
        },
        {
          "indexed": false,
          "internalType": "bytes",
          "name": "providerSignature",
          "type": "bytes"
        },
        {
          "indexed": false,
          "internalType": "bytes",
          "name": "consumerData",
          "type": "bytes"
        },
        {
          "indexed": false,
          "internalType": "bytes",
          "name": "consumerSignature",
          "type": "bytes"
        },
        {
          "indexed": false,
          "internalType": "uint256",
          "name": "timestamp",
          "type": "uint256"
        },
        {
          "indexed": false,
          "internalType": "uint256",
          "name": "blockNumber",
          "type": "uint256"
        }
      ],
      "name": "OrderExecuted",
      "type": "event"
    },
    {
      "anonymous": false,
      "inputs": [
        {
          "indexed": false,
          "internalType": "bytes32",
          "name": "orderTxId",
          "type": "bytes32"
        },
        {
          "indexed": false,
          "internalType": "address",
          "name": "caller",
          "type": "address"
        },
        {
          "indexed": false,
          "internalType": "uint256",
          "name": "timestamp",
          "type": "uint256"
        },
        {
          "indexed": false,
          "internalType": "uint256",
          "name": "number",
          "type": "uint256"
        }
      ],
      "name": "OrderReused",
      "type": "event"
    },
    {
      "anonymous": false,
      "inputs": [
        {
          "indexed": true,
          "internalType": "address",
          "name": "consumer",
          "type": "address"
        },
        {
          "indexed": false,
          "internalType": "address",
          "name": "payer",
          "type": "address"
        },
        {
          "indexed": false,
          "internalType": "uint256",
          "name": "amount",
          "type": "uint256"
        },
        {
          "indexed": false,
          "internalType": "uint256",
          "name": "serviceIndex",
          "type": "uint256"
        },
        {
          "indexed": false,
          "internalType": "uint256",
          "name": "timestamp",
          "type": "uint256"
        },
        {
          "indexed": true,
          "internalType": "address",
          "name": "publishMarketAddress",
          "type": "address"
        },
        {
          "indexed": false,
          "internalType": "uint256",
          "name": "blockNumber",
          "type": "uint256"
        }
      ],
      "name": "OrderStarted",
      "type": "event"
    },
    {
      "anonymous": false,
      "inputs": [
        {
          "indexed": true,
          "internalType": "address",
          "name": "providerFeeAddress",
          "type": "address"
        },
        {
          "indexed": true,
          "internalType": "address",
          "name": "providerFeeToken",
          "type": "address"
        },
        {
          "indexed": false,
          "internalType": "uint256",
          "name": "providerFeeAmount",
          "type": "uint256"
        },
        {
          "indexed": false,
          "internalType": "bytes",
          "name": "providerData",
          "type": "bytes"
        },
        {
          "indexed": false,
          "internalType": "uint8",
          "name": "v",
          "type": "uint8"
        },
        {
          "indexed": false,
          "internalType": "bytes32",
          "name": "r",
          "type": "bytes32"
        },
        {
          "indexed": false,
          "internalType": "bytes32",
          "name": "s",
          "type": "bytes32"
        },
        {
          "indexed": false,
          "internalType": "uint256",
          "name": "validUntil",
          "type": "uint256"
        }
      ],
      "name": "ProviderFee",
      "type": "event"
    },
    {
      "anonymous": false,
      "inputs": [
        {
          "indexed": true,
          "internalType": "address",
          "name": "PublishMarketFeeAddress",
          "type": "address"
        },
        {
          "indexed": true,
          "internalType": "address",
          "name": "PublishMarketFeeToken",
          "type": "address"
        },
        {
          "indexed": false,
          "internalType": "uint256",
          "name": "PublishMarketFeeAmount",
          "type": "uint256"
        }
      ],
      "name": "PublishMarketFee",
      "type": "event"
    },
    {
      "anonymous": false,
      "inputs": [
        {
          "indexed": false,
          "internalType": "address",
          "name": "caller",
          "type": "address"
        },
        {
          "indexed": false,
          "internalType": "address",
          "name": "PublishMarketFeeAddress",
          "type": "address"
        },
        {
          "indexed": false,
          "internalType": "address",
          "name": "PublishMarketFeeToken",
          "type": "address"
        },
        {
          "indexed": false,
          "internalType": "uint256",
          "name": "PublishMarketFeeAmount",
          "type": "uint256"
        }
      ],
      "name": "PublishMarketFeeChanged",
      "type": "event"
    },
    {
      "anonymous": false,
      "inputs": [
        {
          "indexed": true,
          "internalType": "address",
          "name": "user",
          "type": "address"
        },
        {
          "indexed": true,
          "internalType": "address",
          "name": "signer",
          "type": "address"
        },
        {
          "indexed": false,
          "internalType": "uint256",
          "name": "timestamp",
          "type": "uint256"
        },
        {
          "indexed": false,
          "internalType": "uint256",
          "name": "blockNumber",
          "type": "uint256"
        }
      ],
      "name": "RemovedMinter",
      "type": "event"
    },
    {
      "anonymous": false,
      "inputs": [
        {
          "indexed": true,
          "internalType": "address",
          "name": "user",
          "type": "address"
        },
        {
          "indexed": true,
          "internalType": "address",
          "name": "signer",
          "type": "address"
        },
        {
          "indexed": false,
          "internalType": "uint256",
          "name": "timestamp",
          "type": "uint256"
        },
        {
          "indexed": false,
          "internalType": "uint256",
          "name": "blockNumber",
          "type": "uint256"
        }
      ],
      "name": "RemovedPaymentManager",
      "type": "event"
    },
    {
      "anonymous": false,
      "inputs": [
        {
          "indexed": true,
          "internalType": "address",
          "name": "from",
          "type": "address"
        },
        {
          "indexed": true,
          "internalType": "address",
          "name": "to",
          "type": "address"
        },
        {
          "indexed": false,
          "internalType": "uint256",
          "name": "value",
          "type": "uint256"
        }
      ],
      "name": "Transfer",
      "type": "event"
    },
    {
      "anonymous": false,
      "inputs": [
        {
          "indexed": true,
          "internalType": "address",
          "name": "datatokenAddress",
          "type": "address"
        },
        {
          "indexed": true,
          "internalType": "address",
          "name": "publisherAddress",
          "type": "address"
        },
        {
          "indexed": false,
          "internalType": "uint256",
          "name": "vestingEndBlock",
          "type": "uint256"
        },
        {
          "indexed": false,
          "internalType": "uint256",
          "name": "totalVestingAmount",
          "type": "uint256"
        }
      ],
      "name": "VestingCreated",
      "type": "event"
    },
    {
      "stateMutability": "payable",
      "type": "fallback"
    },
    {
      "inputs": [],
      "name": "BASE",
      "outputs": [
        {
          "internalType": "uint256",
          "name": "",
          "type": "uint256"
        }
      ],
      "stateMutability": "view",
      "type": "function"
    },
    {
      "inputs": [],
      "name": "DOMAIN_SEPARATOR",
      "outputs": [
        {
          "internalType": "bytes32",
          "name": "",
          "type": "bytes32"
        }
      ],
      "stateMutability": "view",
      "type": "function"
    },
    {
      "inputs": [],
      "name": "PERMIT_TYPEHASH",
      "outputs": [
        {
          "internalType": "bytes32",
          "name": "",
          "type": "bytes32"
        }
      ],
      "stateMutability": "view",
      "type": "function"
    },
    {
      "inputs": [
        {
          "internalType": "address",
          "name": "_minter",
          "type": "address"
        }
      ],
      "name": "addMinter",
      "outputs": [],
      "stateMutability": "nonpayable",
      "type": "function"
    },
    {
      "inputs": [
        {
          "internalType": "address",
          "name": "_paymentManager",
          "type": "address"
        }
      ],
      "name": "addPaymentManager",
      "outputs": [],
      "stateMutability": "nonpayable",
      "type": "function"
    },
    {
      "inputs": [
        {
          "internalType": "address",
          "name": "owner",
          "type": "address"
        },
        {
          "internalType": "address",
          "name": "spender",
          "type": "address"
        }
      ],
      "name": "allowance",
      "outputs": [
        {
          "internalType": "uint256",
          "name": "",
          "type": "uint256"
        }
      ],
      "stateMutability": "view",
      "type": "function"
    },
    {
      "inputs": [
        {
          "internalType": "address",
          "name": "spender",
          "type": "address"
        },
        {
          "internalType": "uint256",
          "name": "amount",
          "type": "uint256"
        }
      ],
      "name": "approve",
      "outputs": [
        {
          "internalType": "bool",
          "name": "",
          "type": "bool"
        }
      ],
      "stateMutability": "nonpayable",
      "type": "function"
    },
    {
      "inputs": [
        {
          "internalType": "uint256",
          "name": "",
          "type": "uint256"
        }
      ],
      "name": "authERC20",
      "outputs": [
        {
          "internalType": "address",
          "name": "",
          "type": "address"
        }
      ],
      "stateMutability": "view",
      "type": "function"
    },
    {
      "inputs": [
        {
          "internalType": "address",
          "name": "account",
          "type": "address"
        }
      ],
      "name": "balanceOf",
      "outputs": [
        {
          "internalType": "uint256",
          "name": "",
          "type": "uint256"
        }
      ],
      "stateMutability": "view",
      "type": "function"
    },
    {
      "inputs": [
        {
          "internalType": "uint256",
          "name": "amount",
          "type": "uint256"
        }
      ],
      "name": "burn",
      "outputs": [],
      "stateMutability": "nonpayable",
      "type": "function"
    },
    {
      "inputs": [
        {
          "internalType": "address",
          "name": "account",
          "type": "address"
        },
        {
          "internalType": "uint256",
          "name": "amount",
          "type": "uint256"
        }
      ],
      "name": "burnFrom",
      "outputs": [],
      "stateMutability": "nonpayable",
      "type": "function"
    },
    {
      "inputs": [],
      "name": "cap",
      "outputs": [
        {
          "internalType": "uint256",
          "name": "",
          "type": "uint256"
        }
      ],
      "stateMutability": "view",
      "type": "function"
    },
    {
      "inputs": [],
      "name": "cleanFrom721",
      "outputs": [],
      "stateMutability": "nonpayable",
      "type": "function"
    },
    {
      "inputs": [],
      "name": "cleanPermissions",
      "outputs": [],
      "stateMutability": "nonpayable",
      "type": "function"
    },
    {
      "inputs": [
        {
          "internalType": "address",
          "name": "_dispenser",
          "type": "address"
        },
        {
          "internalType": "uint256",
          "name": "maxTokens",
          "type": "uint256"
        },
        {
          "internalType": "uint256",
          "name": "maxBalance",
          "type": "uint256"
        },
        {
          "internalType": "bool",
          "name": "withMint",
          "type": "bool"
        },
        {
          "internalType": "address",
          "name": "allowedSwapper",
          "type": "address"
        }
      ],
      "name": "createDispenser",
      "outputs": [],
      "stateMutability": "nonpayable",
      "type": "function"
    },
    {
      "inputs": [
        {
          "internalType": "address",
          "name": "fixedPriceAddress",
          "type": "address"
        },
        {
          "internalType": "address[]",
          "name": "addresses",
          "type": "address[]"
        },
        {
          "internalType": "uint256[]",
          "name": "uints",
          "type": "uint256[]"
        }
      ],
      "name": "createFixedRate",
      "outputs": [
        {
          "internalType": "bytes32",
          "name": "exchangeId",
          "type": "bytes32"
        }
      ],
      "stateMutability": "nonpayable",
      "type": "function"
    },
    {
      "inputs": [],
      "name": "decimals",
      "outputs": [
        {
          "internalType": "uint8",
          "name": "",
          "type": "uint8"
        }
      ],
      "stateMutability": "pure",
      "type": "function"
    },
    {
      "inputs": [
        {
          "internalType": "address",
          "name": "spender",
          "type": "address"
        },
        {
          "internalType": "uint256",
          "name": "subtractedValue",
          "type": "uint256"
        }
      ],
      "name": "decreaseAllowance",
      "outputs": [
        {
          "internalType": "bool",
          "name": "",
          "type": "bool"
        }
      ],
      "stateMutability": "nonpayable",
      "type": "function"
    },
    {
      "inputs": [
        {
          "internalType": "uint256[]",
          "name": "ssParams",
          "type": "uint256[]"
        },
        {
          "internalType": "uint256[]",
          "name": "swapFees",
          "type": "uint256[]"
        },
        {
          "internalType": "address[]",
          "name": "addresses",
          "type": "address[]"
        }
      ],
      "name": "deployPool",
      "outputs": [
        {
          "internalType": "address",
          "name": "pool",
          "type": "address"
        }
      ],
      "stateMutability": "nonpayable",
      "type": "function"
    },
    {
      "inputs": [],
      "name": "getDispensers",
      "outputs": [
        {
          "internalType": "address[]",
          "name": "",
          "type": "address[]"
        }
      ],
      "stateMutability": "view",
      "type": "function"
    },
    {
      "inputs": [],
      "name": "getERC721Address",
      "outputs": [
        {
          "internalType": "address",
          "name": "",
          "type": "address"
        }
      ],
      "stateMutability": "view",
      "type": "function"
    },
    {
      "inputs": [],
      "name": "getFixedRates",
      "outputs": [
        {
          "components": [
            {
              "internalType": "address",
              "name": "contractAddress",
              "type": "address"
            },
            {
              "internalType": "bytes32",
              "name": "id",
              "type": "bytes32"
            }
          ],
          "internalType": "struct ERC20Template.fixedRate[]",
          "name": "",
          "type": "tuple[]"
        }
      ],
      "stateMutability": "view",
      "type": "function"
    },
    {
      "inputs": [],
      "name": "getId",
      "outputs": [
        {
          "internalType": "uint8",
          "name": "",
          "type": "uint8"
        }
      ],
      "stateMutability": "pure",
      "type": "function"
    },
    {
      "inputs": [],
      "name": "getPaymentCollector",
      "outputs": [
        {
          "internalType": "address",
          "name": "",
          "type": "address"
        }
      ],
      "stateMutability": "view",
      "type": "function"
    },
    {
      "inputs": [
        {
          "internalType": "address",
          "name": "user",
          "type": "address"
        }
      ],
      "name": "getPermissions",
      "outputs": [
        {
          "components": [
            {
              "internalType": "bool",
              "name": "minter",
              "type": "bool"
            },
            {
              "internalType": "bool",
              "name": "paymentManager",
              "type": "bool"
            }
          ],
          "internalType": "struct ERC20Roles.RolesERC20",
          "name": "",
          "type": "tuple"
        }
      ],
      "stateMutability": "view",
      "type": "function"
    },
    {
      "inputs": [],
      "name": "getPools",
      "outputs": [
        {
          "internalType": "address[]",
          "name": "",
          "type": "address[]"
        }
      ],
      "stateMutability": "view",
      "type": "function"
    },
    {
      "inputs": [],
      "name": "getPublishingMarketFee",
      "outputs": [
        {
          "internalType": "address",
          "name": "",
          "type": "address"
        },
        {
          "internalType": "address",
          "name": "",
          "type": "address"
        },
        {
          "internalType": "uint256",
          "name": "",
          "type": "uint256"
        }
      ],
      "stateMutability": "view",
      "type": "function"
    },
    {
      "inputs": [
        {
          "internalType": "address",
          "name": "spender",
          "type": "address"
        },
        {
          "internalType": "uint256",
          "name": "addedValue",
          "type": "uint256"
        }
      ],
      "name": "increaseAllowance",
      "outputs": [
        {
          "internalType": "bool",
          "name": "",
          "type": "bool"
        }
      ],
      "stateMutability": "nonpayable",
      "type": "function"
    },
    {
      "inputs": [
        {
          "internalType": "string[]",
          "name": "strings_",
          "type": "string[]"
        },
        {
          "internalType": "address[]",
          "name": "addresses_",
          "type": "address[]"
        },
        {
          "internalType": "address[]",
          "name": "factoryAddresses_",
          "type": "address[]"
        },
        {
          "internalType": "uint256[]",
          "name": "uints_",
          "type": "uint256[]"
        },
        {
          "internalType": "bytes[]",
          "name": "bytes_",
          "type": "bytes[]"
        }
      ],
      "name": "initialize",
      "outputs": [
        {
          "internalType": "bool",
          "name": "",
          "type": "bool"
        }
      ],
      "stateMutability": "nonpayable",
      "type": "function"
    },
    {
      "inputs": [
        {
          "internalType": "address",
          "name": "user",
          "type": "address"
        }
      ],
      "name": "isERC20Deployer",
      "outputs": [
        {
          "internalType": "bool",
          "name": "deployer",
          "type": "bool"
        }
      ],
      "stateMutability": "nonpayable",
      "type": "function"
    },
    {
      "inputs": [],
      "name": "isInitialized",
      "outputs": [
        {
          "internalType": "bool",
          "name": "",
          "type": "bool"
        }
      ],
      "stateMutability": "view",
      "type": "function"
    },
    {
      "inputs": [
        {
          "internalType": "address",
          "name": "account",
          "type": "address"
        }
      ],
      "name": "isMinter",
      "outputs": [
        {
          "internalType": "bool",
          "name": "",
          "type": "bool"
        }
      ],
      "stateMutability": "view",
      "type": "function"
    },
    {
      "inputs": [
        {
          "internalType": "address",
          "name": "account",
          "type": "address"
        },
        {
          "internalType": "uint256",
          "name": "value",
          "type": "uint256"
        }
      ],
      "name": "mint",
      "outputs": [],
      "stateMutability": "nonpayable",
      "type": "function"
    },
    {
      "inputs": [],
      "name": "name",
      "outputs": [
        {
          "internalType": "string",
          "name": "",
          "type": "string"
        }
      ],
      "stateMutability": "view",
      "type": "function"
    },
    {
      "inputs": [
        {
          "internalType": "address",
          "name": "",
          "type": "address"
        }
      ],
      "name": "nonces",
      "outputs": [
        {
          "internalType": "uint256",
          "name": "",
          "type": "uint256"
        }
      ],
      "stateMutability": "view",
      "type": "function"
    },
    {
      "inputs": [
        {
          "internalType": "bytes32",
          "name": "orderTxId",
          "type": "bytes32"
        },
        {
          "internalType": "bytes",
          "name": "providerData",
          "type": "bytes"
        },
        {
          "internalType": "bytes",
          "name": "providerSignature",
          "type": "bytes"
        },
        {
          "internalType": "bytes",
          "name": "consumerData",
          "type": "bytes"
        },
        {
          "internalType": "bytes",
          "name": "consumerSignature",
          "type": "bytes"
        },
        {
          "internalType": "address",
          "name": "consumerAddress",
          "type": "address"
        }
      ],
      "name": "orderExecuted",
      "outputs": [],
      "stateMutability": "nonpayable",
      "type": "function"
    },
    {
      "inputs": [
        {
          "internalType": "address",
          "name": "",
          "type": "address"
        }
      ],
      "name": "permissions",
      "outputs": [
        {
          "internalType": "bool",
          "name": "minter",
          "type": "bool"
        },
        {
          "internalType": "bool",
          "name": "paymentManager",
          "type": "bool"
        }
      ],
      "stateMutability": "view",
      "type": "function"
    },
    {
      "inputs": [
        {
          "internalType": "address",
          "name": "owner",
          "type": "address"
        },
        {
          "internalType": "address",
          "name": "spender",
          "type": "address"
        },
        {
          "internalType": "uint256",
          "name": "value",
          "type": "uint256"
        },
        {
          "internalType": "uint256",
          "name": "deadline",
          "type": "uint256"
        },
        {
          "internalType": "uint8",
          "name": "v",
          "type": "uint8"
        },
        {
          "internalType": "bytes32",
          "name": "r",
          "type": "bytes32"
        },
        {
          "internalType": "bytes32",
          "name": "s",
          "type": "bytes32"
        }
      ],
      "name": "permit",
      "outputs": [],
      "stateMutability": "nonpayable",
      "type": "function"
    },
    {
      "inputs": [
        {
          "internalType": "address",
          "name": "_minter",
          "type": "address"
        }
      ],
      "name": "removeMinter",
      "outputs": [],
      "stateMutability": "nonpayable",
      "type": "function"
    },
    {
      "inputs": [
        {
          "internalType": "address",
          "name": "_paymentManager",
          "type": "address"
        }
      ],
      "name": "removePaymentManager",
      "outputs": [],
      "stateMutability": "nonpayable",
      "type": "function"
    },
    {
      "inputs": [
        {
          "internalType": "bytes32",
          "name": "orderTxId",
          "type": "bytes32"
        },
        {
          "components": [
            {
              "internalType": "address",
              "name": "providerFeeAddress",
              "type": "address"
            },
            {
              "internalType": "address",
              "name": "providerFeeToken",
              "type": "address"
            },
            {
              "internalType": "uint256",
              "name": "providerFeeAmount",
              "type": "uint256"
            },
            {
              "internalType": "uint8",
              "name": "v",
              "type": "uint8"
            },
            {
              "internalType": "bytes32",
              "name": "r",
              "type": "bytes32"
            },
            {
              "internalType": "bytes32",
              "name": "s",
              "type": "bytes32"
            },
            {
              "internalType": "uint256",
              "name": "validUntil",
              "type": "uint256"
            },
            {
              "internalType": "bytes",
              "name": "providerData",
              "type": "bytes"
            }
          ],
          "internalType": "struct ERC20Template.providerFee",
          "name": "_providerFee",
          "type": "tuple"
        }
      ],
      "name": "reuseOrder",
      "outputs": [],
      "stateMutability": "nonpayable",
      "type": "function"
    },
    {
      "inputs": [],
      "name": "router",
      "outputs": [
        {
          "internalType": "address",
          "name": "",
          "type": "address"
        }
      ],
      "stateMutability": "view",
      "type": "function"
    },
    {
      "inputs": [
        {
          "internalType": "bytes",
          "name": "_value",
          "type": "bytes"
        }
      ],
      "name": "setData",
      "outputs": [],
      "stateMutability": "nonpayable",
      "type": "function"
    },
    {
      "inputs": [
        {
          "internalType": "address",
          "name": "_newPaymentCollector",
          "type": "address"
        }
      ],
      "name": "setPaymentCollector",
      "outputs": [],
      "stateMutability": "nonpayable",
      "type": "function"
    },
    {
      "inputs": [
        {
          "internalType": "address",
          "name": "_publishMarketFeeAddress",
          "type": "address"
        },
        {
          "internalType": "address",
          "name": "_publishMarketFeeToken",
          "type": "address"
        },
        {
          "internalType": "uint256",
          "name": "_publishMarketFeeAmount",
          "type": "uint256"
        }
      ],
      "name": "setPublishingMarketFee",
      "outputs": [],
      "stateMutability": "nonpayable",
      "type": "function"
    },
    {
      "inputs": [
        {
          "internalType": "address",
          "name": "consumer",
          "type": "address"
        },
        {
          "internalType": "uint256",
          "name": "serviceIndex",
          "type": "uint256"
        },
        {
          "components": [
            {
              "internalType": "address",
              "name": "providerFeeAddress",
              "type": "address"
            },
            {
              "internalType": "address",
              "name": "providerFeeToken",
              "type": "address"
            },
            {
              "internalType": "uint256",
              "name": "providerFeeAmount",
              "type": "uint256"
            },
            {
              "internalType": "uint8",
              "name": "v",
              "type": "uint8"
            },
            {
              "internalType": "bytes32",
              "name": "r",
              "type": "bytes32"
            },
            {
              "internalType": "bytes32",
              "name": "s",
              "type": "bytes32"
            },
            {
              "internalType": "uint256",
              "name": "validUntil",
              "type": "uint256"
            },
            {
              "internalType": "bytes",
              "name": "providerData",
              "type": "bytes"
            }
          ],
          "internalType": "struct ERC20Template.providerFee",
          "name": "_providerFee",
          "type": "tuple"
        },
        {
          "components": [
            {
              "internalType": "address",
              "name": "consumeMarketFeeAddress",
              "type": "address"
            },
            {
              "internalType": "address",
              "name": "consumeMarketFeeToken",
              "type": "address"
            },
            {
              "internalType": "uint256",
              "name": "consumeMarketFeeAmount",
              "type": "uint256"
            }
          ],
          "internalType": "struct ERC20Template.consumeMarketFee",
          "name": "_consumeMarketFee",
          "type": "tuple"
        }
      ],
      "name": "startOrder",
      "outputs": [],
      "stateMutability": "nonpayable",
      "type": "function"
    },
    {
      "inputs": [],
      "name": "symbol",
      "outputs": [
        {
          "internalType": "string",
          "name": "",
          "type": "string"
        }
      ],
      "stateMutability": "view",
      "type": "function"
    },
    {
      "inputs": [],
      "name": "totalSupply",
      "outputs": [
        {
          "internalType": "uint256",
          "name": "",
          "type": "uint256"
        }
      ],
      "stateMutability": "view",
      "type": "function"
    },
    {
      "inputs": [
        {
          "internalType": "address",
          "name": "recipient",
          "type": "address"
        },
        {
          "internalType": "uint256",
          "name": "amount",
          "type": "uint256"
        }
      ],
      "name": "transfer",
      "outputs": [
        {
          "internalType": "bool",
          "name": "",
          "type": "bool"
        }
      ],
      "stateMutability": "nonpayable",
      "type": "function"
    },
    {
      "inputs": [
        {
          "internalType": "address",
          "name": "sender",
          "type": "address"
        },
        {
          "internalType": "address",
          "name": "recipient",
          "type": "address"
        },
        {
          "internalType": "uint256",
          "name": "amount",
          "type": "uint256"
        }
      ],
      "name": "transferFrom",
      "outputs": [
        {
          "internalType": "bool",
          "name": "",
          "type": "bool"
        }
      ],
      "stateMutability": "nonpayable",
      "type": "function"
    },
    {
      "inputs": [],
      "name": "withdrawETH",
      "outputs": [],
      "stateMutability": "payable",
      "type": "function"
    }
  ],
  "bytecode": "0x6080604052600b805460ff60a01b191690553480156200001e57600080fd5b5060408051808201825260048152631d195cdd60e21b60208083019182528351808501909452600a8452691d195cdd14de5b589bdb60b21b9084015281519192916200006d9160039162000091565b5080516200008390600490602084019062000091565b505060016007555062000174565b8280546200009f9062000137565b90600052602060002090601f016020900481019282620000c357600085556200010e565b82601f10620000de57805160ff19168380011785556200010e565b828001600101855582156200010e579182015b828111156200010e578251825591602001919060010190620000f1565b506200011c92915062000120565b5090565b5b808211156200011c576000815560010162000121565b600181811c908216806200014c57607f821691505b602082108114156200016e57634e487b7160e01b600052602260045260246000fd5b50919050565b61547580620001846000396000f3fe6080604052600436106102c55760003560e01c80635d1ca6311161017e578063a457c2d7116100d3578063d505accf1161008f578063e487c2e81161006c578063e487c2e81461099d578063ec342ad0146109b2578063ef867ff4146109ce578063f887ea40146109ee57005b8063d505accf1461092f578063dd62ed3e1461094f578063e086e5ec1461099557005b8063a457c2d714610856578063a9059cbb14610876578063aa271e1a14610896578063aa492ef9146108cf578063ab62f0e1146108ef578063b3998be01461090f57005b80637ecebe001161013a5780638b96412b116101175780638b96412b146107e157806395d89b411461080157806396fb3eaf14610816578063983b2d561461083657005b80637ecebe001461077f57806382c03da5146107ac57806389208f0f146107c157005b80635d1ca631146106be578063673a2a1f146106d257806370a08231146106e757806379cc67901461071d57806379d9d7f31461073d5780637dda231e1461075d57005b8063355274ea1161023457806340c10f19116101f05780634f189cb2116101cd5780634f189cb21461064957806357a3a31b1461065e57806357ad5ff61461067e5780635bfe4da01461069e57005b806340c10f19146105e757806342966c681461060757806347ac7d551461062757005b8063355274ea14610521578063361fef49146105365780633644e51514610556578063392e53cd1461056c578063395093511461058b578063397b3743146105ab57005b8063191c918a11610283578063191c918a1461044b57806323b872dd1461046b57806325b002431461048b5780633092afd5146104ab57806330adf81f146104cb578063313ce567146104ff57005b80627ffb78146102c757806301e88208146102fe57806306fdde031461034e578063095ea7b314610370578063160a7925146103a057806318160ddd1461042c575b005b3480156102d357600080fd5b50600c546001600160a01b03165b6040516001600160a01b0390911681526020015b60405180910390f35b34801561030a57600080fd5b506103376103193660046144a7565b60056020526000908152604090205460ff8082169161010090041682565b6040805192151583529015156020830152016102f5565b34801561035a57600080fd5b50610363610a0e565b6040516102f591906144f0565b34801561037c57600080fd5b5061039061038b366004614523565b610aa0565b60405190151581526020016102f5565b3480156103ac57600080fd5b5061040d6103bb3660046144a7565b6040805180820190915260008082526020820152506001600160a01b031660009081526005602090815260409182902082518084019093525460ff808216151584526101009091041615159082015290565b60408051825115158152602092830151151592810192909252016102f5565b34801561043857600080fd5b506002545b6040519081526020016102f5565b34801561045757600080fd5b506102c561046636600461455d565b610ab7565b34801561047757600080fd5b506103906104863660046145bc565b610c93565b34801561049757600080fd5b506102c56104a63660046144a7565b610d3f565b3480156104b757600080fd5b506102c56104c63660046144a7565b610dd9565b3480156104d757600080fd5b5061043d7f6e71edae12b1b97f4d1f60370fef10105fa2faae0126114a169c64845d6126c981565b34801561050b57600080fd5b5060125b60405160ff90911681526020016102f5565b34801561052d57600080fd5b50600a5461043d565b34801561054257600080fd5b506102c5610551366004614616565b610e70565b34801561056257600080fd5b5061043d60115481565b34801561057857600080fd5b50600b54600160a01b900460ff16610390565b34801561059757600080fd5b506103906105a6366004614523565b610eee565b3480156105b757600080fd5b50600e54600f54601054604080516001600160a01b039485168152939092166020840152908201526060016102f5565b3480156105f357600080fd5b506102c5610602366004614523565b610f2a565b34801561061357600080fd5b506102c561062236600461465c565b610ffb565b34801561063357600080fd5b5061063c611005565b6040516102f591906146b9565b34801561065557600080fd5b506102c5611066565b34801561066a57600080fd5b506102c56106793660046144a7565b61114d565b34801561068a57600080fd5b506102c56106993660046145bc565b61128f565b3480156106aa57600080fd5b506102e16106b9366004614804565b611448565b3480156106ca57600080fd5b50600161050f565b3480156106de57600080fd5b5061063c61184d565b3480156106f357600080fd5b5061043d6107023660046144a7565b6001600160a01b031660009081526020819052604090205490565b34801561072957600080fd5b506102c5610738366004614523565b6118ad565b34801561074957600080fd5b506102c561075836600461488b565b611933565b34801561076957600080fd5b50610772611ec0565b6040516102f591906148fe565b34801561078b57600080fd5b5061043d61079a3660046144a7565b60126020526000908152604090205481565b3480156107b857600080fd5b506102c5611f35565b3480156107cd57600080fd5b506102c56107dc36600461499e565b611f8f565b3480156107ed57600080fd5b5061043d6107fc366004614a7b565b61227c565b34801561080d57600080fd5b5061036361250c565b34801561082257600080fd5b506103906108313660046144a7565b61251b565b34801561084257600080fd5b506102c56108513660046144a7565b612596565b34801561086257600080fd5b50610390610871366004614523565b61262d565b34801561088257600080fd5b50610390610891366004614523565b6126c6565b3480156108a257600080fd5b506103906108b13660046144a7565b6001600160a01b031660009081526005602052604090205460ff1690565b3480156108db57600080fd5b506102c56108ea3660046144a7565b6126d3565b3480156108fb57600080fd5b506102c561090a366004614ae6565b61276a565b34801561091b57600080fd5b5061039061092a366004614b6b565b61289b565b34801561093b57600080fd5b506102c561094a366004614c6c565b6129d5565b34801561095b57600080fd5b5061043d61096a366004614cda565b6001600160a01b03918216600090815260016020908152604080832093909416825291909152205490565b6102c5612be7565b3480156109a957600080fd5b506102e1612c27565b3480156109be57600080fd5b5061043d670de0b6b3a764000081565b3480156109da57600080fd5b506102e16109e936600461465c565b612cbc565b3480156109fa57600080fd5b506013546102e1906001600160a01b031681565b606060088054610a1d90614d13565b80601f0160208091040260200160405190810160405280929190818152602001828054610a4990614d13565b8015610a965780601f10610a6b57610100808354040283529160200191610a96565b820191906000526020600020905b815481529060010190602001808311610a7957829003601f168201915b5050505050905090565b6000610aad338484612ce6565b5060015b92915050565b600c5460405163160a792560e01b81523360048201526001600160a01b039091169063160a7925906024016080604051808303816000875af1158015610b01573d6000803e3d6000fd5b505050506040513d601f19601f82011682018060405250810190610b259190614d48565b60200151610b4e5760405162461bcd60e51b8152600401610b4590614dcc565b60405180910390fd5b60026007541415610b715760405162461bcd60e51b8152600401610b4590614e01565b6002600755601354604051636b14d00560e11b81526001600160a01b038781166004830152306024830152604482018790526064820186905233608483015283811660a48301529091169063d629a00a9060c401600060405180830381600087803b158015610bdf57600080fd5b505af1158015610bf3573d6000803e3d6000fd5b505050508115610c0657610c0685612e0a565b601680546001810182556000919091527fd833147d7dc355ba459fc788f669e58cfaf9dc25ddcd0702e87d69c7b51242890180546001600160a01b0319166001600160a01b0387169081179091556040519081527fa31ffd41531537eb31bfd827a3f5372b5f62bf4dd8579e5354b280dc58490e709060200160405180910390a150506001600755505050565b6000610ca0848484612f0c565b6001600160a01b038416600090815260016020908152604080832033845290915290205482811015610d255760405162461bcd60e51b815260206004820152602860248201527f45524332303a207472616e7366657220616d6f756e74206578636565647320616044820152676c6c6f77616e636560c01b6064820152608401610b45565b610d328533858403612ce6565b60019150505b9392505050565b600c5460405163160a792560e01b81523360048201526001600160a01b039091169063160a7925906024016080604051808303816000875af1158015610d89573d6000803e3d6000fd5b505050506040513d601f19601f82011682018060405250810190610dad9190614d48565b60200151610dcd5760405162461bcd60e51b8152600401610b4590614dcc565b610dd6816130dc565b50565b600c5460405163160a792560e01b81523360048201526001600160a01b039091169063160a7925906024016080604051808303816000875af1158015610e23573d6000803e3d6000fd5b505050506040513d601f19601f82011682018060405250810190610e479190614d48565b60200151610e675760405162461bcd60e51b8152600401610b4590614dcc565b610dd68161313d565b60026007541415610e935760405162461bcd60e51b8152600401610b4590614e01565b600260075560408051838152336020820152428183015243606082015290517f526e31449ea46e2aecf9b480c8d7dfa191348ef74ffdf75b445a6ab726daa6ff9181900360800190a1610ee58161319d565b50506001600755565b3360008181526001602090815260408083206001600160a01b03871684529091528120549091610aad918590610f25908690614e4e565b612ce6565b3360009081526005602052604090205460ff16610f895760405162461bcd60e51b815260206004820152601960248201527f455243323054656d706c6174653a204e4f54204d494e544552000000000000006044820152606401610b45565b600a54610f9f82610f9960025490565b9061353a565b1115610fed5760405162461bcd60e51b815260206004820152601f60248201527f44617461746f6b656e54656d706c6174653a20636170206578636565646564006044820152606401610b45565b610ff78282613546565b5050565b610dd63382613625565b60606016805480602002602001604051908101604052809291908181526020018280548015610a9657602002820191906000526020600020905b81546001600160a01b0316815260019091019060200180831161103f575050505050905090565b600c546040516331a9108f60e11b8152600160048201526001600160a01b0390911690636352211e90602401602060405180830381865afa1580156110af573d6000803e3d6000fd5b505050506040513d601f19601f820116820180604052508101906110d39190614e66565b6001600160a01b0316336001600160a01b0316146111335760405162461bcd60e51b815260206004820152601b60248201527f455243323054656d706c6174653a206e6f74204e46544f776e657200000000006044820152606401610b45565b61113b613773565b600d80546001600160a01b0319169055565b33600090815260056020526040902054610100900460ff16806111de5750600c5460405163160a792560e01b81523360048201526001600160a01b039091169063160a7925906024016080604051808303816000875af11580156111b5573d6000803e3d6000fd5b505050506040513d601f19601f820116820180604052508101906111d99190614d48565b602001515b61123e5760405162461bcd60e51b815260206004820152602b60248201527f455243323054656d706c6174653a204e4f54205041594d454e54204d414e414760448201526a22a91037b91027aba722a960a91b6064820152608401610b45565b61124781613822565b604080514281524360208201526001600160a01b0383169133917f4d7694d695c57cc54947177c8e8a0e61aae664e9223492a798c32fadfc6419cc910160405180910390a350565b600e546001600160a01b031633146112fc5760405162461bcd60e51b815260206004820152602a60248201527f455243323054656d706c6174653a206e6f74207075626c6973684d61726b65746044820152694665654164647265737360b01b6064820152608401610b45565b6001600160a01b0383166113635760405162461bcd60e51b815260206004820152602860248201527f496e76616c6964205f7075626c6973684d61726b657446656541646472657373604482015267206164647265737360c01b6064820152608401610b45565b6001600160a01b0382166113c85760405162461bcd60e51b815260206004820152602660248201527f496e76616c6964205f7075626c6973684d61726b6574466565546f6b656e206160448201526564647265737360d01b6064820152608401610b45565b600e80546001600160a01b038581166001600160a01b03199283168117909355600f80549186169190921681179091556010839055604080513381526020810193909352820152606081018290527f02ab4b3fc023109c2d0da394bda239166c833f63c42b71b67ed4b836dca0ddfe9060800160405180910390a1505050565b600c5460405163160a792560e01b81523360048201526000916001600160a01b03169063160a7925906024016080604051808303816000875af1158015611493573d6000803e3d6000fd5b505050506040513d601f19601f820116820180604052508101906114b79190614d48565b602001516114d75760405162461bcd60e51b8152600401610b4590614dcc565b600260075414156114fa5760405162461bcd60e51b8152600401610b4590614e01565b600260075561150860025490565b156115615760405162461bcd60e51b8152602060048201526024808201527f455243323054656d706c6174653a20746f6b656e7320616c7265616479206d696044820152631b9d195960e21b6064820152608401610b45565b6115848260008151811061157757611577614e83565b6020026020010151612e0a565b601360009054906101000a90046001600160a01b03166001600160a01b031663510f34656040518163ffffffff1660e01b8152600401602060405180830381865afa1580156115d7573d6000803e3d6000fd5b505050506040513d601f19601f820116820180604052508101906115fb9190614e99565b8460038151811061160e5761160e614e83565b602002602001015110156116a45760405162461bcd60e51b815260206004820152605160248201527f455243323054656d706c6174653a2056657374696e6720706572696f6420746f60448201527f6f206c6f772e2053656520466163746f7279526f757465722e6d696e56657374606482015270696e67506572696f64496e426c6f636b7360781b608482015260a401610b45565b60006040518060400160405280306001600160a01b03166001600160a01b03168152602001846001815181106116dc576116dc614e83565b60209081029190910101516001600160a01b0390811690915260135460405163ee3bc63560e01b8152929350169063ee3bc63590611724908490899089908990600401614ee2565b6020604051808303816000875af1158015611743573d6000803e3d6000fd5b505050506040513d601f19601f820116820180604052508101906117679190614e66565b6014805460018101825560009182527fce6d7b5282bd9a3661ae061feed1dbda4e52ab073b1f9285be6e155d9c38d4ec0180546001600160a01b0319166001600160a01b03841617905584519193507fd02da1bec30f7f750aa0a131745dfb9ce96767c45a192dc26409f5d690e0b96791849186916117e8576117e8614e83565b60200260200101518560018151811061180357611803614e83565b6020026020010151604051611838939291906001600160a01b0393841681529183166020830152909116604082015260600190565b60405180910390a15060016007559392505050565b60606014805480602002602001604051908101604052809291908181526020018280548015610a96576020028201919060005260206000209081546001600160a01b0316815260019091019060200180831161103f575050505050905090565b60006118b9833361096a565b9050818110156119175760405162461bcd60e51b8152602060048201526024808201527f45524332303a206275726e20616d6f756e74206578636565647320616c6c6f77604482015263616e636560e01b6064820152608401610b45565b6119248333848403612ce6565b61192e8383613625565b505050565b600260075414156119565760405162461bcd60e51b8152600401610b4590614e01565b600260075533600090815260208190526040812054670de0b6b3a764000091908211156119d15760405162461bcd60e51b8152602060048201526024808201527f4e6f7420656e6f7567682064617461746f6b656e7320746f207374617274204f604482015263393232b960e11b6064820152608401610b45565b600e5460408051338152602081018590529081018790524260608201524360808201526001600160a01b03918216918816907fe1c4fa794edfa8f619b8257a077398950357b9c6398528f94480307352f9afcc9060a00160405180910390a36000601054118015611a4c5750600f546001600160a01b031615155b8015611a625750600e546001600160a01b031615155b15611c1a57600f54601054611a84916001600160a01b03169033903090613844565b60135460408051637d28354d60e01b815290516000926001600160a01b031691637d28354d9160048083019260209291908290030181865afa158015611ace573d6000803e3d6000fd5b505050506040513d601f19601f82011682018060405250810190611af29190614e99565b90508015611b2457611b21670de0b6b3a7640000611b1b8360105461399290919063ffffffff16565b9061399e565b91505b600e54601054611b55916001600160a01b031690611b4290856139aa565b600f546001600160a01b031691906139b6565b600f54600e546010546001600160a01b0392831692909116907f4049a448ac6f0284a98d2cb9199e73605944ea5bec901a037f88c84703de82b290611b9a90866139aa565b60405190815260200160405180910390a38115611c1857600b54600f54611bce916001600160a01b039182169116846139b6565b600f54600b546040518481526001600160a01b0392831692909116907f4049a448ac6f0284a98d2cb9199e73605944ea5bec901a037f88c84703de82b29060200160405180910390a35b505b60008360400135118015611c4757506000611c3b60408501602086016144a7565b6001600160a01b031614155b8015611c6957506000611c5d60208501856144a7565b6001600160a01b031614155b15611e4d57611c8d611c8160408501602086016144a7565b33308660400135613844565b60135460408051637d28354d60e01b815290516000926001600160a01b031691637d28354d9160048083019260209291908290030181865afa158015611cd7573d6000803e3d6000fd5b505050506040513d601f19601f82011682018060405250810190611cfb9190614e99565b90508015611d2057611d1d670de0b6b3a7640000611b1b604087013584613992565b91505b611d5e611d3060208601866144a7565b611d3e6040870135856139aa565b611d4e60408801602089016144a7565b6001600160a01b031691906139b6565b611d6e60408501602086016144a7565b6001600160a01b0316611d8460208601866144a7565b6001600160a01b03167f6d11837f46cc09b011cf4aae09fcade046c020aac088090ae4f77ff67b707972611dbc6040880135866139aa565b60405190815260200160405180910390a38115611e4b57600b54611df4906001600160a01b031683611d4e60408801602089016144a7565b611e0460408501602086016144a7565b600b546040518481526001600160a01b0392831692909116907f6d11837f46cc09b011cf4aae09fcade046c020aac088090ae4f77ff67b7079729060200160405180910390a35b505b611e568461319d565b611e67611e61612c27565b836126c6565b611eb35760405162461bcd60e51b815260206004820152601e60248201527f4661696c656420746f2073656e6420445420746f207075626c697368657200006044820152606401610b45565b5050600160075550505050565b60606015805480602002602001604051908101604052809291908181526020016000905b82821015611f2c576000848152602090819020604080518082019091526002850290910180546001600160a01b03168252600190810154828401529083529092019101611ee4565b50505050905090565b600c546001600160a01b031633146111335760405162461bcd60e51b815260206004820152601f60248201527f455243323054656d706c6174653a204e4f542037323120436f6e7472616374006044820152606401610b45565b336001600160a01b0382161415611fe85760405162461bcd60e51b815260206004820152601f60248201527f50726f76696465722063616e6e6f742062652074686520636f6e73756d6572006044820152606401610b45565b60006040518060400160405280601c81526020017f19457468657265756d205369676e6564204d6573736167653a0a33320000000081525090506000818c8c8c60405160200161203a93929190614f4d565b60405160208183030381529060405280519060200120604051602001612061929190614f67565b604051602081830303815290604052805190602001209050336001600160a01b03166120c3828b8b8080601f016020809104026020016040519081016040528093929190818152602001838380828437600092019190915250613a1992505050565b6001600160a01b0316146121195760405162461bcd60e51b815260206004820152601f60248201527f50726f7669646572207369676e617475726520636865636b206661696c6564006044820152606401610b45565b600082888860405160200161212f929190614f89565b60405160208183030381529060405280519060200120604051602001612156929190614f67565b604051602081830303815290604052805190602001209050836001600160a01b03166121b88288888080601f016020809104026020016040519081016040528093929190818152602001838380828437600092019190915250613a1992505050565b6001600160a01b03161461220e5760405162461bcd60e51b815260206004820152601f60248201527f436f6e73756d6572207369676e617475726520636865636b206661696c6564006044820152606401610b45565b836001600160a01b0316336001600160a01b03167fc9a10280e9c735c63092fa5431e6acb3ed342e08b69a083e5e676994eb7070f98f8f8f8f8f8f8f8f8f42436040516122659b9a99989796959493929190614fc2565b60405180910390a350505050505050505050505050565b600c5460405163160a792560e01b81523360048201526000916001600160a01b03169063160a7925906024016080604051808303816000875af11580156122c7573d6000803e3d6000fd5b505050506040513d601f19601f820116820180604052508101906122eb9190614d48565b6020015161230b5760405162461bcd60e51b8152600401610b4590614dcc565b6002600754141561232e5760405162461bcd60e51b8152600401610b4590614e01565b6002600755601354604051638244937560e01b81526001600160a01b039091169063824493759061236790879087908790600401615034565b6020604051808303816000875af1158015612386573d6000803e3d6000fd5b505050506040513d601f19601f820116820180604052508101906123aa9190614e99565b90506000826004815181106123c1576123c1614e83565b602002602001015111156123d8576123d884612e0a565b826000815181106123eb576123eb614e83565b60200260200101516001600160a01b03168360018151811061240f5761240f614e83565b60200260200101516001600160a01b03167fb3fac3ae95956dbac74e63ba8dac94081832395c8788e3049c900a7732f3480583876040516124639291909182526001600160a01b0316602082015260400190565b60405180910390a3604080518082019091526001600160a01b03948516815260208101828152601580546001808201835560009290925292517f55f448fdea98c4d29eb340757ef0a66cd03dbb9538908a6a81d96026b71ec475600290940293840180546001600160a01b0319169190981617909655517f55f448fdea98c4d29eb340757ef0a66cd03dbb9538908a6a81d96026b71ec476909101556007939093555090919050565b606060098054610a1d90614d13565b600c5460405163160a792560e01b81526001600160a01b038381166004830152600092169063160a7925906024016080604051808303816000875af1158015612568573d6000803e3d6000fd5b505050506040513d601f19601f8201168201806040525081019061258c9190614d48565b6020015192915050565b600c5460405163160a792560e01b81523360048201526001600160a01b039091169063160a7925906024016080604051808303816000875af11580156125e0573d6000803e3d6000fd5b505050506040513d601f19601f820116820180604052508101906126049190614d48565b602001516126245760405162461bcd60e51b8152600401610b4590614dcc565b610dd681612e0a565b3360009081526001602090815260408083206001600160a01b0386168452909152812054828110156126af5760405162461bcd60e51b815260206004820152602560248201527f45524332303a2064656372656173656420616c6c6f77616e63652062656c6f77604482015264207a65726f60d81b6064820152608401610b45565b6126bc3385858403612ce6565b5060019392505050565b6000610aad338484612f0c565b600c5460405163160a792560e01b81523360048201526001600160a01b039091169063160a7925906024016080604051808303816000875af115801561271d573d6000803e3d6000fd5b505050506040513d601f19601f820116820180604052508101906127419190614d48565b602001516127615760405162461bcd60e51b8152600401610b4590614dcc565b610dd681613af1565b600c5460405163160a792560e01b81523360048201526001600160a01b039091169063160a7925906024016080604051808303816000875af11580156127b4573d6000803e3d6000fd5b505050506040513d601f19601f820116820180604052508101906127d89190614d48565b602001516127f85760405162461bcd60e51b8152600401610b4590614dcc565b6040516bffffffffffffffffffffffff193060601b16602082015260009060340160408051601f19818403018152908290528051602090910120600c546301caf8fd60e31b83529092506001600160a01b031690630e57c7e89061286490849087908790600401615074565b600060405180830381600087803b15801561287e57600080fd5b505af1158015612892573d6000803e3d6000fd5b50505050505050565b600b54600090600160a01b900460ff16156129125760405162461bcd60e51b815260206004820152603160248201527f455243323054656d706c6174653a20746f6b656e20696e7374616e636520616c6044820152701c9958591e481a5b9a5d1a585b1a5e9959607a1b6064820152608401610b45565b6129c661291f8b8d6150ee565b8a8a8080602002602001604051908101604052809392919081815260200183836020028082843760009201919091525050604080516020808e0282810182019093528d82529093508d92508c91829185019084908082843760009201919091525050604080516020808d0282810182019093528c82529093508c92508b9182918501908490808284376000920191909152506129c192508991508a9050615175565b613bff565b9b9a5050505050505050505050565b43841015612a185760405162461bcd60e51b815260206004820152601060248201526f115490cc8c11150e881156141254915160821b6044820152606401610b45565b6011546001600160a01b038816600090815260126020526040812080549192917f6e71edae12b1b97f4d1f60370fef10105fa2faae0126114a169c64845d6126c9918b918b918b919087612a6b836151f0565b909155506040805160208101969096526001600160a01b0394851690860152929091166060840152608083015260a082015260c0810187905260e00160405160208183030381529060405280519060200120604051602001612ae492919061190160f01b81526002810192909252602282015260420190565b60408051601f198184030181528282528051602091820120600080855291840180845281905260ff88169284019290925260608301869052608083018590529092509060019060a0016020604051602081039080840390855afa158015612b4f573d6000803e3d6000fd5b5050604051601f1901519150506001600160a01b03811615801590612b855750886001600160a01b0316816001600160a01b0316145b612bd15760405162461bcd60e51b815260206004820152601a60248201527f455243323044543a20494e56414c49445f5349474e41545552450000000000006044820152606401610b45565b612bdc898989612ce6565b505050505050505050565b612bef612c27565b6001600160a01b03166108fc479081150290604051600060405180830381858888f19350505050158015610dd6573d6000803e3d6000fd5b600d546000906001600160a01b0316612cac57600c546040516331a9108f60e11b8152600160048201526001600160a01b0390911690636352211e90602401602060405180830381865afa158015612c83573d6000803e3d6000fd5b505050506040513d601f19601f82011682018060405250810190612ca79190614e66565b905090565b50600d546001600160a01b031690565b60068181548110612ccc57600080fd5b6000918252602090912001546001600160a01b0316905081565b6001600160a01b038316612d485760405162461bcd60e51b8152602060048201526024808201527f45524332303a20617070726f76652066726f6d20746865207a65726f206164646044820152637265737360e01b6064820152608401610b45565b6001600160a01b038216612da95760405162461bcd60e51b815260206004820152602260248201527f45524332303a20617070726f766520746f20746865207a65726f206164647265604482015261737360f01b6064820152608401610b45565b6001600160a01b0383811660008181526001602090815260408083209487168084529482529182902085905590518481527f8c5be1e5ebec7d5bd14f71427d1e84f3dd0314c0f7b2291e5b200ac8c7c3b925910160405180910390a3505050565b6001600160a01b0381166000908152600560205260409020805460ff1615612e745760405162461bcd60e51b815260206004820152601d60248201527f4552433230526f6c65733a2020414c52454144592041204d494e5445520000006044820152606401610b45565b8054600160ff19909116811782556006805491820181556000527ff652222313e28459528d920b65115c16c04f3efc82aaedc97be59f3f377c0d3f0180546001600160a01b0319166001600160a01b038416908117909155604080514281524360208201523392917f4f7e100eb1ee13e903798bd0d6aa854152e07eb05544f392b9409c12935c809591015b60405180910390a35050565b6001600160a01b038316612f705760405162461bcd60e51b815260206004820152602560248201527f45524332303a207472616e736665722066726f6d20746865207a65726f206164604482015264647265737360d81b6064820152608401610b45565b6001600160a01b038216612fd25760405162461bcd60e51b815260206004820152602360248201527f45524332303a207472616e7366657220746f20746865207a65726f206164647260448201526265737360e81b6064820152608401610b45565b6001600160a01b0383166000908152602081905260409020548181101561304a5760405162461bcd60e51b815260206004820152602660248201527f45524332303a207472616e7366657220616d6f756e7420657863656564732062604482015265616c616e636560d01b6064820152608401610b45565b6001600160a01b03808516600090815260208190526040808220858503905591851681529081208054849290613081908490614e4e565b92505081905550826001600160a01b0316846001600160a01b03167fddf252ad1be2c89b69c2b068fc378daa952ba7f163c4a11628f55a4df523b3ef846040516130cd91815260200190565b60405180910390a35b50505050565b6001600160a01b03811660008181526005602052604090819020805461ff00191681559051909133917faee911eec8b2df8f3ae0464841541b1e5f339519bd5cf51889fe8b07fecff65890612f009042904390918252602082015260400190565b6001600160a01b03811660008181526005602052604090819020805460ff191681559051909133917fefa2735987005aaa89c050c0ff8cc9ae7d9079d19382081c429130f98c52d48090612f009042904390918252602082015260400190565b60408051808201909152601c81527f19457468657265756d205369676e6564204d6573736167653a0a33320000000060208201526000816131e160e085018561520b565b6131ee60208701876144a7565b6131fe60408801602089016144a7565b87604001358860c0013560405160200161321d96959493929190615251565b60405160208183030381529060405280519060200120604051602001613244929190614f67565b60408051601f19818403018152919052805160209091012090506000600182613273608087016060880161528f565b6040805160008152602081018083529390935260ff90911690820152608080870135606083015260a08088013591830191909152016020604051602081039080840390855afa1580156132ca573d6000803e3d6000fd5b5050604051601f19015191506132e5905060208501856144a7565b6001600160a01b0316816001600160a01b03161461333c5760405162461bcd60e51b8152602060048201526014602482015273496e76616c69642070726f76696465722066656560601b6044820152606401610b45565b61334c60408501602086016144a7565b6001600160a01b031661336260208601866144a7565b6001600160a01b03167ff8ed11cdaaf10eca2b6c941fb802cb8682afe86cac1eb93f70d0780fa062c544604087013561339e60e089018961520b565b6133ae60808b0160608c0161528f565b8a608001358b60a001358c60c001356040516133d097969594939291906152aa565b60405180910390a360008460400135118015613405575060006133f960408601602087016144a7565b6001600160a01b031614155b80156134275750600061341b60208601866144a7565b6001600160a01b031614155b156130d65760135460408051636c45e88160e01b815290516000926001600160a01b031691636c45e8819160048083019260209291908290030181865afa158015613476573d6000803e3d6000fd5b505050506040513d601f19601f8201168201806040525081019061349a9190614e99565b9050600081156134c1576134be670de0b6b3a7640000611b1b604089013585613992565b90505b60006134d16040880135836139aa565b90506134f26134e66040890160208a016144a7565b33308a60400135613844565b61351361350260208901896144a7565b82611d4e60408b0160208c016144a7565b811561289257600b54612892906001600160a01b031683611d4e60408b0160208c016144a7565b6000610d388284614e4e565b6001600160a01b03821661359c5760405162461bcd60e51b815260206004820152601f60248201527f45524332303a206d696e7420746f20746865207a65726f2061646472657373006044820152606401610b45565b80600260008282546135ae9190614e4e565b90915550506001600160a01b038216600090815260208190526040812080548392906135db908490614e4e565b90915550506040518181526001600160a01b038316906000907fddf252ad1be2c89b69c2b068fc378daa952ba7f163c4a11628f55a4df523b3ef9060200160405180910390a35050565b6001600160a01b0382166136855760405162461bcd60e51b815260206004820152602160248201527f45524332303a206275726e2066726f6d20746865207a65726f206164647265736044820152607360f81b6064820152608401610b45565b6001600160a01b038216600090815260208190526040902054818110156136f95760405162461bcd60e51b815260206004820152602260248201527f45524332303a206275726e20616d6f756e7420657863656564732062616c616e604482015261636560f01b6064820152608401610b45565b6001600160a01b03831660009081526020819052604081208383039055600280548492906137289084906152ed565b90915550506040518281526000906001600160a01b038516907fddf252ad1be2c89b69c2b068fc378daa952ba7f163c4a11628f55a4df523b3ef9060200160405180910390a3505050565b60005b6006548110156137d9576000600560006006848154811061379957613799614e83565b60009182526020808320909101546001600160a01b031683528201929092526040019020805461ffff1916905550806137d1816151f0565b915050613776565b506137e6600660006143cb565b6040805142815243602082015233917f712bc71db81927a76b8bf1ea346247bb0ad58f18e4e5c1bd4aa0ec6573e02a2b910160405180910390a2565b600d80546001600160a01b0319166001600160a01b0392909216919091179055565b6040516370a0823160e01b81526001600160a01b038381166004830152600091908616906370a0823190602401602060405180830381865afa15801561388e573d6000803e3d6000fd5b505050506040513d601f19601f820116820180604052508101906138b29190614e99565b90506138c96001600160a01b038616858585614149565b6138d3818361353a565b6040516370a0823160e01b81526001600160a01b0385811660048301528716906370a0823190602401602060405180830381865afa158015613919573d6000803e3d6000fd5b505050506040513d601f19601f8201168201806040525081019061393d9190614e99565b101561398b5760405162461bcd60e51b815260206004820152601a60248201527f5472616e7366657220616d6f756e7420697320746f6f206c6f770000000000006044820152606401610b45565b5050505050565b6000610d388284615304565b6000610d388284615323565b6000610d3882846152ed565b6040516001600160a01b03831660248201526044810182905261192e90849063a9059cbb60e01b906064015b60408051601f198184030181529190526020810180516001600160e01b03166001600160e01b031990931692909217909152614181565b6000806000808451604114613a345760009350505050610ab1565b50505060208201516040830151604184015160ff16601b811015613a6057613a5d601b82615345565b90505b8060ff16601b14158015613a7857508060ff16601c14155b15613a895760009350505050610ab1565b60408051600081526020810180835288905260ff831691810191909152606081018490526080810183905260019060a0016020604051602081039080840390855afa158015613adc573d6000803e3d6000fd5b5050604051601f190151979650505050505050565b6001600160a01b03811660009081526005602052604090208054610100900460ff1615613b6b5760405162461bcd60e51b815260206004820152602260248201527f4552433230526f6c65733a2020414c5245414459204120464545204d414e414760448201526122a960f11b6064820152608401610b45565b805461ff001916610100178155600680546001810182556000919091527ff652222313e28459528d920b65115c16c04f3efc82aaedc97be59f3f377c0d3f0180546001600160a01b0384166001600160a01b03199091168117909155604080514281524360208201523392917fb17da2e9910b4ba5754e8872385ba315a238bafb5ae221fc85093c33432c40a79101612f00565b60008084600081518110613c1557613c15614e83565b60200260200101519050600085600181518110613c3457613c34614e83565b6020026020010151905060006001600160a01b0316826001600160a01b03161415613cb65760405162461bcd60e51b815260206004820152602c60248201527f455243323054656d706c6174653a20496e76616c6964206d696e7465722c202060448201526b7a65726f206164647265737360a01b6064820152608401610b45565b6001600160a01b038116613d325760405162461bcd60e51b815260206004820152603c60248201527f455243323054656d706c6174653a20496e76616c696420636f6d6d756e69747960448201527f2066656520636f6c6c6563746f722c207a65726f2061646472657373000000006064820152608401610b45565b84600081518110613d4557613d45614e83565b602002602001015160001415613da95760405162461bcd60e51b8152602060048201526024808201527f44617461746f6b656e54656d706c6174653a20496e76616c6964206361702076604482015263616c756560e01b6064820152608401610b45565b84600081518110613dbc57613dbc614e83565b6020026020010151600a8190555087600081518110613ddd57613ddd614e83565b602002602001015160089080519060200190613dfa9291906143e9565b5087600181518110613e0e57613e0e614e83565b602002602001015160099080519060200190613e2b9291906143e9565b50600c80546001600160a01b0319166001600160a01b038416179055855186906002908110613e5c57613e5c614e83565b6020908102919091010151601380546001600160a01b039283166001600160a01b0319909116179055600b80546001600160a81b03191691831691909117600160a01b1790558651613eb990889060009061157757611577614e83565b60006001600160a01b031687600181518110613ed757613ed7614e83565b60200260200101516001600160a01b031614613f8157613f1087600181518110613f0357613f03614e83565b6020026020010151613822565b86600181518110613f2357613f23614e83565b60200260200101516001600160a01b0316336001600160a01b03167f4d7694d695c57cc54947177c8e8a0e61aae664e9223492a798c32fadfc6419cc4243604051613f78929190918252602082015260400190565b60405180910390a35b86600281518110613f9457613f94614e83565b6020026020010151600e60006101000a8154816001600160a01b0302191690836001600160a01b0316021790555086600381518110613fd557613fd5614e83565b6020026020010151600f60006101000a8154816001600160a01b0302191690836001600160a01b031602179055508460018151811061401657614016614e83565b6020908102919091018101516010819055600e54600f54604080513381526001600160a01b039384169581019590955291169083015260608201527f02ab4b3fc023109c2d0da394bda239166c833f63c42b71b67ed4b836dca0ddfe9060800160405180910390a160405146907f8b73c3c69bb8fe3d512ecc4cf759cc79239f7b179b0ffacaa9a75d522b39400f906140b19060089061536a565b60408051918290038220828201825260018352603160f81b6020938401528151928301939093528101919091527fc89efdaa54c0f20c7adf612882df0950f5a951637e0307cdcb4c672f298b8bc66060820152608081018290523060a082015260c00160408051808303601f1901815291905280516020909101206011555050600b54600160a01b900460ff16979650505050505050565b6040516001600160a01b03808516602483015283166044820152606481018290526130d69085906323b872dd60e01b906084016139e2565b60006141d6826040518060400160405280602081526020017f5361666545524332303a206c6f772d6c6576656c2063616c6c206661696c6564815250856001600160a01b03166142539092919063ffffffff16565b80519091501561192e57808060200190518101906141f49190615406565b61192e5760405162461bcd60e51b815260206004820152602a60248201527f5361666545524332303a204552433230206f7065726174696f6e20646964206e6044820152691bdd081cdd58d8d9595960b21b6064820152608401610b45565b6060614262848460008561426a565b949350505050565b6060824710156142cb5760405162461bcd60e51b815260206004820152602660248201527f416464726573733a20696e73756666696369656e742062616c616e636520666f6044820152651c8818d85b1b60d21b6064820152608401610b45565b843b6143195760405162461bcd60e51b815260206004820152601d60248201527f416464726573733a2063616c6c20746f206e6f6e2d636f6e74726163740000006044820152606401610b45565b600080866001600160a01b031685876040516143359190615423565b60006040518083038185875af1925050503d8060008114614372576040519150601f19603f3d011682016040523d82523d6000602084013e614377565b606091505b5091509150614387828286614392565b979650505050505050565b606083156143a1575081610d38565b8251156143b15782518084602001fd5b8160405162461bcd60e51b8152600401610b4591906144f0565b5080546000825590600052602060002090810190610dd6919061446d565b8280546143f590614d13565b90600052602060002090601f016020900481019282614417576000855561445d565b82601f1061443057805160ff191683800117855561445d565b8280016001018555821561445d579182015b8281111561445d578251825591602001919060010190614442565b5061446992915061446d565b5090565b5b80821115614469576000815560010161446e565b6001600160a01b0381168114610dd657600080fd5b80356144a281614482565b919050565b6000602082840312156144b957600080fd5b8135610d3881614482565b60005b838110156144df5781810151838201526020016144c7565b838111156130d65750506000910152565b602081526000825180602084015261450f8160408501602087016144c4565b601f01601f19169190910160400192915050565b6000806040838503121561453657600080fd5b823561454181614482565b946020939093013593505050565b8015158114610dd657600080fd5b600080600080600060a0868803121561457557600080fd5b853561458081614482565b94506020860135935060408601359250606086013561459e8161454f565b915060808601356145ae81614482565b809150509295509295909350565b6000806000606084860312156145d157600080fd5b83356145dc81614482565b925060208401356145ec81614482565b929592945050506040919091013590565b6000610100828403121561461057600080fd5b50919050565b6000806040838503121561462957600080fd5b8235915060208301356001600160401b0381111561464657600080fd5b614652858286016145fd565b9150509250929050565b60006020828403121561466e57600080fd5b5035919050565b600081518084526020808501945080840160005b838110156146ae5781516001600160a01b031687529582019590820190600101614689565b509495945050505050565b602081526000610d386020830184614675565b634e487b7160e01b600052604160045260246000fd5b604051601f8201601f191681016001600160401b038111828210171561470a5761470a6146cc565b604052919050565b60006001600160401b0382111561472b5761472b6146cc565b5060051b60200190565b600082601f83011261474657600080fd5b8135602061475b61475683614712565b6146e2565b82815260059290921b8401810191818101908684111561477a57600080fd5b8286015b84811015614795578035835291830191830161477e565b509695505050505050565b600082601f8301126147b157600080fd5b813560206147c161475683614712565b82815260059290921b840181019181810190868411156147e057600080fd5b8286015b848110156147955780356147f781614482565b83529183019183016147e4565b60008060006060848603121561481957600080fd5b83356001600160401b038082111561483057600080fd5b61483c87838801614735565b9450602086013591508082111561485257600080fd5b61485e87838801614735565b9350604086013591508082111561487457600080fd5b50614881868287016147a0565b9150509250925092565b60008060008084860360c08112156148a257600080fd5b85356148ad81614482565b94506020860135935060408601356001600160401b038111156148cf57600080fd5b6148db888289016145fd565b9350506060605f19820112156148f057600080fd5b509295919450926060019150565b602080825282518282018190526000919060409081850190868401855b8281101561494957815180516001600160a01b0316855286015186850152928401929085019060010161491b565b5091979650505050505050565b60008083601f84011261496857600080fd5b5081356001600160401b0381111561497f57600080fd5b60208301915083602082850101111561499757600080fd5b9250929050565b60008060008060008060008060008060c08b8d0312156149bd57600080fd5b8a35995060208b01356001600160401b03808211156149db57600080fd5b6149e78e838f01614956565b909b50995060408d0135915080821115614a0057600080fd5b614a0c8e838f01614956565b909950975060608d0135915080821115614a2557600080fd5b614a318e838f01614956565b909750955060808d0135915080821115614a4a57600080fd5b50614a578d828e01614956565b9094509250614a6a905060a08c01614497565b90509295989b9194979a5092959850565b600080600060608486031215614a9057600080fd5b8335614a9b81614482565b925060208401356001600160401b0380821115614ab757600080fd5b614ac3878388016147a0565b93506040860135915080821115614ad957600080fd5b5061488186828701614735565b60008060208385031215614af957600080fd5b82356001600160401b03811115614b0f57600080fd5b614b1b85828601614956565b90969095509350505050565b60008083601f840112614b3957600080fd5b5081356001600160401b03811115614b5057600080fd5b6020830191508360208260051b850101111561499757600080fd5b60008060008060008060008060008060a08b8d031215614b8a57600080fd5b8a356001600160401b0380821115614ba157600080fd5b614bad8e838f01614b27565b909c509a5060208d0135915080821115614bc657600080fd5b614bd28e838f01614b27565b909a50985060408d0135915080821115614beb57600080fd5b614bf78e838f01614b27565b909850965060608d0135915080821115614c1057600080fd5b614c1c8e838f01614b27565b909650945060808d0135915080821115614c3557600080fd5b50614c428d828e01614b27565b915080935050809150509295989b9194979a5092959850565b803560ff811681146144a257600080fd5b600080600080600080600060e0888a031215614c8757600080fd5b8735614c9281614482565b96506020880135614ca281614482565b95506040880135945060608801359350614cbe60808901614c5b565b925060a0880135915060c0880135905092959891949750929550565b60008060408385031215614ced57600080fd5b8235614cf881614482565b91506020830135614d0881614482565b809150509250929050565b600181811c90821680614d2757607f821691505b6020821081141561461057634e487b7160e01b600052602260045260246000fd5b600060808284031215614d5a57600080fd5b604051608081018181106001600160401b0382111715614d7c57614d7c6146cc565b6040528251614d8a8161454f565b81526020830151614d9a8161454f565b60208201526040830151614dad8161454f565b60408201526060830151614dc08161454f565b60608201529392505050565b6020808252818101527f455243323054656d706c6174653a204e4f54204445504c4f59455220524f4c45604082015260600190565b6020808252601f908201527f5265656e7472616e637947756172643a207265656e7472616e742063616c6c00604082015260600190565b634e487b7160e01b600052601160045260246000fd5b60008219821115614e6157614e61614e38565b500190565b600060208284031215614e7857600080fd5b8151610d3881614482565b634e487b7160e01b600052603260045260246000fd5b600060208284031215614eab57600080fd5b5051919050565b600081518084526020808501945080840160005b838110156146ae57815187529582019590820190600101614ec6565b60008186825b6002811015614f105781516001600160a01b0316835260209283019290910190600101614ee8565b50505060a06040830152614f2760a0830186614eb2565b8281036060840152614f398186614eb2565b905082810360808401526143878185614675565b838152818360208301376000910160200190815292915050565b60008351614f798184602088016144c4565b9190910191825250602001919050565b8183823760009101908152919050565b81835281816020850137506000828201602090810191909152601f909101601f19169091010190565b8b815260e060208201526000614fdc60e083018c8e614f99565b8281036040840152614fef818b8d614f99565b9050828103606084015261500481898b614f99565b90508281036080840152615019818789614f99565b60a0840195909552505060c001529998505050505050505050565b6001600160a01b038416815260606020820181905260009061505890830185614675565b828103604084015261506a8185614eb2565b9695505050505050565b83815260406020820152600061508e604083018486614f99565b95945050505050565b60006001600160401b038311156150b0576150b06146cc565b6150c3601f8401601f19166020016146e2565b90508281528383830111156150d757600080fd5b828260208301376000602084830101529392505050565b60006150fc61475684614712565b80848252602080830192508560051b85013681111561511a57600080fd5b855b818110156151695780356001600160401b0381111561513b5760008081fd5b870136601f82011261514d5760008081fd5b61515b368235868401615097565b86525093820193820161511c565b50919695505050505050565b600061518361475684614712565b80848252602080830192508560051b8501368111156151a157600080fd5b855b818110156151695780356001600160401b038111156151c25760008081fd5b870136601f8201126151d45760008081fd5b6151e2368235868401615097565b8652509382019382016151a3565b600060001982141561520457615204614e38565b5060010190565b6000808335601e1984360301811261522257600080fd5b8301803591506001600160401b0382111561523c57600080fd5b60200191503681900382131561499757600080fd5b858782376bffffffffffffffffffffffff19606095861b8116969091019586529290931b909116601484015260288301526048820152606801919050565b6000602082840312156152a157600080fd5b610d3882614c5b565b87815260c0602082015260006152c460c08301888a614f99565b905060ff861660408301528460608301528360808301528260a083015298975050505050505050565b6000828210156152ff576152ff614e38565b500390565b600081600019048311821515161561531e5761531e614e38565b500290565b60008261534057634e487b7160e01b600052601260045260246000fd5b500490565b600060ff821660ff84168060ff0382111561536257615362614e38565b019392505050565b600080835481600182811c91508083168061538657607f831692505b60208084108214156153a657634e487b7160e01b86526022600452602486fd5b8180156153ba57600181146153cb576153f8565b60ff198616895284890196506153f8565b60008a81526020902060005b868110156153f05781548b8201529085019083016153d7565b505084890196505b509498975050505050505050565b60006020828403121561541857600080fd5b8151610d388161454f565b600082516154358184602087016144c4565b919091019291505056fea2646970667358221220c89607dcf832139830bed4704d02f1308d2086d01347f6cdf4d5155ed83e4e8464736f6c634300080a0033",
  "linkReferences": {},
  "deployedLinkReferences": {}
}